:100000000C94DB000C9403010C9403010C94890301
:100010000C94B3030C94DD030C9403010C940301C2
:100020000C9403010C9403010C9403010C946001E3
:100030000C9403010C9403010C9403010C94030130
:100040000C94570D0C9403010C94010F0C944F0F5A
:100050000C9403010C9403010C9403010C94030110
:100060000C9403010C9403012C0C3B0C3F0C460C2C
:100070004C0C700C790C840C8F0C990C990C990C0D
:10008000990C990C990C990C990C990C990C990C48
:10009000990C990C990C990C990C990C990C990C38
:1000A000990C990C990C990C2C0C330C3B0C3F0CB3
:1000B000460C4C0C530C5E0C690C00C20100010094
:1000C000110011000C0000E100000A0025002500CD
:1000D0002100009600001900390039003600127A1C
:1000E00000001F004600460044008070000022000F
:1000F0004D004D004A00004B0000360075007500B1
:100100007200403800004A009C009C009900802545
:1001100000007200EC00EC00E900C0120000E900F1
:10012000DA01DA01D70160090000D701B603B6038E
:10013000B303B0040000B3036E076E076B075802E9
:1001400000006E07DC0EDC0ED80E2C010000DC0E69
:10015000C11DC11DBE1D00000000240027002A0093
:1001600000000000250028002B00000000002300F4
:100170002600290004040404040404040202020208
:10018000020203030303030301020408102040805A
:1001900001020408102001020408102000000007DA
:1001A000000201000003040600000000000000003F
:1001B000B101BB10AA0111241FBECFEFD8E0DEBFF2
:1001C000CDBF12E0A0E0B1E0E6E7FCE202C005909E
:1001D0000D92AA30B107D9F714E0AAE0B2E001C04D
:1001E0001D92A732B107E1F711E0C4EBD1E004C0E2
:1001F0002297FE010E942A16C03BD107C9F70E9430
:1002000011110C942E160C9400001F93FC019927D9
:100210008827BC01E89411911032E9F3193010F0ED
:100220001E30C8F31B3251F01D3249F4689406C0E9
:100230000E944B01610F711D811D911D1191105381
:100240001A30B0F33EF490958095709561957F4F8C
:100250008F4F9F4F1F910895FB01DC018D910190FD
:1002600080190110D9F3990B0895FB01DC0101906D
:100270000D920020E1F70895FB01DC014150504050
:1002800048F001900D920020C9F701C01D92415025
:100290005040E0F70895592F482F372F262F660F2B
:1002A000771F881F991F660F771F881F991F620F7E
:1002B000731F841F951F660F771F881F991F08954E
:1002C0001F920F920FB60F9211240F900FBE0F9036
:1002D0001F901895CF92EF920F938130910569F599
:1002E0006F5F7F4F99F58AE092E00E94900887EB5C
:1002F00092E066E047E020E00E94720683ED92E023
:100300006CE04BE025E004E053E0E52E32E0C32E44
:100310000E94570860E070EC8FE794E420E030E042
:1003200040E050E00E940A146093EC027093ED02EA
:100330008093EE029093EF0209C0892B39F46F5F2E
:100340007F4F21F487EB92E00E94F9040F91EF9028
:10035000CF90089580E090E06FEF7FEF0E946A01F8
:10036000089581E090E06FEF7FEF0E946A010895A9
:10037000EF92FF920F931F9380E00E944B0E8C012F
:1003800085E094E060E071E00E9491129091D202C9
:10039000892F8E7F8093D20290FD03C060E271E0CE
:1003A00002C063E271E085E094E00E948E1385E074
:1003B00094E068E271E00E9491124091AF02509186
:1003C000B0026091B1027091B20285E094E02AE03F
:1003D00030E00E94F91185E094E068E471E00E9449
:1003E000911260910A0285E094E070E04AE050E0EA
:1003F0000E94721283ED92E060E040E00E946A0782
:100400008AE392E00E940309682F70E06F5F7F4FDC
:1004100083ED92E04AE050E00E945F1283ED92E0AB
:1004200063E571E00E9491128AE392E00E94110953
:10043000682F83ED92E04AE050E00E940D1283EDB8
:1004400092E063E571E00E9491128AE392E00E94DB
:100450002709682F83ED92E04AE050E00E940D12D8
:1004600083ED92E06AE040E00E946A0760910A0230
:1004700083ED92E070E04AE050E00E945F12B80124
:10048000882777FD8095982F0E94A5142AE038E2EE
:1004900040EA5BE30E94591524EA30E74DE350E45B
:1004A0000E9459157B018C0185E094E065E571E0BF
:1004B0000E94911285E094E0B801A70122E030E0AB
:1004C0000E947B1383ED92E060E041E00E946A07A6
:1004D000C801B70120E030E040EE50E40E9406146D
:1004E00018162CF083ED92E06FE571E004C083ED07
:1004F00092E06DE671E00E94911283ED92E0B80106
:10050000A70122E030E00E94781383ED92E06BE6D1
:1005100071E00E9491120E949F0D7B018C0109C025
:1005200087EB92E00E940205682F8AE092E00E9429
:10053000E20C87EB92E00E942305892B89F70E9449
:100540009F0D6E197F09800B910B685E7340804090
:10055000904078F380910A02882321F08091D7019E
:1005600061E003C08091D70160E00E94AC0E1F9152
:100570000F91FF90EF9008950F931F9385E094E003
:1005800040E850E760E070E00E948A0F87EB92E05D
:1005900040E056E960E070E00E94070403ED12E0DD
:1005A000C80160E142E020E00E94A107C80160E0CC
:1005B00040E00E946A07C8010E949907C80165E7E8
:1005C00071E00E9491126CE271E080E090E00E9484
:1005D000AD0D8091D70161E00E946D0E8091D70131
:1005E00060E00E94AC0E0E949F0D6093E802709341
:1005F000E9028093EA029093EB02C8010E949907F6
:10060000F89410928000E1E8F0E0108210928500EA
:100610001092840081E19AE790938900809388008A
:10062000808188608083808185608083EFE6F0E050
:1006300080818260808378941F910F9108950F9339
:100640001F93CF93DF93FC01738D76957170A68510
:10065000B7859585772329F08C91892309F454C0B7
:1006600004C08C91892309F04FC08389948920E0CC
:1006700001972FEF8F3F9207D9F7C589D689A685B5
:10068000B785158560E031E040E050E000E0CE0144
:10069000202F01972FEF8F3F9207D9F78C9181235D
:1006A00011F0632B03C0832F80956823330F4F5FB6
:1006B0005F4F4830510559F78789908D20E00197A9
:1006C0002FEF8F3F9207D9F77111609580917203D8
:1006D0002091730390E001968F77907030E082173D
:1006E000930779F0E0917203F0E0EE50FD4F6083E4
:1006F0008091720390E001968F77907080937203DF
:1007000003C0838D8160838FDF91CF911F910F9103
:1007100008951F920F920FB60F9211242F933F93BB
:100720004F935F936F937F938F939F93AF93BF93F9
:10073000EF93FF938091F0029091F102009711F0F6
:100740000E941F03FF91EF91BF91AF919F918F91F5
:100750007F916F915F914F913F912F910F900FBEBD
:100760000F901F9018951F920F920FB60F921124A1
:100770002F933F934F935F936F937F938F939F93A9
:10078000AF93BF93EF93FF938091F0029091F102AA
:10079000009711F00E941F03FF91EF91BF91AF915D
:1007A0009F918F917F916F915F914F913F912F9189
:1007B0000F900FBE0F901F9018951F920F920FB6BB
:1007C0000F9211242F933F934F935F936F937F93D7
:1007D0008F939F93AF93BF93EF93FF938091F0021A
:1007E0009091F102009711F00E941F03FF91EF9189
:1007F000BF91AF919F918F917F916F915F914F9139
:100800003F912F910F900FBE0F901F901895CF9290
:10081000DF92EF92FF920F931F93CF93DF93EC0140
:100820007A018B011A8E198E188E1F8A1E8A1D8AD4
:100830001C8A1B8A20E030E06901CC0CDD1CC20E52
:10084000D31EB601660F771F660F771FAB014654A4
:100850005F4FFA0185919591A591B4918E159F05F1
:10086000A007B107E9F4FB01E254FF4F8591949191
:100870009C8B8B8BFB01E054FF4F859194919E8B59
:100880008D8BFB01EE53FF4F85919491988F8F8B49
:10089000FB01EC53FF4F859194919A8F898F06C08D
:1008A0002F5F3F4F2D30310509F0C6CF8F89988DCE
:1008B000892B09F449C04C85463108F03DC0909120
:1008C0006800483010F484E005C04E3010F082E03B
:1008D00001C081E0892B80936800483028F4EDE660
:1008E000F0E0ADE6B0E00BC04E3028F0ECE6F0E012
:1008F000ACE6B0E004C0EBE6F0E0ABE6B0E050817F
:10090000483040F481E090E002C0880F991F4A957A
:10091000E2F710C0242F30E04E3018F42850304059
:1009200002C02E50304081E090E002C0880F991F35
:100930002A95E2F7852B8C93898D9A8D20E001977B
:100940002FEF8F3F9207D9F78091F0029091F1023B
:100950008C179D0781F08B8D8E7F8B8F9FB7F894BE
:10096000109272038091720380937303D093F1020B
:10097000C093F0029FBFDF91CF911F910F91FF9025
:10098000EF90DF90CF900895FC014485463180F5CB
:10099000483028F4EDE6F0E0ADE6B0E00BC04E30B4
:1009A00028F4EBE6F0E0ABE6B0E004C0ECE6F0E003
:1009B000ACE6B0E05081483040F481E090E002C005
:1009C000880F991F4A95E2F710C0242F30E04E306F
:1009D00018F42850304002C02E50304081E090E0A2
:1009E00002C0880F991F2A95E2F7809585238C9382
:1009F0000895FC018EED91E091838083CF010E94E8
:100A0000C40408952091F0023091F10228173907AB
:100A100031F49091730380917203981719F42FEFBA
:100A20003FEF0FC0E0917303F0E0EE50FD4F2081E7
:100A30008091730390E001968F7790708093730399
:100A400030E0C90108952091F0023091F102281799
:100A5000390719F020E030E00EC080917203209138
:100A6000730390E080589F4F821B910960E870E00B
:100A70000E94DF159C01C90108950F931F93DC01AB
:100A800059968D919C915A97892B49F481E090E079
:100A900013969C938E93129720E030E097C00FB787
:100AA000F8945B968C915B975196ED91FC915297DF
:100AB00050962C91509781FF8DC08081822B80832E
:100AC00059968D919C915A97059620E001972FEFAA
:100AD0008F3F9207D9F75B968C915B9781FF35C06A
:100AE00031E040E050E070E010E0832F90E086239A
:100AF00097235196ED91FC91529750962C915097D7
:100B0000892B29F0808120952823208303C08081B0
:100B1000822B808359968D919C915A97212F019712
:100B20002FEF8F3F9207D9F7330F4F5F5F4F48305A
:100B30005105D9F65196ED91FC91529790815096BE
:100B40008C9150978095892333C031E040E050E08C
:100B500070E010E0832F90E0862397235196ED916B
:100B6000FC91529750962C915097892B21F08081BF
:100B7000822B808304C0808120952823208359966E
:100B80008D919C915A97212F01972FEF8F3F9207BC
:100B9000D9F7330F4F5F5F4F48305105D9F6519663
:100BA000ED91FC915297808150969C915097892BA2
:100BB00080830FBF59968D919C915A9720E00197A1
:100BC0002FEF8F3F9207D9F721E030E0C9011F9145
:100BD0000F910895808120952823208371CF209143
:100BE000F0023091F1022817390749F49FB7F894C1
:100BF0001092720380917203809373039FBF0895D4
:100C00002091F0023091F1022817390731F49091C8
:100C1000730380917203981719F42FEF3FEF0AC006
:100C2000E0917303F0E0EE50FD4F8081282F3327D1
:100C300027FD3095C90108951F93CF93DF93EC01F1
:100C4000162F862F60E00E946D0E8B8D81FD04C0F3
:100C5000812F61E00E94AC0E1C87212F30E0C9017A
:100C600088579E4FFC0184918D872C583E4FF90187
:100C70006491E62FF0E0EE0FFF1FE659FE4F8591DD
:100C800094919F878E87DF91CF911F910895FF9256
:100C90000F931F938C01F62E862F61E00E946D0E3C
:100CA0008F2D61E00E94AC0E8F2D90E0FC01E85783
:100CB000FE4FE491D8015096EC9350978C589E4F7C
:100CC000FC016491E62FF0E0EE0FFF1FE05AFE4FAB
:100CD0008591949152969C938E9351971F910F9169
:100CE000FF900895FF920F931F938C01F62EFC0145
:100CF0001382128288EE93E0A0E0B0E084839583B3
:100D0000A683B7838EED91E091838083148A138A42
:100D1000168A158A108E178A128E118E838D217075
:100D2000220F8C7F822B838FC801642F0E9447067D
:100D3000C8016F2D0E941C061F910F91FF9008950E
:100D40000F931F938C01FC01868160E00E94AC0E22
:100D500081E090E00E94060EF801868161E00E9429
:100D6000AC0E81E090E00E94060EF801868160E002
:100D70000E94AC0E84E690E00E94060E1F910F9137
:100D80000895CF92DF92EF92FF920F931F93CF932C
:100D9000DF93D82EC92E282F392FC9018C01C0E02E
:100DA000D0E0E62EFF24F801878161E00E946D0EFD
:100DB000B7010C2E02C0759567950A94E2F7617031
:100DC000F80187810E94AC0E21960F5F1F4FC8303B
:100DD000D10549F78D2D9C2D0E94A006DF91CF9162
:100DE0001F910F91FF90EF90DF90CF900895CF92D9
:100DF000DF92EF92FF920F931F93CF93DF93D82E42
:100E0000C92E282F392FC9018C01C0E0D0E0E62E71
:100E1000FF24F801878161E00E946D0EB7010C2E5E
:100E200002C0759567950A94E2F76170F8018781B1
:100E30000E94AC0E21960F5F1F4FC430D10549F7B9
:100E40008D2D9C2D0E94A006DF91CF911F910F91B7
:100E5000FF90EF90DF90CF9008951F93CF93DF9393
:100E6000EC01162F8C81642F0E94AC0E8D818F3F78
:100E700019F060E00E94AC0E8F8584FF05C0CE01A2
:100E8000612F0E94C1060EC0612F70E084E075954D
:100E900067958A95E1F7CE010E94F706CE01612F92
:100EA0000E94F706DF91CF911F91089541E00E94C3
:100EB0002D0781E090E0089540E00E942D070895FD
:100EC000FC016089862F8460808B6C60CF010E945A
:100ED0005C070895DF93CF93CDB7DEB728970FB6A1
:100EE000F894DEBF0FBECDBF9C01FE013196A2EF8C
:100EF000B1E088E00D9001928150E1F7F90183891A
:100F0000481710F0482F4150E42FF0E0EE0FFF1F7C
:100F1000EC0FFD1F8181680F6068C9010E945C07AA
:100F200028960FB6F894DEBF0FBECDBFCF91DF91EC
:100F3000089561E00E945C0780ED97E00E94060E34
:100F40000895CF93DF93EC01423018F08F858860CD
:100F50008F874B8B1C8A222329F0413019F48F850F
:100F600084608F8780E593EC0E94060E8C8160E0A0
:100F70000E94AC0E8E8160E00E94AC0E8D818F3F8E
:100F800019F060E00E94AC0E6F8564FD1DC0CE01BB
:100F900063E00E94F70684E991E10E94060ECE010B
:100FA00063E00E94F70684E991E10E94060ECE01FB
:100FB00063E00E94F70686E990E00E94060ECE01EB
:100FC00062E00E94F70616C06062CE010E945C07D4
:100FD00084E991E10E94060E6F856062CE010E9455
:100FE0005C0786E990E00E94060E6F856062CE0184
:100FF0000E945C076F856062CE010E945C0784E0FE
:10100000888BCE010E946007CE010E94990782E082
:10101000898BCE0166E00E945C07DF91CF91089535
:101020006F927F928F92AF92CF92EF920F931F9316
:10103000DF93CF93CDB7DEB73C01162F842FF3019A
:10104000448325830683E782C086A18682869D85A8
:1010500093879E8594879F8595879889968761E079
:101060000E946D0EF30185818F3F19F061E00E94AF
:101070006D0EF301868161E00E946D0E112319F05F
:10108000F301178603C080E1F3018787C30160E1A4
:1010900041E020E00E94A107CF91DF911F910F91C5
:1010A000EF90CF90AF908F907F906F9008958F9238
:1010B000AF92CF92EF920F931F93CF93DF93DC0108
:1010C000362F542F722F102FAE2C8C2C13961C926F
:1010D0001E9212978EEE91E011969C938E9300D003
:1010E00000D0EDB7FEB73196CDB7DEB719821182C9
:1010F00012821382CD0161E0432F2FEF052FE72EDF
:10110000C12E0E9410080F900F900F900F90DF914A
:10111000CF911F910F91EF90CF90AF908F90089546
:10112000FC011082118213821282148215821682AF
:1011300017821086128611861386148615861686E7
:101140001786118A108A128A138A148A158A168AB7
:10115000108E178A118E128E138E148E158E12A277
:1011600013A214A215A216A217A210AA11AA12AABB
:1011700013AA14AA15AA16AE17AEEC5BFF4F108285
:101180001182128213823896119210823596108243
:101190001182128213823896119210823596108233
:1011A0001182128213823896119210823596108223
:1011B0001182128213823896119210823596108213
:1011C000118212821382389611921082709682E0F8
:1011D0008193119211921192119211921192119286
:1011E00011921192119211921192119211921192E7
:1011F0001192119211921192108211821282138215
:10120000B39710820895FC011182628173818481F9
:10121000958120E432E44FE050E00E94F215822FE5
:101220000895FC011182628173818481958120E19E
:1012300037E240E050E00E94F215CA01B90124E60D
:1012400030E040E050E00E94F215862F0895FC0146
:101250001182628173818481958124E630E040E0CF
:1012600050E00E94F215CA01B90124E630E040E0E6
:1012700050E00E94F215862F089540E150E00E9450
:101280003C0108950F931F938C014096B8010E9472
:1012900035010E949F0DF80160A371A382A393A35F
:1012A00081E085A384A31F910F9108950F931F934D
:1012B0008C01FC0182859385A485B58586839783FF
:1012C000A087B1870E949F0DF80162837383848396
:1012D000958381E0818380831F910F9108950F93FF
:1012E0001F938C01FC0182859385A485B585868337
:1012F0009783A087B1870E949F0DF8016283738353
:101300008483958381E0818380831F910F91089569
:101310000F931F938C01FC0186819781A085B18575
:1013200082839383A483B5830E949F0DF801628713
:1013300073878487958781E0818380831F910F91D4
:1013400008950F931F938C01FC0186819781A085DE
:10135000B18582839383A483B5830E949F0DF80196
:10136000628773878487958781E0818380831F915B
:101370000F910895CF93DF93EC01DC011296FC01ED
:10138000709687E001900D928150E1F7DE01199689
:10139000FE01779687E001900D928150E1F70E945F
:1013A0009F0D6E8F7F8F88A399A381E089838883A7
:1013B000DF91CF9108956F927F928F929F92AF921B
:1013C000BF92CF92DF92EF92FF920F931F93CF9332
:1013D000DF934C013B010E940501162F072FF82EC9
:1013E000E92E24E630E040E050E00E94F21580E073
:1013F00090E020E836E948E950E00E94C0155B0122
:101400006C01612F702F8F2D9E2D24E630E040E07F
:1014100050E00E94F215F3013183208303C0089449
:10142000811C911CF4012081822F992787FD9095C2
:10143000C0970A97A0F32E3271F530E8E32E36E913
:10144000F32E38E9032F112D19C0C801B7012AE086
:1014500030E040E050E00E94F215C901DA017C0161
:101460008D019E01442737FD4095542FC801B701D7
:101470000E94C015A60EB71EC81ED91E0894811C56
:10148000911CF4018081C82FDD27C7FDD095E0971E
:10149000CA30D105D0F2C601B50122E0660F771F30
:1014A000881F991F2A95D1F76A0D7B1D8C1D9D1DE4
:1014B0006F5F7F4F8F4F9F4F23E030E040E050E061
:1014C0000E94F215F30122833383448355831682ED
:1014D000DF91CF911F910F91FF90EF90DF90CF9010
:1014E000BF90AF909F908F907F906F9008951F93C3
:1014F000CF93DF93EC0110E088818D3211F411E07D
:101500002196CE010E94050124E630E040E050E043
:101510000E94C0159B01AC0101C021966881862FF5
:10152000992787FD9095C0970A97B8F36E3249F5D1
:101530006981862F992787FD9095C0970A9708F5AE
:101540008AE06802C0011124805E9140AA2797FDBD
:10155000A095BA2F280F391F4A1F5B1F8A81682F59
:10156000772767FD7095605370406A30710548F4C5
:10157000CB01AA2797FDA095BA2F280F391F4A1F24
:101580005B1F112339F050954095309521953F4FC1
:101590004F4F5F4FB901CA01DF91CF911F9108955D
:1015A000AF92BF92CF92DF92EF92FF920F931F9371
:1015B000CF93DF93EC01CB57DF4F8881C558D040E4
:1015C000882309F4D3C0CA57DF4F9881C658D0404A
:1015D000892F8154863038F4292F332727FD309501
:1015E000275330400CC0292F332727FD30959156C3
:1015F000963018F42755304002C020533040C95768
:10160000DF4F4881C758D040842F8154863030F452
:10161000842F992787FD9095C7970BC0842F992712
:1016200087FD90954156463018F48755904001C08B
:10163000C097E4E0220F331FEA95E1F7982F920F4D
:10164000CC57DF4F8881C458D040981709F07FC02D
:10165000FE01E755FF4F80819181A281B381019600
:10166000A11DB11D80839183A283B383C856DF4F30
:101670008881C859D040882371F0FE01EF55FF4F93
:1016800080819181A281B3810196A11DB11D8083CA
:101690009183A283B383CB56DF4F8881C559D04055
:1016A0008823E1F08130B9F5CE0182960E94A1092C
:1016B000CE01C0960E948809C856DF4F8881C8595C
:1016C000D040882341F1CE010E94BA09CE01CE96C6
:1016D0000E946F09CE01845B9F4F1BC0CE01C09654
:1016E0000E948809C856DF4F8881C859D040882396
:1016F00041F0CE010E94BA09CE01865A9F4F0E9446
:101700006F09CE0188599F4F0E945609CE018A5811
:101710009F4F0E946F09FE01E556FF4FC081D181A6
:101720008F0106C0CE010E9442090AA4DBA5C02D8C
:10173000209709F430C1D801ED91FC9166A177A101
:101740008EA19FA10E942C01009761F324C1FE018C
:10175000EB55FF4F80819181A281B3810196A11D3C
:10176000B11D80839183A283B38317C1CA56DF4F13
:101770008881C659D040882309F047C076E8C72E33
:10178000D12CCC0EDD1EC60169E871E00E942C014F
:10179000009739F4CB56DF4F81E08883C559D0409C
:1017A0000EC0C6016FE871E00E942C01FE01EB56ED
:1017B000FF4F009711F4108202C082E080836BE932
:1017C000E62EF12CEC0EFD1EC756DF4F8881998165
:1017D000F70191838083570105C08AA59BA5D50198
:1017E0008D939C93F501C081D181209709F4D5C0D8
:1017F0000EA11FA1C801B6010E942C0197FDEDCFDB
:10180000D8C0D7011D921C92C8C0CB56DF4F38817B
:10181000C559D040323009F48CC0DE01AA57BF4F01
:101820002C91222309F485C0E32FF0E055E0EE0F60
:10183000FF1F5A95E1F790E0E82BF92B3197E93239
:10184000F10508F076C0EC5CFF4FCD01EE0FFF1FF5
:101850000590F491E02D09940E94770A6EAB7FAB5E
:1018600088AF99AF66C0FE01E856FF4F1082213461
:1018700009F05FC03BC0BE01605F7F4F0AC01E8A97
:10188000233509F056C081E08E8B53C0BE01695EDE
:101890007F4F0E94DB094DC01D8E273509F049C0DE
:1018A00081E08D8F46C00E94770AC85BDF4F688356
:1018B00079838A839B83C854D0403BC00E94770AB7
:1018C000CA5ADF4F688379838A839B83C655D04089
:1018D00030C00E94050168A779A78AA79BA729C0E5
:1018E000FE01E856FF4F108221331CF181E0808316
:1018F00020C00E940501CE58DF4F688379838A8318
:101900009B83C257D04015C00E94770AC058DF4F52
:10191000688379838A839B83C058D0400AC00E9421
:10192000770ACC59DF4F688379838A839B83C456B7
:10193000D040FE01E556FF4F0081118146E8C42EDC
:10194000D12CCC0EDD1E7F01CA56DF4F0AC02817EE
:10195000390721F4C801B6010E943D09F80102A52A
:1019600013A501151105C9F0D701ED91FC9166A1F0
:1019700077A1F80186A197A10E942C01009769F434
:10198000D80198962D913C919997888190E0821783
:101990009307ECF602C081E001C080E0DF91CF91B7
:1019A0001F910F91FF90EF90DF90CF90BF90AF907D
:1019B0000895C801B6010E942C01181619060CF4EE
:1019C00020CFEBCF1F93CF93DF93EC01162FFC01B9
:1019D000E356FF4F80819181A281B3810196A11DC1
:1019E000B11D80839183A283B3836432A1F1DE01B0
:1019F000A956BF4F65322CF46A3069F06D30C9F5D5
:101A00000AC06A3241F06C32A1F5FE01EC57FF4F7B
:101A10008081862780838C918F3010F090E00AC0FF
:101A2000FE01E80FF11DEA57FF4F1082CE010E9420
:101A3000D00A982FFE01EA56FF4F80818F5F808386
:101A4000C956DF4F1882FE01729710821A3251F583
:101A500081E0808327C0C956DF4F18821A926297AF
:101A60001882619682E08883609718826396188254
:101A700018C08C918E3040F4FE01E80FF11DEA573A
:101A8000FF4F10838F5F8C93CB57DF4F8881C558F2
:101A9000D040882331F4FE01EC57FF4F808181272D
:101AA000808390E0892FDF91CF911F9108951F923D
:101AB0000F920FB60F9211242F933F938F939F9302
:101AC000AF93BF938091780390917903A0917A03AB
:101AD000B0917B0330917C030196A11DB11D232F92
:101AE0002D5F2D3720F02D570196A11DB11D20939C
:101AF0007C038093780390937903A0937A03B09347
:101B00007B038091740390917503A0917603B0914B
:101B100077030196A11DB11D809374039093750303
:101B2000A0937603B0937703BF91AF919F918F916C
:101B30003F912F910F900FBE0F901F9018958FB768
:101B4000F894209178033091790340917A03509171
:101B50007B038FBFB901CA0108959B01AC017FB718
:101B6000F8948091740390917503A0917603B091DD
:101B7000770366B5A89B05C06F3F19F00196A11DBC
:101B8000B11D7FBFBA2FA92F982F8827860F911DCF
:101B9000A11DB11D62E0880F991FAA1FBB1F6A9586
:101BA000D1F7BC012DC0FFB7F894809174039091D8
:101BB0007503A0917603B0917703E6B5A89B05C0A5
:101BC000EF3F19F00196A11DB11DFFBFBA2FA92F3C
:101BD000982F88278E0F911DA11DB11DE2E0880F5F
:101BE000991FAA1FBB1FEA95D1F7861B970B885E2A
:101BF0009340C8F2215030404040504068517C4FE3
:101C0000211531054105510571F60895019739F007
:101C1000880F991F880F991F02970197F1F7089570
:101C2000789484B5826084BD84B5816084BD85B5B7
:101C3000826085BD85B5816085BDEEE6F0E080817E
:101C400081608083E1E8F0E010828081826080839F
:101C5000808181608083E0E8F0E080818160808322
:101C6000E1EBF0E0808184608083E0EBF0E0808154
:101C700081608083EAE7F0E08081846080838081F6
:101C8000826080838081816080838081806880839E
:101C90001092C1000895982F8E3008F09E509770D2
:101CA0008091D9018295880F880F807C892B809341
:101CB0007C0080917A00806480937A0080917A0021
:101CC00086FDFCCF2091780040917900942F80E030
:101CD00030E0282B392BC9010895CF93DF93482F8B
:101CE00050E0CA0188579E4FFC0134914C585E4F1A
:101CF000FA018491882369F190E0880F991FFC0113
:101D0000EA5AFE4FA591B491FC01E05AFE4FC591ED
:101D1000D491662351F42FB7F8948C91932F90951A
:101D200089238C93888189230BC0623061F42FB79B
:101D3000F8948C91932F909589238C938881832B91
:101D400088832FBF06C09FB7F8948C91832B8C9308
:101D50009FBFDF91CF910895482F50E0CA0184566C
:101D60009E4FFC012491CA0188579E4FFC0194911B
:101D70004C585E4FFA013491332309F440C02223BA
:101D800051F1233071F0243028F42130A1F02230B9
:101D900011F514C02630B1F02730C1F02430D9F449
:101DA00004C0809180008F7703C0809180008F7D78
:101DB0008093800010C084B58F7702C084B58F7D7A
:101DC00084BD09C08091B0008F7703C08091B000BE
:101DD0008F7D8093B000E32FF0E0EE0FFF1FE05AFD
:101DE000FE4FA591B4912FB7F894662321F48C91FE
:101DF0009095892302C08C91892B8C932FBF0895D5
:101E000008951F920F920FB60F9211242F933F93B4
:101E10004F938F939F93EF93FF938091C00082FD28
:101E20001DC04091C6002091BD033091BE032F5FBD
:101E30003F4F2F7330708091BF039091C0032817DC
:101E4000390771F0E091BD03F091BE03E358FC4FF8
:101E500040833093BE032093BD0302C08091C6002F
:101E6000FF91EF919F918F914F913F912F910F9003
:101E70000FBE0F901F901895E0911104F09112047D
:101E8000E05CFF4F8191919120813181821B930B06
:101E90008F739070892B11F00E94000F08951F928C
:101EA0000F920FB60F9211242F933F938F939F930E
:101EB000EF93FF9320910104309102048091030479
:101EC000909104042817390731F48091C1008F7D67
:101ED0008093C10014C0E0910304F0910404EF5317
:101EE000FC4F2081809103049091040401968F732C
:101EF000907090930404809303042093C600FF9194
:101F0000EF919F918F913F912F910F900FBE0F9066
:101F10001F901895AF92BF92DF92EF92FF920F93AE
:101F20001F93CF93DF93EC017A018B01DD244030C6
:101F300081EE580780E0680780E0780711F0DD2423
:101F4000D39491E0A92EB12CEC89FD89DD2069F0B4
:101F5000C50108A002C0880F991F0A94E2F7808388
:101F600060E079E08DE390E005C0108260E874E8FD
:101F70008EE190E0A80197010E94F21521503040B7
:101F800040405040569547953795279580E1203041
:101F9000380720F0DD2011F0DD24D6CFE889F9895B
:101FA0003083EA89FB89208319A2EE89FF89408169
:101FB00021E030E0C9010C8C02C0880F991F0A94FF
:101FC000E2F7482B4083EE89FF894081C9010D8CDF
:101FD00002C0880F991F0A94E2F7482B4083EE89CC
:101FE000FF894081C9010E8C02C0880F991F0A9495
:101FF000E2F7482B4083EE89FF8980810F8C02C075
:10200000220F331F0A94E2F7209528232083DF91C3
:10201000CF911F910F91FF90EF90DF90BF90AF9005
:102020000895DC011C96ED91FC911D97E05CFF4F3B
:102030002191319180819181281B390B2F73307050
:10204000C9010895DC011C96ED91FC911D97E05C9F
:10205000FF4F20813181E054F040DF01AE5BBF4F84
:102060008D919C9111972817390719F42FEF3FEFA5
:1020700007C08D919C91E80FF91F8081282F30E0D7
:10208000C9010895DC011C96ED91FC911D97E05C5F
:10209000FF4F20813181E054F040DF01AE5BBF4F44
:1020A0008D919C9111972817390719F42FEF3FEF65
:1020B00010C08D919C911197E80FF91F20818D918F
:1020C0009C91119701968F73907011969C938E93AB
:1020D00030E0C9010895DC0191968C919197882395
:1020E00039F05496ED91FC915597808186FFF9CF98
:1020F00091961C920895CF93DF93EC01EE85FF85B6
:10210000E05CFF4F20813181E054F0402F5F3F4F72
:102110002F733070DF01AE5BBF4F8D919C91119793
:1021200028173907D1F3E05CFF4F80819181E0549B
:10213000F040E80FF91F6083EE85FF85E05CFF4FFC
:1021400031832083EE89FF89208181E090E00F8C2C
:1021500002C0880F991F0A94E2F7282B208381E0A0
:1021600089A3EC89FD8980818064808381E090E08F
:10217000DF91CF910895109208041092070488EE21
:1021800093E0A0E0B0E08093090490930A04A09348
:102190000B04B0930C048EEF91E0909306048093AF
:1021A00005048DE793E0909312048093110481EC71
:1021B00093E0909314048093130485EC90E0909343
:1021C00016048093150484EC90E090931804809397
:1021D000170480EC90E090931A048093190481EC2A
:1021E00090E090931C0480931B0482EC90E0909309
:1021F0001E0480931D0486EC90E09093200480934D
:102200001F0484E08093210483E08093220487E00C
:102210008093230485E08093240481E08093250447
:102220000895CF93DF930E94100E0E94BC02CCE36E
:10223000DFE00E94B8012097E1F30E943C0FF9CF44
:10224000CF92DF92EF92FF920F931F93CF93DF9382
:102250007C016B018A01C0E0D0E00FC0D6016D9116
:102260006D01D701ED91FC910190F081E02DC70146
:102270000995C80FD91F015010400115110571F7BC
:10228000CE01DF91CF911F910F91FF90EF90DF90E2
:10229000CF900895EF92FF920F931F938C01DC0172
:1022A000ED91FC910190F081E02D6DE009957C01AC
:1022B000D801ED91FC910190F081E02DC8016AE018
:1022C00009959C012E0D3F1DC9011F910F91FF9093
:1022D000EF900895CF93DF93EC016115710519F428
:1022E00020E030E00FC0DB010D900020E9F71197EE
:1022F000A61BB70BE881F9810280F381E02DAD01C7
:1023000009959C01C901DF91CF9108954F925F9289
:102310007F928F929F92AF92BF92CF92DF92EF9275
:10232000FF920F931F93DF93CF93CDB7DEB7A197A3
:102330000FB6F894DEBF0FBECDBF2C01742ECB01BB
:10234000223008F42AE019A231E2C32ED12CCC0E9F
:10235000DD1E822E9924AA24BB24672D752FA5018A
:1023600094010E94F21579018A01C801B701A50103
:1023700094010E94C015472D461B0894C108D1083E
:102380004A3014F4405D01C0495CF6014083E11419
:10239000F1040105110521F07E2C5F2DC801DDCF70
:1023A000C201B6010E946A11A1960FB6F894DEBF71
:1023B0000FBECDBFCF91DF911F910F91FF90EF9096
:1023C000DF90CF90BF90AF909F908F907F905F9065
:1023D0004F900895DC012115310541F4ED91FC91F8
:1023E0000190F081E02D642F099508950E948611D7
:1023F0000895EF92FF920F931F937C010E94EA11C0
:102400008C01C7010E944A119C01200F311FC90194
:102410001F910F91FF90EF900895EF92FF920F930D
:102420001F939A01E62EFF2400E010E0B801A701F7
:102430000E94EA111F910F91FF90EF900895CF92A3
:10244000DF92EF92FF920F931F93CF93DF93EC01F4
:102450006A017B012115310541F4E881F981019080
:10246000F081E02D642F09951FC02A303105D1F489
:1024700077FF17C0E881F9810190F081E02D6DE2CE
:1024800009958C0144275527BA014C195D096E093D
:102490007F09CE012AE00E9486119801280F391F7A
:1024A00004C02AE00E9486119C01C901DF91CF91EE
:1024B0001F910F91FF90EF90DF90CF900895EF92D2
:1024C000FF920F931F937B019A010027F7FC009561
:1024D000102FB801A7010E941F121F910F91FF90AA
:1024E000EF900895CF92DF92EF92FF920F931F9398
:1024F0006C017B019A010027F7FC0095102FB801B1
:10250000A7010E941F128C01C6010E944A11080FE8
:10251000191FC8011F910F91FF90EF90DF90CF908E
:1025200008950E946A1108957F928F929F92AF92B0
:10253000BF92CF92DF92EF92FF920F931F93CF93B0
:10254000DF934C017A018B01722ECB01BA01A801F5
:1025500097010E94BC15882321F0C40169EC71E049
:1025600021C0C0E0D0E057016801E894D7F8C60167
:10257000B5012FEF3FEF4FE75FE70E94BC158823BF
:1025800051F4C601B5012FEF3FEF4FE75FE70E941F
:102590000614181614F0C1E0D0E0219739F0C401F8
:1025A0006DEC71E00E946A11EC0193C0C801B701A3
:1025B0002FEF3FEF4FE75FE40E945515181654F0D8
:1025C000C801B7012FEF3FEF4FE75FEC0E94061401
:1025D000882324F4C40161ED71E0E4CFC801B701A0
:1025E00020E030E040E050E00E94061487FD03C088
:1025F000C0E0D0E00EC0D401ED91FC910190F081DB
:10260000E02DC4016DE20995EC0117FB109517F957
:10261000109520E030E040E05FE3DD240BC0CA010C
:10262000B90120E030E040E251E40E940A149B012D
:10263000AC01D394D71498F3C801B7010E94A21338
:102640005B016C010E9477147B018C01C401B8010D
:10265000A7012AE030E00E94EA11C80FD91F7720B5
:1026600039F0C40165ED71E00E946A11C80FD91FED
:10267000C801B7010E94A3149B01AC01C601B501BA
:102680000E94A11324C020E030E040E251E40E9407
:1026900059157B018C010E9472145B016C01CC24E2
:1026A000B7FCC094DC2CC401B601A5012AE030E0DF
:1026B0000E941F12C80FD91FC601B5010E94A514A0
:1026C0009B01AC01C801B7010E94A1137A94772045
:1026D000D1F6CE01DF91CF911F910F91FF90EF9036
:1026E000DF90CF90BF90AF909F908F907F90089594
:1026F0000E9494120895EF92FF920F931F937C0112
:102700000E9494128C01C7010E944A11080F191FE0
:10271000C8011F910F91FF90EF900895EF92FF92E3
:102720000F931F937C010E946A118C01C7010E94C4
:102730004A11080F191FC8011F910F91FF90EF90C8
:1027400008955058BB27AA270ED075C166D130F026
:102750006BD120F031F49F3F11F41EF45BC10EF4F5
:10276000E095E7FB51C1E92F77D180F3BA176207F3
:1027700073078407950718F071F49EF58FC10EF466
:10278000E0950B2EBA2FA02D0B01B90190010C0181
:10279000CA01A0011124FF27591B99F0593F50F499
:1027A000503E68F11A16F040A22F232F342F4427F1
:1027B000585FF3CF469537952795A795F0405395E9
:1027C000C9F77EF41F16BA0B620B730B840BBAF0B9
:1027D0009150A1F0FF0FBB1F661F771F881FC2F724
:1027E0000EC0BA0F621F731F841F48F48795779538
:1027F0006795B795F7959E3F08F0B3CF9395880FEF
:1028000008F09927EE0F979587950895D9D008F489
:1028100081E008950CD00FC107D140F0FED030F018
:1028200021F45F3F19F0F0C0511139C1F3C014D148
:1028300098F39923C9F35523B1F3951B550BBB2787
:10284000AA2762177307840738F09F5F5F4F220F34
:10285000331F441FAA1FA9F333D00E2E3AF0E0E82D
:1028600030D091505040E695001CCAF729D0FE2F79
:1028700027D0660F771F881FBB1F2617370748070B
:10288000AB07B0E809F0BB0B802DBF01FF279358C1
:102890005F4F2AF09E3F510568F0B6C000C15F3F10
:1028A000ECF3983EDCF3869577956795B795F795A9
:1028B0009F5FC9F7880F911D9695879597F90895A1
:1028C000E1E0660F771F881FBB1F6217730784073D
:1028D000BA0720F0621B730B840BBA0BEE1F88F74C
:1028E000E095089504D06894B111D9C00895BCD082
:1028F00088F09F5790F0B92F9927B751A0F0D1F0E9
:10290000660F771F881F991F1AF0BA95C9F712C072
:10291000B13081F0C3D0B1E00895C0C0672F782FE7
:102920008827B85F39F0B93FCCF3869577956795DE
:10293000B395D9F73EF490958095709561957F4F4A
:102940008F4F9F4F0895E89409C097FB3EF49095F0
:102950008095709561957F4F8F4F9F4F9923A9F078
:10296000F92F96E9BB279395F69587957795679507
:10297000B795F111F8CFFAF4BB0F11F460FF1BC04B
:102980006F5F7F4F8F4F9F4F16C0882311F096E9DE
:1029900011C0772321F09EE8872F762F05C066238C
:1029A00071F096E8862F70E060E02AF09A95660F45
:1029B000771F881FDAF7880F9695879597F90895FE
:1029C000990F0008550FAA0BE0E8FEEF1616170640
:1029D000E807F907C0F012161306E407F50798F0A8
:1029E000621B730B840B950B39F40A2661F0232BC1
:1029F000242B252B21F408950A2609F4A140A6953D
:102A00008FEF811D811D089597F99F6780E870E021
:102A100060E008959FEF80EC089500240A94161654
:102A2000170618060906089500240A9412161306BC
:102A3000140605060895092E0394000C11F488234A
:102A400052F0BB0F40F4BF2B11F460FF04C06F5F66
:102A50007F4F8F4F9F4F089557FD9058440F551F3C
:102A600059F05F3F71F04795880F97FB991F61F010
:102A70009F3F79F087950895121613061406551F87
:102A8000F2CF4695F1DF08C0161617061806991FF3
:102A9000F1CF86957105610508940895E894BB27E8
:102AA00066277727CB0197F908958ADF08F48FEF1F
:102AB00008950BD0C0CFB1DF28F0B6DF18F0952312
:102AC00009F0A2CFA7CF1124EACFC6DFA0F3959FCC
:102AD000D1F3950F50E0551F629FF001729FBB2705
:102AE000F00DB11D639FAA27F00DB11DAA1F649FB1
:102AF0006627B00DA11D661F829F2227B00DA11D64
:102B0000621F739FB00DA11D621F839FA00D611DE9
:102B1000221F749F3327A00D611D231F849F600D0A
:102B2000211D822F762F6A2F11249F5750408AF043
:102B3000E1F088234AF0EE0FFF1FBB1F661F771FCF
:102B4000881F91505040A9F79E3F510570F05CCF0F
:102B5000A6CF5F3FECF3983EDCF3869577956795BB
:102B6000B795F795E7959F5FC1F7FE2B880F911DED
:102B70009695879597F9089523DF880B990B08950B
:102B8000629FD001739FF001829FE00DF11D649F51
:102B9000E00DF11D929FF00D839FF00D749FF00DDD
:102BA000659FF00D9927729FB00DE11DF91F639F7E
:102BB000B00DE11DF91FBD01CF011124089597FB50
:102BC000092E07260AD077FD04D02ED006D000208B
:102BD0001AF4709561957F4F0895F6F79095819559
:102BE0009F4F0895A1E21A2EAA1BBB1BFD010DC029
:102BF000AA1FBB1FEE1FFF1FA217B307E407F507AD
:102C000020F0A21BB30BE40BF50B661F771F881F88
:102C1000991F1A9469F760957095809590959B011E
:102C2000AC01BD01CF010895AA1BBB1B51E107C038
:102C3000AA1FBB1FA617B70710F0A61BB70B881F4C
:102C4000991F5A95A9F780959095BC01CD010895DB
:102C5000EE0FFF1F0590F491E02D099411E0C4EBF5
:102C6000D1E004C0FE010E942A162296C63BD1077D
:062C7000C9F7F894FFCF44
:102C7600536F66742053657269616C20646576696A
:102C86006365206F766572666C6F7765643F2000BA
:102C96004E6F00594553210053656E74656E63652A
:102CA600732074686174206661696C65642063686A
:102CB60065636B73756D3D0049732076616C69645D
:102CC6003F20003A00566F6C746167653A200042F7
:102CD600617474204C4F572E3A200056004261749E
:102CE600742E3A200047505320617070207374612F
:102CF6007274696E672E2E2E004750524D43004760
:102D060050474741004E004E4E45004E4500454E49
:102D16004500450045534500534500535345005370
:102D26000053535700535700575357005700574EF9
:102D360057004E57004E4E57006E616E00696E6624
:102D4600006F7666002E000D0001000000003D05B4
:102D56002011230502050006EF05000000005607B6
:102D660020110000400014005400000000007B10F9
:0A2D760020111110421022106B1002
:00000001FF
