:100000000C9401010C9429010C9429010C942407EF
:100010000C944E070C9478070C9429010C94290138
:100020000C9429010C9429010C9429010C942901A8
:100030000C9429010C9429010C9429010C94290198
:100040000C9446120C9429010C9497130C94E5130C
:100050000C9429010C9429010C9429010C94290178
:100060000C9429010C9429013510441048104F10AC
:100070005510791082108D109810A210A210A210A5
:10008000A210A210A210A210A210A210A210A210E0
:10009000A210A210A210A210A210A210A210A210D0
:1000A000A210A210A210A21035103C10441048104B
:1000B0004F1055105C1067107210084AD73B3BCEAA
:1000C000016E84BCBFFDC12F3D6C74319ABD568357
:1000D0003DDA3D00C77F11BED9E4BB4C3E916BAA0F
:1000E000AABE000000803F05A84CCDB2D44EB9385E
:1000F00036A9020C50B9918688083CA6AAAA2ABE45
:10010000000000803F00C201000100110011000C3E
:100110000000E100000A00250025002100009600F3
:10012000001900390039003600127A00001F00461D
:1001300000460044008070000022004D004D004A3F
:1001400000004B000036007500750072004038005A
:10015000004A009C009C009900802500007200EC81
:1001600000EC00E900C0120000E900DA01DA01D772
:100170000160090000D701B603B603B303B0040061
:1001800000B3036E076E076B07580200006E07DCB2
:100190000EDC0ED80E2C010000DC0EC11DC11DBEF0
:1001A0001D00000000240027002A00000000002598
:1001B0000028002B00000000002300260029000476
:1001C00004040404040404020202020202030303FE
:1001D00003030301020408102040800102040810F8
:1001E00020010204081020000000070002010000A6
:1001F0000304060000000000000000005C0451152C
:10020000550411241FBECFEFD8E0DEBFCDBF12E0F2
:10021000A0E0B1E0E4EBF8E302C005900D92AC334E
:10022000B107D9F714E0ACE3B2E001C01D92A735E5
:10023000B107E1F711E0C0E0D2E004C02297FE016F
:100240000E94121CCC3FD107C9F70E94A7150C943D
:100250004D1C0C9400001F93FC0199278827BC01BA
:10026000E89411911032E9F3193010F01E30C8F300
:100270001B3251F01D3249F4689406C00E9471018E
:10028000610F711D811D911D119110531A30B0F332
:100290003EF490958095709561957F4F8F4F9F4F5D
:1002A0001F910895FB01DC018D91019080190110CF
:1002B000D9F3990B0895FB01DC0101900D92002008
:1002C000E1F70895FB01DC014150504048F00190F6
:1002D0000D920020C9F701C01D9241505040E0F737
:1002E0000895592F482F372F262F660F771F881F05
:1002F000991F660F771F881F991F620F731F841F36
:10030000951F660F771F881F991F0895AEE0B0E014
:10031000ECE8F1E00C94241C0D891E8986E08C83A6
:100320001A8309838FEF9FE79E838D839E01275E4B
:100330003F4FCE0101966F89788DA9010E94AA01D5
:100340002F813885020F131FF80110822E96E4E0EA
:100350000C94401CABE0B0E0E0EBF1E00C94161C18
:100360003C012B015A01FC0117821682838181FD19
:1003700003C06FEF7FEFC6C19AE0892E1E0108947B
:10038000211C311CF3012381F20123FD859123FF00
:1003900081912F01882309F4B2C1853239F423FDFC
:1003A000859123FF81912F01853229F490E0B301DB
:1003B0000E949D03E7CF982FFF24EE249924FFE1AC
:1003C000FF15D0F09B3269F09C3228F4903259F03E
:1003D000933291F40EC09D3249F0903369F441E0BC
:1003E00024C052E0F52A84E0F82A28C098E0F92ACF
:1003F00025C0E0E1FE2A22C0F7FC29C0892F8053E6
:100400008A3070F4F6FE05C0989C902C1124980E4A
:1004100015C0E89CE02C1124E80EF0E2FF2A0EC083
:100420009E3229F4F6FC6BC140E4F42A07C09C36E6
:1004300019F450E8F52A02C0983649F4F20123FD78
:10044000959123FF91912F01992309F0B8CF892F1E
:100450008554833018F08052833038F444E050E003
:10046000A40EB51E5FE359830FC0933631F0933766
:1004700079F0933509F056C020C0F5018081898359
:1004800042E050E0A40EB51E610101E010E012C090
:10049000F501C080D180F6FC03C06FEF7FEF02C092
:1004A000692D70E042E050E0A40EB51EC6010E9426
:1004B00092038C015FE7F52214C0F501C080D18062
:1004C000F6FC03C06FEF7FEF02C0692D70E042E0E1
:1004D00050E0A40EB51EC6010E9487038C0150E8AF
:1004E000F52AF3FE07C01AC080E290E0B3010E9433
:1004F0009D03EA948E2D90E008171907A8F30EC00B
:10050000F601F7FC8591F7FE81916F0190E0B30150
:100510000E949D03E110EA9401501040011511055D
:1005200079F7EAC0943611F0993669F5F7FE08C0FC
:10053000F501208131814281538184E090E00AC03D
:10054000F501808191819C01442737FD4095542F0E
:1005500082E090E0A80EB91E9FE6F92257FF09C07D
:1005600050954095309521953F4F4F4F5F4FE0E8B4
:10057000FE2ACA01B901A1012AE030E00E94C903A4
:10058000D82ED21840C0953729F41F2D1F7E2AE09F
:1005900030E01DC01F2D197F9F3661F0903720F489
:1005A000983509F0ACC00FC0903739F0983709F092
:1005B000A6C004C028E030E00AC0106114FD146039
:1005C00020E130E004C014FD166020E132E017FFA6
:1005D00008C0F501608171818281938144E050E01F
:1005E00008C0F50180819181BC0180E090E042E08B
:1005F00050E0A40EB51EA1010E94C903D82ED21846
:100600008FE7F82EF122F6FE0BC05EEFF522D9142B
:1006100038F4F4FE07C0F2FC05C08FEEF82202C0E9
:100620001D2D01C0192DF4FE0DC0FE01ED0DF11DB3
:100630008081803319F499EEF92208C01F5FF2FE21
:1006400005C003C08F2D867809F01F5F0F2DF3FCC6
:1006500014C0F0FE0FC01E1510F09D2C0BC09D2C79
:100660009E0C911A1E2D06C080E290E0B3010E94FC
:100670009D031F5F1E15C0F304C01E1510F4E11A80
:1006800001C0EE2404FF0FC080E390E0B3010E949C
:100690009D0302FF1DC001FD03C088E790E00EC06E
:1006A00088E590E00BC0802F867891F001FF02C0B2
:1006B0008BE201C080E2F7FC8DE290E0B3010E9482
:1006C0009D0306C080E390E0B3010E949D039A94CD
:1006D000D914C0F3DA94F101ED0DF11D808190E0A1
:1006E000B3010E949D03DD20A9F706C080E290E0DF
:1006F000B3010E949D03EA94EE20C1F743CEF301BB
:1007000066817781CB012B96E2E10C94321CFC01CF
:100710000590615070400110D8F7809590958E0F2C
:100720009F1F0895FC016150704001900110D8F79F
:10073000809590958E0F9F1F08950F931F93CF93D1
:10074000DF938C01EB018B8181FF1BC082FF0DC009
:100750002E813F818C819D812817390764F4E881BF
:10076000F9810193F983E88306C0E885F985802F34
:100770000995892B31F48E819F8101969F838E8309
:1007800002C00FEF1FEFC801DF91CF911F910F91B2
:100790000895FA01AA27283051F1203181F1E89417
:1007A0006F936E7F6E5F7F4F8F4F9F4FAF4FB1E064
:1007B0003ED0B4E03CD0670F781F891F9A1FA11D5F
:1007C000680F791F8A1F911DA11D6A0F711D811D60
:1007D000911DA11D20D009F468943F912AE0269F25
:1007E00011243019305D3193DEF6CF010895462F84
:1007F0004770405D4193B3E00FD0C9F7F6CF462F65
:100800004F70405D4A3318F0495D31FD40524193CD
:1008100002D0A9F7EACFB4E0A6959795879577958A
:100820006795BA95C9F700976105710508959B0111
:10083000AC010A2E06945795479537952795BA959A
:10084000C9F7620F731F841F951FA01D0895CF92D3
:10085000EF920F9381309105D9F46F5F7F4F09F5C7
:100860008CE392E00E942B0C89EE92E066E047E078
:1008700020E00E940D0A85E093E06CE04BE025E06B
:1008800004E053E0E52E32E0C32E0E94F20B09C0D3
:10089000892B39F46F5F7F4F21F489EE92E00E943B
:1008A00094080F91EF90CF90089580E090E06FEF63
:1008B0007FEF0E942704089581E090E06FEF7FEFC3
:1008C0000E9427040895EF92FF920F931F9380E0F8
:1008D0000E94E11290931B0380931A03AA2797FDAD
:1008E000A095BA2FBC01CD010E94A0192AE038E2E0
:1008F00040EA5BE30E94C21A24EA30E74DE350E489
:100900000E94C21A7B018C0185E093E060E041E027
:100910000E94050BC801B70120E030E040EE50E432
:100920000E94FE1818169CF085E093E060E071E0EC
:100930000E94271785E093E0B801A70122E030E08C
:100940000E940E1885E093E06CE071E012C085E033
:1009500093E06EE071E00E94271785E093E0B80114
:10096000A70122E030E00E940E1885E093E066E1E6
:1009700071E00E9427171F910F91FF90EF9008954B
:10098000AF92BF92CF92DF92EF92FF920F931F939D
:100990005B016C010E948E127B018C0109C089EE03
:1009A00092E00E949D08682F8CE392E00E94EB1079
:1009B00089EE92E00E94BE08892B89F70E948E1270
:1009C0006E197F09800B910B6A157B058C059D05BF
:1009D00078F31F910F91FF90EF90DF90CF90BF9031
:1009E000AF9008956F927F928F929F92AF92BF9235
:1009F000CF92DF92EF92FF920F931F93DF93CF93EB
:100A0000CDB7DEB7A0970FB6F894DEBF0FBECDBF4F
:100A10000E948E1220911C0330911D0340911E03F1
:100A200050911F0328573C4E4F4F5F4F621773077B
:100A30008407950760F00E9463040E948E12609301
:100A40001C0370931D0380931E0390931F0368EE95
:100A500073E080E090E00E94C00485E394E06CE1E4
:100A600071E00E94271790910403892F8E7F809355
:100A7000040390FD03C06CE371E002C06FE371E01A
:100A800085E394E00E94241885E394E064E471E037
:100A90000E9427174091E1025091E2026091E30227
:100AA0007091E40285E394E02AE030E00E948F1622
:100AB00085E394E064E671E00E94271760913C02B0
:100AC00085E394E070E04AE050E00E94081785E07A
:100AD00093E060E040E00E94050B8CE692E00E940B
:100AE0000C0D682F70E06F5F7F4F85E093E04AE068
:100AF00050E00E94F51685E093E06FE671E00E94F9
:100B000027178CE692E00E941A0D682F85E093E08B
:100B10004AE050E00E94A31685E093E06FE671E0A2
:100B20000E9427178CE692E00E94300D682F85E026
:100B300093E04AE050E00E94A31685E093E06AE06B
:100B400040E00E94050B60913C0285E093E070E07C
:100B50004AE050E00E94F51680913C02882309F497
:100B6000B1C08DE061E00E94421385E394E061E74B
:100B700071E00E9427178CE392E00E949E0CAB016B
:100B8000BC0185E394E026E030E00E94111885E383
:100B900094E066E771E00E9427178CE392E00E94E0
:100BA000D50CAB01BC0185E394E026E030E00E9467
:100BB00011188CE392E00E949E0C3B014C018CE3E7
:100BC00092E00E94D50C9B01AC01E0900202F090F3
:100BD00003020091040210910502A0900602B09059
:100BE0000702C0900802D0900902C401B3010E941C
:100BF00060119B01AC0190913C02DE011196E0E88E
:100C0000F1E082E101900D928150E1F7FE017396CF
:100C10008EE0DF011D928A95E9F7992381F1EDB706
:100C2000FEB738970FB6F894FEBF0FBEEDBF0DB7F5
:100C30001EB70F5F1F4FCE010196928381838CE711
:100C400091E0D80113969C938E931297CA01B90133
:100C50000E94721928EE33E040E050E00E94DA1B57
:100C6000F80124833583468357830E9486018DB71C
:100C70009EB708960FB6F8949EBF0FBE8DBF1A861A
:100C8000FE013196DF010D900020E9F71197AE1BB0
:100C9000BF0BEA0FFB1F80E202C081931196A930BF
:100CA000B105DCF380E2898785E394E0BE016F5FE4
:100CB0007F4F0E94271760E070E080E090E00E9484
:100CC000C00404C08DE060E00E944213A0960FB6FD
:100CD000F894DEBF0FBECDBFCF91DF911F910F9172
:100CE000FF90EF90DF90CF90BF90AF909F908F904C
:100CF0007F906F9008950F931F9385E394E040E8F1
:100D000050E760E070E00E94201489EE92E040E03D
:100D100056E960E070E00E94A20705E013E0C80118
:100D200060E142E020E00E943C0BC80160E040E04E
:100D30000E94050BC8010E94340BC80160EA71E0F3
:100D40000E9427178DE061E00E9403138DE060E0B0
:100D50000E9442130E948E1260931C0370931D0325
:100D600080931E0390931F03C8010E94340B1F91B0
:100D70000F9108950F931F93CF93DF93FC01738D11
:100D800076957170A685B7859585772329F08C9126
:100D9000892309F454C004C08C91892309F04FC001
:100DA0008389948920E001972FEF8F3F9207D9F72D
:100DB000C589D689A685B785158560E031E040E014
:100DC00050E000E0CE01202F01972FEF8F3F9207D8
:100DD000D9F78C91812311F0632B03C0832F809569
:100DE0006823330F4F5F5F4F4830510559F78789AC
:100DF000908D20E001972FEF8F3F9207D9F7711167
:100E000060958091A2032091A30390E001968F77D3
:100E1000907030E08217930779F0E091A203F0E040
:100E2000EE5DFC4F60838091A20390E001968F7786
:100E300090708093A20303C0838D8160838FDF91C4
:100E4000CF911F910F9108951F920F920FB60F929D
:100E500011242F933F934F935F936F937F938F93BF
:100E60009F93AF93BF93EF93FF9380912003909153
:100E70002103009711F00E94BA06FF91EF91BF91F4
:100E8000AF919F918F917F916F915F914F913F9122
:100E90002F910F900FBE0F901F9018951F920F92D9
:100EA0000FB60F9211242F933F934F935F936F933D
:100EB0007F938F939F93AF93BF93EF93FF93809113
:100EC000200390912103009711F00E94BA06FF9130
:100ED000EF91BF91AF919F918F917F916F915F91B2
:100EE0004F913F912F910F900FBE0F901F9018952B
:100EF0001F920F920FB60F9211242F933F934F938F
:100F00005F936F937F938F939F93AF93BF93EF9371
:100F1000FF938091200390912103009711F00E948C
:100F2000BA06FF91EF91BF91AF919F918F917F9101
:100F30006F915F914F913F912F910F900FBE0F9046
:100F40001F901895CF92DF92EF92FF920F931F930D
:100F5000CF93DF93EC017A018B011A8E198E188ED4
:100F60001F8A1E8A1D8A1C8A1B8A20E030E06901C4
:100F7000CC0CDD1CC20ED31EB601660F771F660FA8
:100F8000771FAB014B5F5E4FFA0185919591A5915B
:100F9000B4918E159F05A007B107E9F4FB01E75F47
:100FA000FE4F859194919C8B8B8BFB01E55FFE4FEF
:100FB000859194919E8B8D8BFB01E35FFE4F859114
:100FC0009491988F8F8BFB01E15FFE4F85919491F7
:100FD0009A8F898F06C02F5F3F4F2D30310509F062
:100FE000C6CF8F89988D892B09F449C04C8546312D
:100FF00008F03DC090916800483010F484E005C0CE
:101000004E3010F082E001C081E0892B80936800AF
:10101000483028F4EDE6F0E0ADE6B0E00BC04E302D
:1010200028F0ECE6F0E0ACE6B0E004C0EBE6F0E07F
:10103000ABE6B0E05081483040F481E090E002C07F
:10104000880F991F4A95E2F710C0242F30E04E30E8
:1010500018F42850304002C02E50304081E090E01B
:1010600002C0880F991F2A95E2F7852B8C93898DF2
:101070009A8D20E001972FEF8F3F9207D9F780914B
:101080002003909121038C179D0781F08B8D8E7F1B
:101090008B8F9FB7F8941092A2038091A203809344
:1010A000A303D0932103C09320039FBFDF91CF916F
:1010B0001F910F91FF90EF90DF90CF900895FC016A
:1010C0004485463180F5483028F4EDE6F0E0ADE6A1
:1010D000B0E00BC04E3028F4EBE6F0E0ABE6B0E059
:1010E00004C0ECE6F0E0ACE6B0E05081483040F4FB
:1010F00081E090E002C0880F991F4A95E2F710C086
:10110000242F30E04E3018F42850304002C02E50CA
:10111000304081E090E002C0880F991F2A95E2F7E5
:10112000809585238C930895FC018FE092E0918354
:101130008083CF010E945F080895209120033091A1
:1011400021032817390731F49091A3038091A2035A
:10115000981719F42FEF3FEF0FC0E091A303F0E0D1
:10116000EE5DFC4F20818091A30390E001968F7784
:1011700090708093A30330E0C9010895209120036B
:10118000309121032817390719F020E030E00EC014
:101190008091A2032091A30390E080589F4F821B6F
:1011A000910960E870E00E94C71B9C01C901089585
:1011B0000F931F93DC0159968D919C915A97892B1F
:1011C00049F481E090E013969C938E93129720E06F
:1011D00030E097C00FB7F8945B968C915B9751966F
:1011E000ED91FC91529750962C91509781FF8DC0B4
:1011F0008081822B808359968D919C915A97059678
:1012000020E001972FEF8F3F9207D9F75B968C91E3
:101210005B9781FF35C031E040E050E070E010E0C6
:10122000832F90E0862397235196ED91FC9152975E
:1012300050962C915097892B29F080812095282356
:10124000208303C08081822B808359968D919C914D
:101250005A97212F01972FEF8F3F9207D9F7330F1E
:101260004F5F5F4F48305105D9F65196ED91FC9193
:101270005297908150968C9150978095892333C0D6
:1012800031E040E050E070E010E0832F90E08623F2
:1012900097235196ED91FC91529750962C9150972F
:1012A000892B21F08081822B808304C0808120954E
:1012B0002823208359968D919C915A97212F01972D
:1012C0002FEF8F3F9207D9F7330F4F5F5F4F4830B3
:1012D0005105D9F65196ED91FC9152978081509627
:1012E0009C915097892B80830FBF59968D919C912B
:1012F0005A9720E001972FEF8F3F9207D9F721E00F
:1013000030E0C9011F910F91089580812095282315
:10131000208371CF209120033091210328173907B2
:1013200049F49FB7F8941092A2038091A20380938E
:10133000A3039FBF08952091200330912103281714
:10134000390731F49091A3038091A203981719F4FF
:101350002FEF3FEF0AC0E091A303F0E0EE5DFC4FFA
:101360008081282F332727FD3095C90108951F93C9
:10137000CF93DF93EC01162F862F60E00E940313BA
:101380008B8D81FD04C0812F61E00E9442131C8778
:10139000212F30E0C9018D529E4FFC0184918D8731
:1013A00021543E4FF9016491E62FF0E0EE0FFF1F4C
:1013B000EB54FE4F859194919F878E87DF91CF915B
:1013C0001F910895FF920F931F938C01F62E862F85
:1013D00061E00E9403138F2D61E00E9442138F2D64
:1013E00090E0FC01ED52FE4FE491D8015096EC9351
:1013F000509781549E4FFC016491E62FF0E0EE0F70
:10140000FF1FE555FE4F8591949152969C938E93C4
:1014100051971F910F91FF900895FF920F931F9383
:101420008C01F62EFC011382128288EE93E0A0E07C
:10143000B0E084839583A683B7838FE092E09183A5
:101440008083148A138A168A158A108E178A128E40
:10145000118E838D2170220F8C7F822B838FC80188
:10146000642F0E94E209C8016F2D0E94B7091F91E5
:101470000F91FF9008950F931F938C01FC018681BB
:1014800060E00E94421381E090E00E949C12F8010B
:10149000868161E00E94421381E090E00E949C12EC
:1014A000F801868160E00E94421384E690E00E9489
:1014B0009C121F910F910895CF92DF92EF92FF92AD
:1014C0000F931F93CF93DF93D82EC92E282F392F38
:1014D000C9018C01C0E0D0E0E62EFF24F80187812D
:1014E00061E00E940313B7010C2E02C07595679549
:1014F0000A94E2F76170F80187810E9442132196F5
:101500000F5F1F4FC830D10549F78D2D9C2D0E94CC
:101510003B0ADF91CF911F910F91FF90EF90DF90E9
:10152000CF900895CF92DF92EF92FF920F931F9387
:10153000CF93DF93D82EC92E282F392FC9018C01C4
:10154000C0E0D0E0E62EFF24F801878161E00E9430
:101550000313B7010C2E02C0759567950A94E2F744
:101560006170F80187810E94421321960F5F1F4F1F
:10157000C430D10549F78D2D9C2D0E943B0ADF9187
:10158000CF911F910F91FF90EF90DF90CF90089532
:101590001F93CF93DF93EC01162F8C81642F0E9451
:1015A00042138D818F3F19F060E00E9442138F85B6
:1015B00084FF05C0CE01612F0E945C0A0EC0612F1E
:1015C00070E084E0759567958A95E1F7CE010E94F9
:1015D000920ACE01612F0E94920ADF91CF911F9152
:1015E000089541E00E94C80A81E090E0089540E03B
:1015F0000E94C80A0895FC016089862F8460808B50
:101600006C60CF010E94F70A0895DF93CF93CDB7A6
:10161000DEB728970FB6F894DEBF0FBECDBF9C0192
:10162000FE013196A3E2B2E088E00D900192815074
:10163000E1F7F9018389481710F0482F4150E42F52
:10164000F0E0EE0FFF1FEC0FFD1F8181680F606857
:10165000C9010E94F70A28960FB6F894DEBF0FBEA4
:10166000CDBFCF91DF91089561E00E94F70A80ED30
:1016700097E00E949C120895CF93DF93EC014230D3
:1016800018F08F8588608F874B8B1C8A222329F066
:10169000413019F48F8584608F8780E593EC0E9438
:1016A0009C128C8160E00E9442138E8160E00E9457
:1016B00042138D818F3F19F060E00E9442136F85C5
:1016C00064FD1DC0CE0163E00E94920A84E991E1AD
:1016D0000E949C12CE0163E00E94920A84E991E18B
:1016E0000E949C12CE0163E00E94920A86E990E07B
:1016F0000E949C12CE0162E00E94920A16C06062B3
:10170000CE010E94F70A84E991E10E949C126F8544
:101710006062CE010E94F70A86E990E00E949C1266
:101720006F856062CE010E94F70A6F856062CE010C
:101730000E94F70A84E0888BCE010E94FB0ACE014A
:101740000E94340B82E0898BCE0166E00E94F70A8A
:10175000DF91CF9108956F927F928F92AF92CF9247
:10176000EF920F931F93DF93CF93CDB7DEB73C017A
:10177000162F842FF301448325830683E782C086D6
:10178000A18682869D8593879E8594879F85958770
:101790009889968761E00E940313F30185818F3F4A
:1017A00019F061E00E940313F301868161E00E9459
:1017B0000313112319F0F301178603C080E1F3012D
:1017C0008787C30160E141E020E00E943C0BCF919C
:1017D000DF911F910F91EF90CF90AF908F907F90FE
:1017E0006F9008958F92AF92CF92EF920F931F93C5
:1017F000CF93DF93DC01362F542F722F102FAE2C96
:101800008C2C13961C921E9212978FE192E01196E7
:101810009C938E9300D000D0EDB7FEB73196CDB734
:10182000DEB71982118212821382CD0161E0432F4B
:101830002FEF052FE72EC12E0E94AB0B0F900F90BC
:101840000F900F90DF91CF911F910F91EF90CF905C
:10185000AF908F900895FC01108211821382128242
:1018600014821582168217821086128611861386BC
:101870001486158616861786118A108A128A138A8C
:10188000148A158A168A108E178A118E128E138E5C
:10189000148E158E12A213A214A215A216A217A2BC
:1018A00010AA11AA12AA13AA14AA15AA16AE17AE44
:1018B000EC5BFF4F108211821282138238961192D4
:1018C00010823596108211821282138238961192FC
:1018D00010823596108211821282138238961192EC
:1018E00010823596108211821282138238961192DC
:1018F00010823596108211821282138238961192CC
:101900001082709682E0819311921192119211923D
:1019100011921192119211921192119211921192AF
:1019200011921192119211921192119211921082B0
:10193000118212821382B39710820895CF92DF92A0
:10194000EF92FF920F931F938C01FC011182628131
:10195000738180E090E00E949E196B017C01F80188
:1019600064817581868197810E949E1928E23BE6F9
:101970004EE65EE40E9405199B01AC01C701B60169
:101980000E9438186B017C01F8018085882321F0C2
:10199000F7FAF094F7F8F094B601C7011F910F9190
:1019A000FF90EF90DF90CF900895CF92DF92EF926B
:1019B000FF920F931F938C01FC0111826185728548
:1019C00080E090E00E949E196B017C01F801638524
:1019D0007485858596850E949E1928E23BE64EE631
:1019E0005EE40E9405199B01AC01C701B6010E948B
:1019F00038186B017C01F8018785882321F0F7FAFC
:101A0000F094F7F8F094B601C7011F910F91FF9081
:101A1000EF90DF90CF900895FC0111826281738175
:101A20008481958120E432E44FE050E00E94DA1B8B
:101A3000822F0895FC0111826281738184819581D6
:101A400020E137E240E050E00E94DA1BCA01B90110
:101A500024E630E040E050E00E94DA1B862F089533
:101A6000FC011182628173818481958124E630E0DA
:101A700040E050E00E94DA1BCA01B90124E630E0E0
:101A800040E050E00E94DA1B862F089540E150E0CC
:101A90000E94620108950F931F938C014096B80134
:101AA0000E945B010E948E12F80160A371A382A3C1
:101AB00093A381E085A384A31F910F9108950F93B1
:101AC0001F938C01FC0182859385A485B58586834F
:101AD0009783A087B1870E948E12F8016283738377
:101AE0008483958381E0818380831F910F91089582
:101AF0000F931F938C01FC0182859385A485B58586
:101B000086839783A087B1870E948E12F801628333
:101B100073838483958381E0818380831F910F91F8
:101B200008950F931F938C01FC0186819781A085F6
:101B3000B18582839383A483B5830E948E12F801BA
:101B4000628773878487958781E0818380831F9173
:101B50000F9108950F931F938C01FC01868197814B
:101B6000A085B18582839383A483B5830E948E125E
:101B7000F801628773878487958781E081838083FA
:101B80001F910F910895CF93DF93EC01DC01129622
:101B9000FC01709687E001900D928150E1F7DE0123
:101BA0001996FE01779687E001900D928150E1F73A
:101BB0000E948E126E8F7F8F88A399A381E0898304
:101BC0008883DF91CF9108956F927F928F929F9239
:101BD000AF92BF92CF92DF92EF92FF920F931F933B
:101BE000CF93DF934C013B010E942B01162F072F4F
:101BF000F82EE92E24E630E040E050E00E94DA1BA7
:101C000080E090E020E836E948E950E00E94A81B17
:101C10005B016C01612F702F8F2D9E2D24E630E02B
:101C200040E050E00E94DA1BF3013183208303C0BF
:101C30000894811C911CF4012081822F992787FD33
:101C40009095C0970A97A0F32E3271F530E8E32EF5
:101C500036E9F32E38E9032F112D19C0C801B70159
:101C60002AE030E040E050E00E94DA1BC901DA01CE
:101C70007C018D019E01442737FD4095542FC801FA
:101C8000B7010E94A81BA60EB71EC81ED91E089435
:101C9000811C911CF4018081C82FDD27C7FDD095E0
:101CA000E097CA30D105D0F2C601B50122E0660F37
:101CB000771F881F991F2A95D1F76A0D7B1D8C1DF0
:101CC0009D1D6F5F7F4F8F4F9F4F23E030E040E0BF
:101CD00050E00E94DA1BF30122833383448355834F
:101CE0001682DF91CF911F910F91FF90EF90DF90BF
:101CF000CF90BF90AF909F908F907F906F900895FE
:101D00001F93CF93DF93EC0110E088818D3211F4A3
:101D100011E02196CE010E942B0124E630E040E044
:101D200050E00E94A81B9B01AC0101C02196688174
:101D3000862F992787FD9095C0970A97B8F36E3242
:101D400049F56981862F992787FD9095C0970A9755
:101D500008F58AE06802C0011124805E9140AA273C
:101D600097FDA095BA2F280F391F4A1F5B1F8A8144
:101D7000682F772767FD7095605370406A30710552
:101D800048F4CB01AA2797FDA095BA2F280F391F39
:101D90004A1F5B1F112339F05095409530952195CE
:101DA0003F4F4F4F5F4FB901CA01DF91CF911F9154
:101DB0000895AF92BF92CF92DF92EF92FF920F936E
:101DC0001F93CF93DF93EC01CB57DF4F8881C5582A
:101DD000D040882309F4D3C0CA57DF4F9881C65832
:101DE000D040892F8154863038F4292F332727FD9E
:101DF0003095275330400CC0292F332727FD3095CD
:101E00009156963018F42755304002C02053304088
:101E1000C957DF4F4881C758D040842F815486303E
:101E200030F4842F992787FD9095C7970BC0842F96
:101E3000992787FD90954156463018F48755904074
:101E400001C0C097E4E0220F331FEA95E1F7982F15
:101E5000920FCC57DF4F8881C458D040981709F0B3
:101E60007FC0FE01E755FF4F80819181A281B38140
:101E70000196A11DB11D80839183A283B383C856AF
:101E8000DF4F8881C859D040882371F0FE01EF559B
:101E9000FF4F80819181A281B3810196A11DB11D67
:101EA00080839183A283B383CB56DF4F8881C5594A
:101EB000D0408823E1F08130B9F5CE0182960E94AE
:101EC000AA0DCE01C0960E94910DC856DF4F8881A1
:101ED000C859D040882341F1CE010E94C30DCE01E4
:101EE000CE960E94780DCE01845B9F4F1BC0CE0121
:101EF000C0960E94910DC856DF4F8881C859D040C6
:101F0000882341F0CE010E94C30DCE01865A9F4F17
:101F10000E94780DCE0188599F4F0E945F0DCE011F
:101F20008A589F4F0E94780DFE01E556FF4FC081F1
:101F3000D1818F0106C0CE010E944B0D0AA4DBA502
:101F4000C02D209709F430C1D801ED91FC9166A114
:101F500077A18EA19FA10E945201009761F324C135
:101F6000FE01EB55FF4F80819181A281B3810196E3
:101F7000A11DB11D80839183A283B38317C1CA566B
:101F8000DF4F8881C659D040882309F047C076E8E2
:101F9000C72ED12CCC0EDD1EC60164EB71E00E9471
:101FA0005201009739F4CB56DF4F81E08883C55941
:101FB000D0400EC0C6016AEB71E00E945201FE01E2
:101FC000EB56FF4F009711F4108202C082E080832D
:101FD0006BE9E62EF12CEC0EFD1EC756DF4F888113
:101FE0009981F70191838083570105C08AA59BA53C
:101FF000D5018D939C93F501C081D181209709F47F
:10200000D5C00EA11FA1C801B6010E94520197FDC3
:10201000EDCFD8C0D7011D921C92C8C0CB56DF4F60
:102020003881C559D040323009F48CC0DE01AA573E
:10203000BF4F2C91222309F485C0E32FF0E055E037
:10204000EE0FFF1F5A95E1F790E0E82BF92B31973F
:10205000E932F10508F076C0EC5CFF4FCD01EE0FE0
:10206000FF1F0590F491E02D09940E94800E6EAB45
:102070007FAB88AF99AF66C0FE01E856FF4F108274
:10208000213409F05FC03BC0BE01605F7F4F0AC0D2
:102090001E8A233509F056C081E08E8B53C0BE01E5
:1020A000695E7F4F0E94E40D4DC01D8E273509F0FB
:1020B00049C081E08D8F46C00E94800EC85BDF4F13
:1020C000688379838A839B83C854D0403BC00E9435
:1020D000800ECA5ADF4F688379838A839B83C655F3
:1020E000D04030C00E942B0168A779A78AA79BA780
:1020F00029C0FE01E856FF4F108221331CF181E018
:10210000808320C00E942B01CE58DF4F68837983E3
:102110008A839B83C257D04015C00E94800EC0584E
:10212000DF4F688379838A839B83C058D0400AC07D
:102130000E94800ECC59DF4F688379838A839B830A
:10214000C456D040FE01E556FF4F0081118146E89C
:10215000C42ED12CCC0EDD1E7F01CA56DF4F0AC023
:102160002817390721F4C801B6010E94460DF8016D
:1021700002A513A501151105C9F0D701ED91FC9138
:1021800066A177A1F80186A197A10E94520100974C
:1021900069F4D80198962D913C919997888190E0A7
:1021A00082179307ECF602C081E001C080E0DF9166
:1021B000CF911F910F91FF90EF90DF90CF90BF9044
:1021C000AF900895C801B6010E9452011816190671
:1021D0000CF420CFEBCF1F93CF93DF93EC01162F9E
:1021E000FC01E356FF4F80819181A281B38101966A
:1021F000A11DB11D80839183A283B3836432A1F1B9
:10220000DE01A956BF4F65322CF46A3069F06D309B
:10221000C9F50AC06A3241F06C32A1F5FE01EC57F3
:10222000FF4F8081862780838C918F3010F090E063
:102230000AC0FE01E80FF11DEA57FF4F1082CE01E0
:102240000E94D90E982FFE01EA56FF4F80818F5FC2
:102250008083C956DF4F1882FE01729710821A32AE
:1022600051F581E0808327C0C956DF4F18821A924A
:1022700062971882619682E08883609718826396DD
:10228000188218C08C918E3040F4FE01E80FF11DC9
:10229000EA57FF4F10838F5F8C93CB57DF4F8881B6
:1022A000C558D040882331F4FE01EC57FF4F8081A0
:1022B0008127808390E0892FDF91CF911F9108952E
:1022C0002F923F924F925F926F927F928F929F9246
:1022D000AF92BF92CF92DF92EF92FF920F931F9334
:1022E000DF93CF93CDB7DEB760970FB6F894DEBF1C
:1022F0000FBECDBF3B014C01CA01B901A60195013A
:102300000E94371825E33AEF4EE85CE30E94C21AB8
:102310005B016C01C6010E94251B6D877E878F873C
:10232000988BB501C6010E94021969877A878B874D
:102330009C87C401B30125E33AEF4EE85CE30E94B9
:10234000C21A5B016C01C801B70125E33AEF4EE800
:102350005CE30E94C21A7B018C01B501C6010E9498
:10236000251B6D837E838F839887B501C6010E94EC
:10237000021969837A838B839C83B701C8010E9409
:10238000251B1B012C01B701C8010E9402195B012A
:102390006C0169817A818B819C81A20191010E94EB
:1023A000C21A7B018C016D817E818F819885A60187
:1023B00095010E94C21A29853A854B855C850E9449
:1023C000C21A9B01AC01C801B7010E9437189B01DA
:1023D000AC010E94C21A7B018C01C601B5012D859A
:1023E0003E854F8558890E94C21A9B01AC010E940C
:1023F000C21A9B01AC01C801B7010E9438180E94A3
:102400002F1B3B014C016D817E818F819885A2013C
:1024100091010E94C21A7B018C0169817A818B81B2
:102420009C81A60195010E94C21A29853A854B8597
:102430005C850E94C21A9B01AC01C801B7010E94D1
:1024400038189B01AC01C401B3010E94AB1826E708
:102450003BE742EC5AE40E94C21A60960FB6F89429
:10246000DEBF0FBECDBFCF91DF911F910F91FF90C7
:10247000EF90DF90CF90BF90AF909F908F907F9024
:102480006F905F904F903F902F9008951F920F9202
:102490000FB60F9211242F933F938F939F93AF9377
:1024A000BF938091A8039091A903A091AA03B09132
:1024B000AB033091AC030196A11DB11D232F2D5FFD
:1024C0002D3720F02D570196A11DB11D2093AC038F
:1024D0008093A8039093A903A093AA03B093AB039E
:1024E0008091A4039091A503A091A603B091A703A6
:1024F0000196A11DB11D8093A4039093A503A09301
:10250000A603B093A703BF91AF919F918F913F9185
:102510002F910F900FBE0F901F9018958FB7F894C2
:102520002091A8033091A9034091AA035091AB03D5
:102530008FBFB901CA010895019739F0880F991F1B
:10254000880F991F02970197F1F70895789484B541
:10255000826084BD84B5816084BD85B5826085BD9F
:1025600085B5816085BDEEE6F0E080818160808385
:10257000E1E8F0E010828081826080838081816068
:102580008083E0E8F0E0808181608083E1EBF0E02F
:10259000808184608083E0EBF0E0808181608083D3
:1025A000EAE7F0E0808184608083808182608083BC
:1025B0008081816080838081806880831092C100E7
:1025C0000895982F8E3008F09E50977080910A02DF
:1025D0008295880F880F807C892B80937C00809166
:1025E0007A00806480937A0080917A0086FDFCCF27
:1025F0002091780040917900942F80E030E0282BE2
:10260000392BC9010895CF93DF93482F50E0CA01B9
:102610008D529E4FFC01349141545E4FFA018491DA
:10262000882369F190E0880F991FFC01EF55FE4F58
:10263000A591B491FC01E555FE4FC591D491662357
:1026400051F42FB7F8948C91932F909589238C9304
:10265000888189230BC0623061F42FB7F8948C9184
:10266000932F909589238C938881832B88832FBF08
:1026700006C09FB7F8948C91832B8C939FBFDF91FA
:10268000CF910895482F50E0CA0189519E4FFC0117
:102690002491CA018D529E4FFC01949141545E4F8A
:1026A000FA013491332309F440C0222351F123303D
:1026B00071F0243028F42130A1F0223011F514C03B
:1026C0002630B1F02730C1F02430D9F404C0809115
:1026D00080008F7703C0809180008F7D8093800081
:1026E00010C084B58F7702C084B58F7D84BD09C0CA
:1026F0008091B0008F7703C08091B0008F7D809370
:10270000B000E32FF0E0EE0FFF1FE555FE4FA5915F
:10271000B4912FB7F894662321F48C919095892376
:1027200002C08C91892B8C932FBF089508951F921E
:102730000F920FB60F9211242F933F934F938F93C5
:102740009F93EF93FF938091C00082FD1DC0409145
:10275000C6002091ED033091EE032F5F3F4F2F73A2
:1027600030708091EF039091F0032817390771F0D2
:10277000E091ED03F091EE03E355FC4F408330937D
:10278000EE032093ED0302C08091C600FF91EF910C
:102790009F918F914F913F912F910F900FBE0F906E
:1027A0001F901895E0914104F0914204E05CFF4FC6
:1027B0008191919120813181821B930B8F73907055
:1027C000892B11F00E94961308951F920F920FB655
:1027D0000F9211242F933F938F939F93EF93FF9327
:1027E000209131043091320480913304909134046B
:1027F0002817390731F48091C1008F7D8093C10083
:1028000014C0E0913304F0913404EF50FC4F208168
:10281000809133049091340401968F73907090935B
:102820003404809333042093C600FF91EF919F916D
:102830008F913F912F910F900FBE0F901F90189581
:10284000AF92BF92DF92EF92FF920F931F93CF93BD
:10285000DF93EC017A018B01DD24403081EE5807D3
:1028600080E0680780E0780711F0DD24D39491E0E0
:10287000A92EB12CEC89FD89DD2069F0C50108A0E5
:1028800002C0880F991F0A94E2F7808360E079E024
:102890008DE390E005C0108260E874E88EE190E07E
:1028A000A80197010E94DA1B21503040404050405F
:1028B000569547953795279580E12030380720F0C9
:1028C000DD2011F0DD24D6CFE889F9893083EA894B
:1028D000FB89208319A2EE89FF89408121E030E045
:1028E000C9010C8C02C0880F991F0A94E2F7482B8B
:1028F0004083EE89FF894081C9010D8C02C0880F99
:10290000991F0A94E2F7482B4083EE89FF894081A2
:10291000C9010E8C02C0880F991F0A94E2F7482B58
:102920004083EE89FF8980810F8C02C0220F331F04
:102930000A94E2F7209528232083DF91CF911F91FD
:102940000F91FF90EF90DF90BF90AF900895DC0162
:102950001C96ED91FC911D97E05CFF4F2191319108
:1029600080819181281B390B2F733070C901089524
:10297000DC011C96ED91FC911D97E05CFF4F2081DE
:102980003181E054F040DF01AE5BBF4F8D919C91EF
:1029900011972817390719F42FEF3FEF07C08D91D2
:1029A0009C91E80FF91F8081282F30E0C90108951C
:1029B000DC011C96ED91FC911D97E05CFF4F20819E
:1029C0003181E054F040DF01AE5BBF4F8D919C91AF
:1029D00011972817390719F42FEF3FEF10C08D9189
:1029E0009C911197E80FF91F20818D919C9111976F
:1029F00001968F73907011969C938E9330E0C9016D
:102A00000895DC0191968C919197882339F0549622
:102A1000ED91FC915597808186FFF9CF91961C929C
:102A20000895CF93DF93EC01EE85FF85E05CFF4FC7
:102A300020813181E054F0402F5F3F4F2F73307081
:102A4000DF01AE5BBF4F8D919C911197281739071D
:102A5000D1F3E05CFF4F80819181E054F040E80FBA
:102A6000F91F6083EE85FF85E05CFF4F3183208393
:102A7000EE89FF89208181E090E00F8C02C0880FF1
:102A8000991F0A94E2F7282B208381E089A3EC891F
:102A9000FD8980818064808381E090E0DF91CF9127
:102AA0000895109238041092370488EE93E0A0E065
:102AB000B0E08093390490933A04A0933B04B09320
:102AC0003C048FE292E090933604809335048DEAC3
:102AD00093E0909342048093410481EF93E09093BC
:102AE00044048093430485EC90E0909346048093E3
:102AF000450484EC90E0909348048093470480EC74
:102B000090E090934A048093490481EC90E0909384
:102B10004C0480934B0482EC90E090934E0480939D
:102B20004D0486EC90E09093500480934F0484E031
:102B30008093510483E08093520487E08093530490
:102B400085E08093540481E0809355040895CF93E9
:102B5000DF930E94A6120E947B06C2EDD3E10E9481
:102B6000F2042097E1F30E94D213F9CFCF92DF92C3
:102B7000EF92FF920F931F93CF93DF937C016B0132
:102B80008A01C0E0D0E00FC0D6016D916D01D70180
:102B9000ED91FC910190F081E02DC7010995C80FDE
:102BA000D91F015010400115110571F7CE01DF91B9
:102BB000CF911F910F91FF90EF90DF90CF900895EC
:102BC000EF92FF920F931F938C01DC01ED91FC912A
:102BD0000190F081E02D6DE009957C01D801ED9127
:102BE000FC910190F081E02DC8016AE009959C01FB
:102BF0002E0D3F1DC9011F910F91FF90EF90089579
:102C0000CF93DF93EC016115710519F420E030E0FA
:102C10000FC0DB010D900020E9F71197A61BB70B41
:102C2000E881F9810280F381E02DAD0109959C01D5
:102C3000C901DF91CF9108954F925F927F928F9259
:102C40009F92AF92BF92CF92DF92EF92FF920F933B
:102C50001F93DF93CF93CDB7DEB7A1970FB6F8944C
:102C6000DEBF0FBECDBF2C01742ECB01223008F485
:102C70002AE019A231E2C32ED12CCC0EDD1E822E09
:102C80009924AA24BB24672D752FA50194010E94C5
:102C9000DA1B79018A01C801B701A50194010E94DC
:102CA000A81B472D461B0894C108D1084A3014F4CC
:102CB000405D01C0495CF6014083E114F104010567
:102CC000110521F07E2C5F2DC801DDCFC201B601B8
:102CD0000E940016A1960FB6F894DEBF0FBECDBFBE
:102CE000CF91DF911F910F91FF90EF90DF90CF90E8
:102CF000BF90AF909F908F907F905F904F9008957E
:102D0000DC012115310541F4ED91FC910190F08138
:102D1000E02D642F099508950E941C160895EF92E6
:102D2000FF920F931F937C010E9480168C01C701B4
:102D30000E94E0159C01200F311FC9011F910F91C6
:102D4000FF90EF900895EF92FF920F931F939A01D7
:102D5000E62EFF2400E010E0B801A7010E948016D3
:102D60001F910F91FF90EF900895CF92DF92EF9215
:102D7000FF920F931F93CF93DF93EC016A017B01C6
:102D80002115310541F4E881F9810190F081E02DB0
:102D9000642F09951FC02A303105D1F477FF17C081
:102DA000E881F9810190F081E02D6DE209958C01B7
:102DB00044275527BA014C195D096E097F09CE01D8
:102DC0002AE00E941C169801280F391F04C02AE02F
:102DD0000E941C169C01C901DF91CF911F910F9198
:102DE000FF90EF90DF90CF900895EF92FF920F93B6
:102DF0001F937B019A010027F7FC0095102FB80163
:102E0000A7010E94B5161F910F91FF90EF900895B2
:102E1000CF92DF92EF92FF920F931F936C017B0191
:102E20009A010027F7FC0095102FB801A7010E9416
:102E3000B5168C01C6010E94E015080F191FC801C4
:102E40001F910F91FF90EF90DF90CF9008950E9417
:102E5000001608957F928F929F92AF92BF92CF9269
:102E6000DF92EF92FF920F931F93CF93DF934C016A
:102E70007A018B01722ECB01BA01A80197010E9441
:102E80007C1B882321F0C40164EF71E021C0C0E005
:102E9000D0E057016801E894D7F8C601B5012FEFDB
:102EA0003FEF4FE75FE70E947C1B882351F4C60188
:102EB000B5012FEF3FEF4FE75FE70E94FE181816AE
:102EC00014F0C1E0D0E0219739F0C40168EF71E05F
:102ED0000E940016EC0193C0C801B7012FEF3FEF2D
:102EE0004FE75FE40E94B71A181654F0C801B70103
:102EF0002FEF3FEF4FE75FEC0E94FE18882324F48A
:102F0000C4016CEF71E0E4CFC801B70120E030E00C
:102F100040E050E00E94FE1887FD03C0C0E0D0E012
:102F20000EC0D401ED91FC910190F081E02DC4011F
:102F30006DE20995EC0117FB109517F9109520E04B
:102F400030E040E05FE3DD240BC0CA01B90120E0BE
:102F500030E040E251E40E9405199B01AC01D3949A
:102F6000D71498F3C801B7010E9438185B016C01AF
:102F70000E9472197B018C01C401B801A7012AE0EB
:102F800030E00E948016C80FD91F772039F0C401A5
:102F900060E072E00E940016C80FD91FC801B70197
:102FA0000E949E199B01AC01C601B5010E94371811
:102FB00024C020E030E040E251E40E94C21A7B01CC
:102FC0008C010E946D195B016C01CC24B7FCC0948C
:102FD000DC2CC401B601A5012AE030E00E94B51640
:102FE000C80FD91FC601B5010E94A0199B01AC01F1
:102FF000C801B7010E9437187A947720D1F6CE0124
:10300000DF91CF911F910F91FF90EF90DF90CF90C4
:10301000BF90AF909F908F907F9008950E942A1745
:103020000895EF92FF920F931F937C010E942A173D
:103030008C01C7010E94E015080F191FC8011F91DC
:103040000F91FF90EF900895EF92FF920F931F93CF
:103050007C010E9400168C01C7010E94E015080F38
:10306000191FC8011F910F91FF90EF9008955058BC
:10307000BB27AA270ED030C2F0D130F0F5D120F016
:1030800031F49F3F11F41EF4C0C10EF4E095E7FB4C
:10309000B6C1E92F43D280F3BA17620773078407DA
:1030A000950718F071F49EF55BC20EF4E0950B2EB7
:1030B000BA2FA02D0B01B90190010C01CA01A0018A
:1030C0001124FF27591B99F0593F50F4503E68F1E5
:1030D0001A16F040A22F232F342F4427585FF3CF26
:1030E000469537952795A795F0405395C9F77EF4F7
:1030F0001F16BA0B620B730B840BBAF09150A1F040
:10310000FF0FBB1F661F771F881FC2F70EC0BA0FC5
:10311000621F731F841F48F4879577956795B7954D
:10312000F7959E3F08F0B3CF9395880F08F0992745
:10313000EE0F97958795089590D158F080E891E02B
:1031400009F49EEF91D128F040E851E059F45EEF88
:1031500009C05BC105C2E92FE078E0D168F3092E10
:10316000052AC1F3261737074807590738F00E2EEE
:1031700007F8E02569F0E025E0640AC0EF6307F88E
:10318000009407FADB01B9019D01DC01CA01AD0120
:10319000EF934AD0A1D10AD05F91552331F02BEDA6
:1031A0003FE049E450FD49EC63CF0895DF93DD270C
:1031B000B92FBF7740E85FE31616170648075B078D
:1031C00010F4D92FD8D19F938F937F936F9391D27F
:1031D000EAEBF0E01DD180D12F913F914F915F91AB
:1031E000DDD1DD2349F09058A2EA2AED3FE049EC19
:1031F0005FE3D0785D274DDFDF916EC1DCD008F44E
:1032000081E0089539D1E39578C10CD065C12CD106
:1032100040F023D130F021F45F3F19F0F0C051119C
:10322000A0C1F3C07BD198F39923C9F35523B1F31F
:10323000951B550BBB27AA2762177307840738F025
:103240009F5F5F4F220F331F441FAA1FA9F333D084
:103250000E2E3AF0E0E830D091505040E695001C38
:10326000CAF729D0FE2F27D0660F771F881FBB1FF4
:10327000261737074807AB07B0E809F0BB0B802DCE
:10328000BF01FF2793585F4F2AF09E3F510568F01A
:10329000B6C067C15F3FECF3983EDCF38695779547
:1032A0006795B795F7959F5FC9F7880F911D96951C
:1032B000879597F90895E1E0660F771F881FBB1F78
:1032C000621773078407BA0720F0621B730B840B25
:1032D000BA0BEE1F88F7E095089504D06894B111F9
:1032E00040C1089523D188F09F5790F0B92F9927B6
:1032F000B751A0F0D1F0660F771F881F991F1AF001
:10330000BA95C9F712C0B13081F02AD1B1E0089561
:1033100027C1672F782F8827B85F39F0B93FCCF3E2
:10332000869577956795B395D9F73EF490958095F6
:10333000709561957F4F8F4F9F4F0895E89409C016
:1033400097FB3EF490958095709561957F4F8F4FD8
:103350009F4F9923A9F0F92F96E9BB279395F695EE
:10336000879577956795B795F111F8CFFAF4BB0F6C
:1033700011F460FF1BC06F5F7F4F8F4F9F4F16C0D0
:10338000882311F096E911C0772321F09EE8872F5A
:10339000762F05C0662371F096E8862F70E060E016
:1033A0002AF09A95660F771F881FDAF7880F96958F
:1033B000879597F90895990F0008550FAA0BE0E833
:1033C000FEEF16161706E807F907C0F012161306E7
:1033D000E407F50798F0621B730B840B950B39F427
:1033E0000A2661F0232B242B252B21F408950A268D
:1033F00009F4A140A6958FEF811D811D089597F9CD
:103400009F6780E870E060E008959FEF80EC08958A
:10341000DF93CF931F930F93FF92EF92DF927B0185
:103420008C01689405C0DA2EEF01B8D0FE01E89453
:10343000A5912591359145915591AEF3EF0129DE86
:10344000FE019701A801DA9479F7DF90EF90FF90E1
:103450000F911F91CF91DF91089500240A941616C1
:10346000170618060906089500240A941216130672
:10347000140605060895C9CF59D0E8F3E894EFEF94
:10348000BB273FE048EC5FE76B3D73078407950778
:1034900008F1FF279F57B25A6A4D7F40894CF04090
:1034A00032F4BE556542704F8643FF4F0894EE1FBD
:1034B000915030F0BB0F661F771F881FFF1FEBCFA7
:1034C0009EE7882332F0BB0F661F771F881F9A95EF
:1034D000C1F79395E09514C1092E0394000C11F4E3
:1034E000882352F0BB0F40F4BF2B11F460FF04C0DF
:1034F0006F5F7F4F8F4F9F4F0895EF93E0FF06C0A0
:10350000A2EA2AED3FE049EC5FEBC3DDE5DF0F9077
:10351000039401FC9058E7EEF0E009C157FD905884
:10352000440F551F59F05F3F71F04795880F97FB87
:10353000991F61F09F3F79F0879508951216130641
:103540001406551FF2CF4695F1DF08C01616170670
:103550001806991FF1CF86957105610508940895A5
:10356000E894BB2766277727CB0197F9089523DFD7
:1035700008F48FEF08959B01AC0160E070E080E8F3
:103580009FE343CE0BD0A8CF68DF28F06DDF18F0A3
:10359000952309F034CF39CF1124E3CFBFDFA0F357
:1035A000959FD1F3950F50E0551F629FF001729FD8
:1035B000BB27F00DB11D639FAA27F00DB11DAA1FF7
:1035C000649F6627B00DA11D661F829F2227B00D44
:1035D000A11D621F739FB00DA11D621F839FA00DCF
:1035E000611D221F749F3327A00D611D231F849F1F
:1035F000600D211D822F762F6A2F11249F57504076
:103600008AF0E1F088234AF0EE0FFF1FBB1F661F10
:10361000771F881F91505040A9F79E3F510570F0C9
:10362000EECE9FCF5F3FECF3983EDCF38695779527
:103630006795B795F795E7959F5FC1F7FE2B880FC4
:10364000911D9695879597F908959F9315DF0F9093
:1036500007FCEE5F52CF11F40EF4D7CE51C066DFF7
:10366000D0F39923D9F3CEF39F57550B87FF58D04A
:1036700056959795B0E020F4660F771F881FBB1F03
:103680001F930F9300249001A0018001F001A0E896
:103690000E0F1F1F0A1E511D601B710B8009B50BF9
:1036A00048F4600F711F801DB51F0E1B1F0B0A0A07
:1036B000510907C02E0F3F1F4A1F0E0F1F1F0A1E62
:1036C000511D660F771F881FBB1FA695F795E795BD
:1036D000F8F60617170708065B07211D311D411D67
:1036E0000F911F91B901842F9158880F9695879556
:1036F00008959B01AC0146CF5EDE880B990B0895BF
:103700009F3F49F0915028F4869577956795B79536
:103710009F5F80389F4F880F9695879597F90895FA
:1037200091505040660F771F881FD2F708959F93DE
:103730008F937F936F93FF93EF939B01AC0122DFF5
:10374000EF91FF9165DE2F913F914F915F911ACFDD
:10375000629FD001739FF001829FE00DF11D649F75
:10376000E00DF11D929FF00D839FF00D749FF00D01
:10377000659FF00D9927729FB00DE11DF91F639FA2
:10378000B00DE11DF91FBD01CF011124089597FB74
:10379000092E07260AD077FD04D02ED006D00020AF
:1037A0001AF4709561957F4F0895F6F7909581957D
:1037B0009F4F0895A1E21A2EAA1BBB1BFD010DC04D
:1037C000AA1FBB1FEE1FFF1FA217B307E407F507D1
:1037D00020F0A21BB30BE40BF50B661F771F881FAD
:1037E000991F1A9469F760957095809590959B0143
:1037F000AC01BD01CF010895AA1BBB1B51E107C05D
:10380000AA1FBB1FA617B70710F0A61BB70B881F70
:10381000991F5A95A9F780959095BC01CD010895FF
:10382000EE0FFF1F0590F491E02D09942F923F9227
:103830004F925F926F927F928F929F92AF92BF92C0
:10384000CF92DF92EF92FF920F931F93CF93DF936C
:10385000CDB7DEB7CA1BDB0B0FB6F894DEBF0FBEC9
:10386000CDBF09942A88398848885F846E847D8416
:103870008C849B84AA84B984C884DF80EE80FD8018
:103880000C811B81AA81B981CE0FD11D0FB6F8948E
:10389000DEBF0FBECDBFED01089512E0C0E0D2E063
:1038A00004C0FE010E94121C2296C230D107C9F743
:0438B000F894FFCFBA
:1038B40042617474204C4F572E3A200056004261E6
:1038C40074742E3A2000562020202000536F667412
:1038D4002053657269616C20646576696365206F45
:1038E400766572666C6F7765643F20004E6F005991
:1038F4004553210053656E74656E63657320746867
:103904006174206661696C656420636865636B73C8
:10391400756D3D0049732076616C69643F20003AFF
:10392400004C41543D004C4F4E473D00256C640013
:103934002A2A2A2A2A2A2A2A2A2A2A2A2A2A2A2AE3
:103944002A00000000000000000000000000000049
:1039540047505320617070207374617274696E678C
:103964002E2E2E004750524D4300475047474100EA
:103974004E004E4E45004E4500454E45004500451F
:1039840053450053450053534500530053535700C8
:10399400535700575357005700574E57004E570080
:1039A4004E4E57006E616E00696E66006F7666005B
:1039B4002E0053084E42F51203BE0100000000D849
:1039C40008B615BE089D089B098A0900000000F18D
:1039D4000AB6150000400014005400000000001155
:0C39E40015B615A714D814B8140115006E
:00000001FF
