:100000000C9406010C942E010C942E010C94C7073D
:100010000C94F1070C941B080C942E010C942E01E7
:100020000C942E010C942E010C942E010C942E0194
:100030000C942E010C942E010C942E010C942E0184
:100040000C94E9120C942E010C9493140C94E1146A
:100050000C942E010C942E010C942E010C942E0164
:100060000C942E010C942E01D810E710EB10F21016
:10007000F8101C11251130113B1145114511451186
:1000800045114511451145114511451145114511C0
:1000900045114511451145114511451145114511B0
:1000A0004511451145114511D810DF10E710EB102F
:1000B000F210F810FF100A111511084AD73B3BCE79
:1000C000016E84BCBFFDC12F3D6C74319ABD568357
:1000D0003DDA3D00C77F11BED9E4BB4C3E916BAA0F
:1000E000AABE000000803F05A84CCDB2D44EB9385E
:1000F00036A9020C50B9918688083CA6AAAA2ABE45
:10010000000000803F2A2A2A2A2A2A2A2A200000C0
:10011000C201000100110011000C0000E100000A02
:100120000025002500210000960000190039003943
:10013000003600127A00001F00460046004400808E
:1001400070000022004D004D004A00004B000036B8
:1001500000750075007200403800004A009C009C49
:10016000009900802500007200EC00EC00E900C05E
:10017000120000E900DA01DA01D70160090000D7B6
:1001800001B603B603B303B0040000B3036E076EF9
:10019000076B07580200006E07DC0EDC0ED80E2C31
:1001A000010000DC0EC11DC11DBE1D0000000024A9
:1001B0000027002A0000000000250028002B000076
:1001C00000000023002600290004040404040404A1
:1001D00004020202020202030303030303010204F6
:1001E00008102040800102040810200102040810B9
:1001F00020000000070002010000030406000000C8
:1002000000000000000061044D165A0411241FBEB6
:10021000CFEFD8E0DEBFCDBF12E0A0E0B1E0EEEC62
:10022000FAE302C005900D92A834B107D9F714E0A3
:10023000A8E4B2E001C01D92A136B107E1F712E0D7
:10024000CAE0D2E004C02297FE010E941F1DC63002
:10025000D107C9F70E94A3160C945A1D0C940000F4
:100260001F93FC0199278827BC01E8941191103253
:10027000E9F3193010F01E30C8F31B3251F01D3273
:1002800049F4689406C00E947601610F711D811DBA
:10029000911D119110531A30B0F33EF49095809552
:1002A000709561957F4F8F4F9F4F1F910895FB0170
:1002B000DC018D91019080190110D9F3990B0895FB
:1002C000FB01DC0101900D920020E1F70895FB0194
:1002D000DC014150504048F001900D920020C9F7D8
:1002E00001C01D9241505040E0F70895592F482F0A
:1002F000372F262F660F771F881F991F660F771FCE
:10030000881F991F620F731F841F951F660F771F29
:10031000881F991F0895AEE0B0E0E1E9F1E00C9488
:10032000311D0D891E8986E08C831A8309838FEF26
:100330009FE79E838D839E01275E3F4FCE010196EE
:100340006F89788DA9010E94AF012F813885020F36
:10035000131FF80110822E96E4E00C944D1DABE0C3
:10036000B0E0E5EBF1E00C94231D3C012B015A01B8
:10037000FC0117821682838181FD03C06FEF7FEF3E
:10038000C6C19AE0892E1E010894211C311CF3017C
:100390002381F20123FD859123FF81912F01882381
:1003A00009F4B2C1853239F423FD859123FF81918F
:1003B0002F01853229F490E0B3010E94A203E7CF18
:1003C000982FFF24EE249924FFE1FF15D0F09B32F3
:1003D00069F09C3228F4903259F0933291F40EC0B7
:1003E0009D3249F0903369F441E024C052E0F52A8F
:1003F00084E0F82A28C098E0F92A25C0E0E1FE2A26
:1004000022C0F7FC29C0892F80538A3070F4F6FE91
:1004100005C0989C902C1124980E15C0E89CE02CE7
:100420001124E80EF0E2FF2A0EC09E3229F4F6FCF9
:100430006BC140E4F42A07C09C3619F450E8F52A51
:1004400002C0983649F4F20123FD959123FF919162
:100450002F01992309F0B8CF892F8554833018F0E4
:100460008052833038F444E050E0A40EB51E5FE3C0
:1004700059830FC0933631F0933779F0933509F0F3
:1004800056C020C0F5018081898342E050E0A40E6F
:10049000B51E610101E010E012C0F501C080D180FD
:1004A000F6FC03C06FEF7FEF02C0692D70E042E001
:1004B00050E0A40EB51EC6010E9497038C015FE7B1
:1004C000F52214C0F501C080D180F6FC03C06FEFA7
:1004D0007FEF02C0692D70E042E050E0A40EB51E2F
:1004E000C6010E948C038C0150E8F52AF3FE07C078
:1004F0001AC080E290E0B3010E94A203EA948E2D1C
:1005000090E008171907A8F30EC0F601F7FC8591D3
:10051000F7FE81916F0190E0B3010E94A203E11008
:10052000EA94015010400115110579F7EAC094369C
:1005300011F0993669F5F7FE08C0F5012081318187
:100540004281538184E090E00AC0F501808191816D
:100550009C01442737FD4095542F82E090E0A80E7F
:10056000B91E9FE6F92257FF09C050954095309576
:1005700021953F4F4F4F5F4FE0E8FE2ACA01B90176
:10058000A1012AE030E00E94CE03D82ED21840C04C
:10059000953729F41F2D1F7E2AE030E01DC01F2D46
:1005A000197F9F3661F0903720F4983509F0ACC080
:1005B0000FC0903739F0983709F0A6C004C028E082
:1005C00030E00AC0106114FD146020E130E004C086
:1005D00014FD166020E132E017FF08C0F5016081CC
:1005E00071818281938144E050E008C0F5018081EF
:1005F0009181BC0180E090E042E050E0A40EB51E85
:10060000A1010E94CE03D82ED2188FE7F82EF12236
:10061000F6FE0BC05EEFF522D91438F4F4FE07C0E5
:10062000F2FC05C08FEEF82202C01D2D01C0192D6D
:10063000F4FE0DC0FE01ED0DF11D8081803319F433
:1006400099EEF92208C01F5FF2FE05C003C08F2D8E
:10065000867809F01F5F0F2DF3FC14C0F0FE0FC069
:100660001E1510F09D2C0BC09D2C9E0C911A1E2D5A
:1006700006C080E290E0B3010E94A2031F5F1E1536
:10068000C0F304C01E1510F4E11A01C0EE2404FFEB
:100690000FC080E390E0B3010E94A20302FF1DC0DF
:1006A00001FD03C088E790E00EC088E590E00BC034
:1006B000802F867891F001FF02C08BE201C080E2BA
:1006C000F7FC8DE290E0B3010E94A20306C080E334
:1006D00090E0B3010E94A2039A94D914C0F3DA9473
:1006E000F101ED0DF11D808190E0B3010E94A203A4
:1006F000DD20A9F706C080E290E0B3010E94A203CA
:10070000EA94EE20C1F743CEF30166817781CB01F5
:100710002B96E2E10C943F1DFC0105906150704066
:100720000110D8F7809590958E0F9F1F0895FC01BA
:100730006150704001900110D8F7809590958E0F10
:100740009F1F08950F931F93CF93DF938C01EB01AD
:100750008B8181FF1BC082FF0DC02E813F818C8168
:100760009D812817390764F4E881F9810193F983A1
:10077000E88306C0E885F985802F0995892B31F437
:100780008E819F8101969F838E8302C00FEF1FEFA2
:10079000C801DF91CF911F910F910895FA01AA2707
:1007A000283051F1203181F1E8946F936E7F6E5FB4
:1007B0007F4F8F4F9F4FAF4FB1E03ED0B4E03CD062
:1007C000670F781F891F9A1FA11D680F791F8A1F45
:1007D000911DA11D6A0F711D811D911DA11D20D0AC
:1007E00009F468943F912AE0269F11243019305D66
:1007F0003193DEF6CF010895462F4770405D419357
:10080000B3E00FD0C9F7F6CF462F4F70405D4A33A3
:1008100018F0495D31FD4052419302D0A9F7EACF6B
:10082000B4E0A6959795879577956795BA95C9F79A
:1008300000976105710508959B01AC010A2E06948D
:100840005795479537952795BA95C9F7620F731F46
:10085000841F951FA01D0895CF92EF920F938130B2
:100860009105D9F46F5F7F4F09F588E492E00E940B
:10087000CE0C85EF92E066E047E020E00E94B00AEF
:1008800081E193E06CE04BE025E004E053E0E52EED
:1008900032E0C32E0E94950C09C0892B39F46F5F9A
:1008A0007F4F21F485EF92E00E9437090F91EF907E
:1008B000CF90089580E090E06FEF7FEF0E942C04CE
:1008C000089581E090E06FEF7FEF0E942C0408957F
:1008D00080E00E94DD13AA2797FDA095BA2FBC01E6
:1008E000CD010E94AD1A2AE038E240EA5BE30E94A3
:1008F000CF1B24EA30E74DE350E40E94CF1B08955C
:10090000EF92FF920F931F930E9468047B018C016A
:1009100081E193E060E041E00E94A80BC801B701CB
:1009200020E030E040E251E40E940B1A88233CF4BE
:10093000C801B70120E030E040EE50E406C0C80135
:10094000B70120E030E048E251E40E940B1A18168B
:10095000A4F081E193E060E071E00E94341881E14D
:1009600093E0B801A70122E030E00E941B1981E169
:1009700093E06CE071E00E9434181F910F91FF909A
:10098000EF900895AF92BF92CF92DF92EF92FF92D5
:100990000F931F935B016C010E9431137B018C014B
:1009A00009C085EF92E00E944009682F88E492E038
:1009B0000E948E1185EF92E00E946109892B89F7D0
:1009C0000E9431136E197F09800B910B6A157B050C
:1009D0008C059D0578F31F910F91FF90EF90DF90AC
:1009E000CF90BF90AF900895CF92DF92EF92FF9299
:1009F0000F931F93DF93CF93CDB7DEB7A0970FB6BA
:100A0000F894DEBF0FBECDBF8C016B01DC018C9171
:100A1000882339F481E193E065E071E00E94DC16FF
:100A200038C0C8010E94AF0DE82EC8010E94BD0D5C
:100A3000F82EC8010E94D30DEDB7FEB73A970FB656
:100A4000F894FEBF0FBEEDBF31968E010F5F1F4FB2
:100A5000ADB7BEB712961C930E9311972EE031E0FE
:100A600033832283CE0CD11CD582C482F6821782B6
:100A7000808711860E948B01EDB7FEB73A960FB6BC
:100A8000F894FEBF0FBEEDBF81E193E0B8010E9474
:100A9000341860E070E080E090E00E94C204A0960C
:100AA0000FB6F894DEBF0FBECDBFCF91DF911F917F
:100AB0000F91FF90EF90DF90CF9008956F927F920B
:100AC0008F929F92AF92BF92CF92DF92EF92FF925E
:100AD0000F931F93DF93CF93CDB7DEB7A0970FB6D9
:100AE000F894DEBF0FBECDBF0E94311320912603C4
:100AF00030912703409128035091290328573C4EF9
:100B00004F4F5F4F621773078407950760F00E948D
:100B100080040E943113609326037093270380930F
:100B200028039093290368EE73E080E090E00E9430
:100B3000C2048FE394E06EE171E00E9434188FE309
:100B400094E06EE371E00E94311990911003892FB7
:100B50008E7F8093100390FD03C064E471E002C0B7
:100B600067E471E08FE394E00E9431198FE394E031
:100B70006CE471E00E9434184091ED025091EE0255
:100B80006091EF027091F0028FE394E02AE030E090
:100B90000E94AE178FE394E06CE671E00E94341877
:100BA000609148028FE394E070E04AE050E00E94D8
:100BB000151881E193E060E040E00E94A80B88E70F
:100BC00092E061E070E00E94F40480914802882382
:100BD00009F4F2C081E193E06AE040E00E94A80BD2
:100BE0006091480281E193E070E04AE050E00E94A9
:100BF000021881E193E060E041E00E94A80B81E1EE
:100C000093E067E771E00E9434181092B1024091BE
:100C1000B6025091B7026091B8027091B90281E1B9
:100C200093E02AE030E00E949F1781E193E06AE7B9
:100C300071E00E9434181092BF024091C40250919A
:100C4000C5026091C6027091C70281E193E02AE07B
:100C500030E00E94C2178DE061E00E943E148FE3F5
:100C600094E06DE771E00E94341888E492E00E94FD
:100C7000410DAB01BC018FE394E026E030E00E941F
:100C80001E198FE394E062E871E00E94341888E452
:100C900092E00E94780DAB01BC018FE394E026E066
:100CA00030E00E941E1988E492E00E94410D3B0151
:100CB0004C0188E492E00E94780D9B01AC01E09029
:100CC0000E02F0900F020091100210911102A090FC
:100CD0001202B0901302C0901402D0901502C40109
:100CE000B3010E9403129B01AC0190914802DE0106
:100CF0001196ECE8F1E082E101900D928150E1F76C
:100D0000FE0173968EE0DF011D928A95E9F7992323
:100D100081F1EDB7FEB738970FB6F894FEBF0FBE5E
:100D2000EDBF0DB71EB70F5F1F4FCE010196928327
:100D3000818388E891E0D80113969C938E93129753
:100D4000CA01B9010E947F1A28EE33E040E050E06A
:100D50000E94E71CF80124833583468357830E9451
:100D60008B018DB79EB708960FB6F8949EBF0FBE45
:100D70008DBF1A86FE013196DF010D900020E9F744
:100D80001197AE1BBF0BEA0FFB1F80E202C08193DD
:100D90001196A930B105DCF380E289878FE394E0F6
:100DA000BE016F5F7F4F0E94341860E070E080E00A
:100DB00090E00E94C20404C08DE060E00E943E14F6
:100DC000A0960FB6F894DEBF0FBECDBFCF91DF91D6
:100DD0001F910F91FF90EF90DF90CF90BF90AF9059
:100DE0009F908F907F906F9008950F931F938FE344
:100DF00094E040E850E760E070E00E941C1585EF49
:100E000092E040E056E960E070E00E94450801E1B0
:100E100013E0C80160E142E020E00E94DF0BC8015E
:100E200060E040E00E94A80BC8010E94D70BC801F7
:100E30006CEA71E00E9434188DE061E00E94FF13BB
:100E40008DE060E00E943E140E94311360932603FF
:100E5000709327038093280390932903C80160E0CF
:100E600041E00E94A80B80E00E94DD13AA2797FDB5
:100E7000A095BA2FBC01CD010E94AD1A2AE038E23C
:100E800040EA5BE30E94CF1B24EA30E74DE350E4E5
:100E90000E94CF1BAB01BC01C80122E030E00E94E0
:100EA0001B1964EF71E080E090E00E943F13C801DD
:100EB0000E94D70B1F910F9108950F931F93CF930B
:100EC000DF93FC01738D76957170A685B785958546
:100ED000772329F08C91892309F454C004C08C91A4
:100EE000892309F04FC08389948920E001972FEF6F
:100EF0008F3F9207D9F7C589D689A685B78515850D
:100F000060E031E040E050E000E0CE01202F0197AA
:100F10002FEF8F3F9207D9F78C91812311F0632B2C
:100F200003C0832F80956823330F4F5F5F4F483096
:100F3000510559F78789908D20E001972FEF8F3F5A
:100F40009207D9F7711160958091AC032091AD03A0
:100F500090E001968F77907030E08217930779F0D8
:100F6000E091AC03F0E0E45DFC4F60838091AC0362
:100F700090E001968F7790708093AC0303C0838DCF
:100F80008160838FDF91CF911F910F9108951F9200
:100F90000F920FB60F9211242F933F934F935F93AD
:100FA0006F937F938F939F93AF93BF93EF93FF9331
:100FB00080912A0390912B03009711F00E945D0706
:100FC000FF91EF91BF91AF919F918F917F916F9121
:100FD0005F914F913F912F910F900FBE0F901F90F7
:100FE00018951F920F920FB60F9211242F933F93D3
:100FF0004F935F936F937F938F939F93AF93BF9321
:10100000EF93FF9380912A0390912B03009711F0A7
:101010000E945D07FF91EF91BF91AF919F918F91DA
:101020007F916F915F914F913F912F910F900FBEE4
:101030000F901F9018951F920F920FB60F921124C8
:101040002F933F934F935F936F937F938F939F93D0
:10105000AF93BF93EF93FF9380912A0390912B035B
:10106000009711F00E945D07FF91EF91BF91AF9142
:101070009F918F917F916F915F914F913F912F91B0
:101080000F900FBE0F901F901895CF92DF92EF92A6
:10109000FF920F931F93CF93DF93EC017A018B01A3
:1010A0001A8E198E188E1F8A1E8A1D8A1C8A1B8A08
:1010B00020E030E06901CC0CDD1CC20ED31EB6016D
:1010C000660F771F660F771FAB01415F5E4FFA0116
:1010D00085919591A591B4918E159F05A007B107B3
:1010E000E9F4FB01ED5EFE4F859194919C8B8B8B17
:1010F000FB01EB5EFE4F859194919E8B8D8BFB01E6
:10110000E95EFE4F85919491988F8F8BFB01E75E8E
:10111000FE4F859194919A8F898F06C02F5F3F4F24
:101120002D30310509F0C6CF8F89988D892B09F4B0
:1011300049C04C85463108F03DC090916800483068
:1011400010F484E005C04E3010F082E001C081E070
:10115000892B80936800483028F4EDE6F0E0ADE696
:10116000B0E00BC04E3028F0ECE6F0E0ACE6B0E0CA
:1011700004C0EBE6F0E0ABE6B0E05081483040F46C
:1011800081E090E002C0880F991F4A95E2F710C0F5
:10119000242F30E04E3018F42850304002C02E503A
:1011A000304081E090E002C0880F991F2A95E2F755
:1011B000852B8C93898D9A8D20E001972FEF8F3F9F
:1011C0009207D9F780912A0390912B038C179D07E2
:1011D00081F08B8D8E7F8B8F9FB7F8941092AC032C
:1011E0008091AC038093AD03D0932B03C0932A036B
:1011F0009FBFDF91CF911F910F91FF90EF90DF90F4
:10120000CF900895FC014485463180F5483028F49C
:10121000EDE6F0E0ADE6B0E00BC04E3028F4EBE6D2
:10122000F0E0ABE6B0E004C0ECE6F0E0ACE6B0E045
:101230005081483040F481E090E002C0880F991F4F
:101240004A95E2F710C0242F30E04E3018F42850B1
:10125000304002C02E50304081E090E002C0880F44
:10126000991F2A95E2F7809585238C930895FC01B8
:101270008BE192E091838083CF010E94020908955F
:1012800020912A0330912B032817390731F49091CC
:10129000AD038091AC03981719F42FEF3FEF0FC007
:1012A000E091AD03F0E0E45DFC4F20818091AD035F
:1012B00090E001968F7790708093AD0330E0C90184
:1012C000089520912A0330912B032817390719F02C
:1012D00020E030E00EC08091AC032091AD0390E09F
:1012E00080589F4F821B910960E870E00E94D41CD7
:1012F0009C01C90108950F931F93DC0159968D91AC
:101300009C915A97892B49F481E090E013969C9325
:101310008E93129720E030E097C00FB7F8945B9659
:101320008C915B975196ED91FC91529750962C9130
:10133000509781FF8DC08081822B808359968D913B
:101340009C915A97059620E001972FEF8F3F9207C7
:10135000D9F75B968C915B9781FF35C031E040E017
:1013600050E070E010E0832F90E0862397235196A1
:10137000ED91FC91529750962C915097892B29F022
:10138000808120952823208303C08081822B808345
:1013900059968D919C915A97212F01972FEF8F3F4E
:1013A0009207D9F7330F4F5F5F4F48305105D9F699
:1013B0005196ED91FC915297908150968C91509757
:1013C0008095892333C031E040E050E070E010E0C8
:1013D000832F90E0862397235196ED91FC915297AD
:1013E00050962C915097892B21F08081822B8083FD
:1013F00004C0808120952823208359968D919C914B
:101400005A97212F01972FEF8F3F9207D9F7330F6C
:101410004F5F5F4F48305105D9F65196ED91FC91E1
:101420005297808150969C915097892B80830FBF53
:1014300059968D919C915A9720E001972FEF8F3FFD
:101440009207D9F721E030E0C9011F910F9108956B
:10145000808120952823208371CF20912A03309109
:101460002B032817390749F49FB7F8941092AC035F
:101470008091AC038093AD039FBF089520912A0310
:1014800030912B032817390731F49091AD038091E7
:10149000AC03981719F42FEF3FEF0AC0E091AD03AA
:1014A000F0E0E45DFC4F8081282F332727FD309545
:1014B000C90108951F93CF93DF93EC01162F862F58
:1014C00060E00E94FF138B8D81FD04C0812F61E0DD
:1014D0000E943E141C87212F30E0C90183529E4F89
:1014E000FC0184918D8727533E4FF9016491E62FCB
:1014F000F0E0EE0FFF1FE154FE4F859194919F871E
:101500008E87DF91CF911F910895FF920F931F93C4
:101510008C01F62E862F61E00E94FF138F2D61E073
:101520000E943E148F2D90E0FC01E352FE4FE491A7
:10153000D8015096EC93509787539E4FFC016491CD
:10154000E62FF0E0EE0FFF1FEB54FE4F85919491D4
:1015500052969C938E9351971F910F91FF900895EF
:10156000FF920F931F938C01F62EFC0113821282BF
:1015700088EE93E0A0E0B0E084839583A683B783F0
:101580008BE192E091838083148A138A168A158AEC
:10159000108E178A128E118E838D2170220F8C7FF0
:1015A000822B838FC801642F0E94850AC8016F2D8A
:1015B0000E945A0A1F910F91FF9008950F931F9355
:1015C0008C01FC01868160E00E943E1481E090E085
:1015D0000E949813F801868161E00E943E1481E028
:1015E00090E00E949813F801868160E00E943E140A
:1015F00084E690E00E9498131F910F910895CF9276
:10160000DF92EF92FF920F931F93CF93DF93D82E29
:10161000C92E282F392FC9018C01C0E0D0E0E62E59
:10162000FF24F801878161E00E94FF13B7010C2EAF
:1016300002C0759567950A94E2F76170F801878199
:101640000E943E1421960F5F1F4FC830D10549F705
:101650008D2D9C2D0E94DE0ADF91CF911F910F915D
:10166000FF90EF90DF90CF900895CF92DF92EF92AE
:10167000FF920F931F93CF93DF93D82EC92E282F5D
:10168000392FC9018C01C0E0D0E0E62EFF24F8011B
:10169000878161E00E94FF13B7010C2E02C075958F
:1016A00067950A94E2F76170F80187810E943E1401
:1016B00021960F5F1F4FC430D10549F78D2D9C2D0A
:1016C0000E94DE0ADF91CF911F910F91FF90EF9062
:1016D000DF90CF9008951F93CF93DF93EC01162FE7
:1016E0008C81642F0E943E148D818F3F19F060E041
:1016F0000E943E148F8584FF05C0CE01612F0E9499
:10170000FF0A0EC0612F70E084E0759567958A9599
:10171000E1F7CE010E94350BCE01612F0E94350BFF
:10172000DF91CF911F91089541E00E946B0B81E002
:1017300090E0089540E00E946B0B0895FC016089E1
:10174000862F8460808B6C60CF010E949A0B089575
:10175000DF93CF93CDB7DEB728970FB6F894DEBFEF
:101760000FBECDBF9C01FE013196AFE2B2E088E032
:101770000D9001928150E1F7F9018389481710F02B
:10178000482F4150E42FF0E0EE0FFF1FEC0FFD1F3C
:101790008181680F6068C9010E949A0B28960FB674
:1017A000F894DEBF0FBECDBFCF91DF91089561E009
:1017B0000E949A0B80ED97E00E9498130895CF93B2
:1017C000DF93EC01423018F08F8588608F874B8B58
:1017D0001C8A222329F0413019F48F8584608F8779
:1017E00080E593EC0E9498138C8160E00E943E1487
:1017F0008E8160E00E943E148D818F3F19F060E081
:101800000E943E146F8564FD1DC0CE0163E00E94FE
:10181000350B84E991E10E949813CE0163E00E94A8
:10182000350B84E991E10E949813CE0163E00E9498
:10183000350B86E990E00E949813CE0162E00E9489
:10184000350B16C06062CE010E949A0B84E991E1CB
:101850000E9498136F856062CE010E949A0B86E900
:1018600090E00E9498136F856062CE010E949A0BEF
:101870006F856062CE010E949A0B84E0888BCE0156
:101880000E949E0BCE010E94D70B82E0898BCE0175
:1018900066E00E949A0BDF91CF9108956F927F923C
:1018A0008F92AF92CF92EF920F931F93DF93CF93CC
:1018B000CDB7DEB73C01162F842FF3014483258377
:1018C0000683E782C086A18682869D8593879E8552
:1018D00094879F8595879889968761E00E94FF137A
:1018E000F30185818F3F19F061E00E94FF13F3013E
:1018F000868161E00E94FF13112319F0F30117861E
:1019000003C080E1F3018787C30160E141E020E08B
:101910000E94DF0BCF91DF911F910F91EF90CF903D
:10192000AF908F907F906F9008958F92AF92CF92EB
:10193000EF920F931F93CF93DF93DC01362F542F39
:10194000722F102FAE2C8C2C13961C921E92129775
:101950008BE292E011969C938E9300D000D0EDB76D
:10196000FEB73196CDB7DEB719821182128213828B
:10197000CD0161E0432F2FEF052FE72EC12E0E94EE
:101980004E0C0F900F900F900F90DF91CF911F9101
:101990000F91EF90CF90AF908F900895FC0110823F
:1019A0001182138212821482158216821782108687
:1019B0001286118613861486158616861786118A56
:1019C000108A128A138A148A158A168A108E178A28
:1019D000118E128E138E148E158E12A213A214A2C3
:1019E00015A216A217A210AA11AA12AA13AA14AA23
:1019F00015AA16AE17AEEC5BFF4F10821182128251
:101A000013823896119210823596108211821282BA
:101A100013823896119210823596108211821282AA
:101A2000138238961192108235961082118212829A
:101A3000138238961192108235961082118212828A
:101A40001382389611921082709682E081931192DF
:101A5000119211921192119211921192119211926E
:101A6000119211921192119211921192119211925E
:101A7000119211921082118212821382B3971082F6
:101A80000895CF92DF92EF92FF920F931F938C01F4
:101A9000FC0111826281738180E090E00E94AB1AA8
:101AA0006B017C01F80164817581868197810E94B8
:101AB000AB1A28E23BE64EE65EE40E94121A9B0156
:101AC000AC01C701B6010E9445196B017C01F80108
:101AD0008085882321F0F7FAF094F7F8F094B601A6
:101AE000C7011F910F91FF90EF90DF90CF90089565
:101AF000CF92DF92EF92FF920F931F938C01FC0124
:101B000011826185728580E090E00E94AB1A6B01C2
:101B10007C01F80163857485858596850E94AB1AE2
:101B200028E23BE64EE65EE40E94121A9B01AC01FD
:101B3000C701B6010E9445196B017C01F801878538
:101B4000882321F0F7FAF094F7F8F094B601C70172
:101B50001F910F91FF90EF90DF90CF900895FC01BF
:101B60001182628173818481958120E432E44FE0A7
:101B700050E00E94E71C822F0895FC0111826281CF
:101B800073818481958120E137E240E050E00E943A
:101B9000E71CCA01B90124E630E040E050E00E94B1
:101BA000E71C862F0895FC01118262817381848174
:101BB000958124E630E040E050E00E94E71CCA0135
:101BC000B90124E630E040E050E00E94E71C862F97
:101BD000089540E150E00E94670108950F931F931C
:101BE0008C014096B8010E9460010E943113F801F7
:101BF00060A371A382A393A381E085A384A31F9113
:101C00000F9108950F931F938C01FC01828593859A
:101C1000A485B58586839783A087B1870E943113F9
:101C2000F801628373838483958381E08183808359
:101C30001F910F9108950F931F938C01FC018285D2
:101C40009385A485B58586839783A087B1870E94F5
:101C50003113F801628373838483958381E08183E8
:101C600080831F910F9108950F931F938C01FC01A6
:101C700086819781A085B18582839383A483B58370
:101C80000E943113F801628773878487958781E00A
:101C9000818380831F910F9108950F931F938C016F
:101CA000FC0186819781A085B18582839383A4837B
:101CB000B5830E943113F801628773878487958703
:101CC00081E0818380831F910F910895CF93DF93EB
:101CD000EC01DC011296FC01709687E001900D92F8
:101CE0008150E1F7DE011996FE01779687E00190B9
:101CF0000D928150E1F70E9431136E8F7F8F88A380
:101D000099A381E089838883DF91CF9108956F92B1
:101D10007F928F929F92AF92BF92CF92DF92EF927B
:101D2000FF920F931F93CF93DF934C013B010E94CF
:101D30003001162F072FF82EE92E24E630E040E080
:101D400050E00E94E71C80E090E020E836E948E996
:101D500050E00E94B51C5B016C01612F702F8F2D2C
:101D60009E2D24E630E040E050E00E94E71CF301A5
:101D70003183208303C00894811C911CF4012081CD
:101D8000822F992787FD9095C0970A97A0F32E324E
:101D900071F530E8E32E36E9F32E38E9032F112DE3
:101DA00019C0C801B7012AE030E040E050E00E94CD
:101DB000E71CC901DA017C018D019E01442737FD32
:101DC0004095542FC801B7010E94B51CA60EB71E3E
:101DD000C81ED91E0894811C911CF4018081C82F53
:101DE000DD27C7FDD095E097CA30D105D0F2C601F6
:101DF000B50122E0660F771F881F991F2A95D1F73A
:101E00006A0D7B1D8C1D9D1D6F5F7F4F8F4F9F4FF8
:101E100023E030E040E050E00E94E71CF301228321
:101E20003383448355831682DF91CF911F910F91A5
:101E3000FF90EF90DF90CF90BF90AF909F908F90EA
:101E40007F906F9008951F93CF93DF93EC0110E084
:101E500088818D3211F411E02196CE010E9430016B
:101E600024E630E040E050E00E94B51C9B01AC014C
:101E700001C021966881862F992787FD9095C0978C
:101E80000A97B8F36E3249F56981862F992787FD45
:101E90009095C0970A9708F58AE06802C00111245E
:101EA000805E9140AA2797FDA095BA2F280F391F71
:101EB0004A1F5B1F8A81682F772767FD70956053E3
:101EC00070406A30710548F4CB01AA2797FDA095B0
:101ED000BA2F280F391F4A1F5B1F112339F0509565
:101EE0004095309521953F4F4F4F5F4FB901CA0143
:101EF000DF91CF911F910895AF92BF92CF92DF9261
:101F0000EF92FF920F931F93CF93DF93EC01CB5788
:101F1000DF4F8881C558D040882309F4D3C0CA5701
:101F2000DF4F9881C658D040892F8154863038F4CD
:101F3000292F332727FD3095275330400CC0292FF8
:101F4000332727FD30959156963018F427553040A9
:101F500002C020533040C957DF4F4881C758D04096
:101F6000842F8154863030F4842F992787FD9095F3
:101F7000C7970BC0842F992787FD9095415646300F
:101F800018F48755904001C0C097E4E0220F331F3A
:101F9000EA95E1F7982F920FCC57DF4F8881C4580C
:101FA000D040981709F07FC0FE01E755FF4F8081B0
:101FB0009181A281B3810196A11DB11D808391837E
:101FC000A283B383C856DF4F8881C859D040882385
:101FD00071F0FE01EF55FF4F80819181A281B381A5
:101FE0000196A11DB11D80839183A283B383CB563B
:101FF000DF4F8881C559D0408823E1F08130B9F5A1
:10200000CE0182960E944D0ECE01C0960E94340EE3
:10201000C856DF4F8881C859D040882341F1CE018E
:102020000E94660ECE01CE960E941B0ECE01845BEE
:102030009F4F1BC0CE01C0960E94340EC856DF4F82
:102040008881C859D040882341F0CE010E94660E95
:10205000CE01865A9F4F0E941B0ECE0188599F4F7A
:102060000E94020ECE018A589F4F0E941B0EFE0155
:10207000E556FF4FC081D1818F0106C0CE010E947D
:10208000EE0D0AA4DBA5C02D209709F430C1D801BC
:10209000ED91FC9166A177A18EA19FA10E945701AD
:1020A000009761F324C1FE01EB55FF4F80819181C0
:1020B000A281B3810196A11DB11D80839183A2836A
:1020C000B38317C1CA56DF4F8881C659D0408823D1
:1020D00009F047C076E8C72ED12CCC0EDD1EC60114
:1020E00060EC71E00E945701009739F4CB56DF4F46
:1020F00081E08883C559D0400EC0C60166EC71E00E
:102100000E945701FE01EB56FF4F009711F4108219
:1021100002C082E080836BE9E62EF12CEC0EFD1EFE
:10212000C756DF4F88819981F701918380835701DA
:1021300005C08AA59BA5D5018D939C93F501C0810F
:10214000D181209709F4D5C00EA11FA1C801B60105
:102150000E94570197FDEDCFD8C0D7011D921C9268
:10216000C8C0CB56DF4F3881C559D040323009F452
:102170008CC0DE01AA57BF4F2C91222309F485C0E1
:10218000E32FF0E055E0EE0FFF1F5A95E1F790E0E6
:10219000E82BF92B3197E932F10508F076C0EC5CB9
:1021A000FF4FCD01EE0FFF1F0590F491E02D099434
:1021B0000E94230F6EAB7FAB88AF99AF66C0FE0164
:1021C000E856FF4F1082213409F05FC03BC0BE01CA
:1021D000605F7F4F0AC01E8A233509F056C081E038
:1021E0008E8B53C0BE01695E7F4F0E94870E4DC02B
:1021F0001D8E273509F049C081E08D8F46C00E94B1
:10220000230FC85BDF4F688379838A839B83C8541D
:10221000D0403BC00E94230FCA5ADF4F68837983A6
:102220008A839B83C655D04030C00E94300168A786
:1022300079A78AA79BA729C0FE01E856FF4F108205
:1022400021331CF181E0808320C00E943001CE58F0
:10225000DF4F688379838A839B83C257D04015C040
:102260000E94230FC058DF4F688379838A839B8342
:10227000C058D0400AC00E94230FCC59DF4F68835A
:1022800079838A839B83C456D040FE01E556FF4F75
:102290000081118146E8C42ED12CCC0EDD1E7F01B9
:1022A000CA56DF4F0AC02817390721F4C801B60102
:1022B0000E94E90DF80102A513A501151105C9F049
:1022C000D701ED91FC9166A177A1F80186A197A1B4
:1022D0000E945701009769F4D80198962D913C917E
:1022E0009997888190E082179307ECF602C081E00D
:1022F00001C080E0DF91CF911F910F91FF90EF908F
:10230000DF90CF90BF90AF900895C801B6010E94B2
:102310005701181619060CF420CFEBCF1F93CF935B
:10232000DF93EC01162FFC01E356FF4F8081918172
:10233000A281B3810196A11DB11D80839183A283E7
:10234000B3836432A1F1DE01A956BF4F65322CF48C
:102350006A3069F06D30C9F50AC06A3241F06C32FA
:10236000A1F5FE01EC57FF4F8081862780838C9179
:102370008F3010F090E00AC0FE01E80FF11DEA571F
:10238000FF4F1082CE010E947C0F982FFE01EA566B
:10239000FF4F80818F5F8083C956DF4F1882FE0117
:1023A000729710821A3251F581E0808327C0C95696
:1023B000DF4F18821A9262971882619682E08883B2
:1023C000609718826396188218C08C918E3040F402
:1023D000FE01E80FF11DEA57FF4F10838F5F8C93CA
:1023E000CB57DF4F8881C558D040882331F4FE0198
:1023F000EC57FF4F80818127808390E0892FDF9108
:10240000CF911F9108952F923F924F925F926F92BA
:102410007F928F929F92AF92BF92CF92DF92EF9274
:10242000FF920F931F93DF93CF93CDB7DEB76097E3
:102430000FB6F894DEBF0FBECDBF3B014C01CA0101
:10244000B901A60195010E94441925E33AEF4EE82F
:102450005CE30E94CF1B5B016C01C6010E94321C31
:102460006D877E878F87988BB501C6010E940F1AF2
:1024700069877A878B879C87C401B30125E33AEF8C
:102480004EE85CE30E94CF1B5B016C01C801B70101
:1024900025E33AEF4EE85CE30E94CF1B7B018C0101
:1024A000B501C6010E94321C6D837E838F8398879D
:1024B000B501C6010E940F1A69837A838B839C83BE
:1024C000B701C8010E94321C1B012C01B701C801D1
:1024D0000E940F1A5B016C0169817A818B819C815A
:1024E000A20191010E94CF1B7B018C016D817E8135
:1024F0008F819885A60195010E94CF1B29853A8579
:102500004B855C850E94CF1B9B01AC01C801B701C4
:102510000E9444199B01AC010E94CF1B7B018C01DE
:10252000C601B5012D853E854F8558890E94CF1B78
:102530009B01AC010E94CF1B9B01AC01C801B701FC
:102540000E9445190E943C1C3B014C016D817E811B
:102550008F819885A20191010E94CF1B7B018C0184
:1025600069817A818B819C81A60195010E94CF1B94
:1025700029853A854B855C850E94CF1B9B01AC0168
:10258000C801B7010E9445199B01AC01C401B30108
:102590000E94B81926E73BE742EC5AE40E94CF1BA1
:1025A00060960FB6F894DEBF0FBECDBFCF91DF911E
:1025B0001F910F91FF90EF90DF90CF90BF90AF9061
:1025C0009F908F907F906F905F904F903F902F9053
:1025D00008951F920F920FB60F9211242F933F93DD
:1025E0008F939F93AF93BF938091B2039091B30366
:1025F000A091B403B091B5033091B6030196A11D2B
:10260000B11D232F2D5F2D3720F02D570196A11DD1
:10261000B11D2093B6038093B2039093B303A093AC
:10262000B403B093B5038091AE039091AF03A09132
:10263000B003B091B1030196A11DB11D8093AE030B
:102640009093AF03A093B003B093B103BF91AF9148
:102650009F918F913F912F910F900FBE0F901F90E0
:1026600018958FB7F8942091B2033091B30340913D
:10267000B4035091B5038FBFB901CA0108959B01FE
:10268000AC017FB7F8948091AE039091AF03A09115
:10269000B003B091B10366B5A89B05C06F3F19F0B8
:1026A0000196A11DB11D7FBFBA2FA92F982F882792
:1026B000860F911DA11DB11D62E0880F991FAA1FF1
:1026C000BB1F6A95D1F7BC012DC0FFB7F89480916C
:1026D000AE039091AF03A091B003B091B103E6B502
:1026E000A89B05C0EF3F19F00196A11DB11DFFBFCA
:1026F000BA2FA92F982F88278E0F911DA11DB11DCC
:10270000E2E0880F991FAA1FBB1FEA95D1F7861B2D
:10271000970B885E9340C8F22150304040405040B3
:1027200068517C4F211531054105510571F6089519
:10273000019739F0880F991F880F991F0297019709
:10274000F1F70895789484B5826084BD84B5816082
:1027500084BD85B5826085BD85B5816085BDEEE6A9
:10276000F0E0808181608083E1E8F0E01082808188
:1027700082608083808181608083E0E8F0E08081F6
:1027800081608083E1EBF0E0808184608083E0EB16
:10279000F0E0808181608083EAE7F0E080818460FE
:1027A000808380818260808380818160808380815A
:1027B000806880831092C1000895982F8E3008F0B1
:1027C0009E509770809116028295880F880F807CAA
:1027D000892B80937C0080917A00806480937A00BA
:1027E00080917A0086FDFCCF20917800409179009D
:1027F000942F80E030E0282B392BC9010895CF9326
:10280000DF93482F50E0CA0183529E4FFC01349160
:1028100047535E4FFA018491882369F190E0880F55
:10282000991FFC01E555FE4FA591B491FC01EB54B5
:10283000FE4FC591D491662351F42FB7F8948C9133
:10284000932F909589238C93888189230BC06230C4
:1028500061F42FB7F8948C91932F909589238C93E2
:102860008881832B88832FBF06C09FB7F8948C91F3
:10287000832B8C939FBFDF91CF910895482F50E019
:10288000CA018F509E4FFC012491CA0183529E4F72
:10289000FC01949147535E4FFA013491332309F4BC
:1028A00040C0222351F1233071F0243028F421302C
:1028B000A1F0223011F514C02630B1F02730C1F05C
:1028C0002430D9F404C0809180008F7703C08091B8
:1028D00080008F7D8093800010C084B58F7702C008
:1028E00084B58F7D84BD09C08091B0008F7703C00F
:1028F0008091B0008F7D8093B000E32FF0E0EE0F69
:10290000FF1FEB54FE4FA591B4912FB7F8946623A7
:1029100021F48C919095892302C08C91892B8C9302
:102920002FBF089508951F920F920FB60F92112492
:102930002F933F934F938F939F93EF93FF938091A8
:10294000C00082FD1DC04091C6002091F703309168
:10295000F8032F5F3F4F2F7330708091F9039091F0
:10296000FA032817390771F0E091F703F091F803A3
:10297000E954FC4F40833093F8032093F70302C0DF
:102980008091C600FF91EF919F918F914F913F9160
:102990002F910F900FBE0F901F901895E0914B0450
:1029A000F0914C04E05CFF4F819191912081318145
:1029B000821B930B8F739070892B11F00E949214DD
:1029C00008951F920F920FB60F9211242F933F93E9
:1029D0008F939F93EF93FF9320913B0430913C049E
:1029E00080913D0490913E042817390731F480917D
:1029F000C1008F7D8093C10014C0E0913D04F0912F
:102A00003E04E550FC4F208180913D0490913E04AE
:102A100001968F73907090933E0480933D042093B1
:102A2000C600FF91EF919F918F913F912F910F9051
:102A30000FBE0F901F901895AF92BF92DF92EF924A
:102A4000FF920F931F93CF93DF93EC017A018B01D9
:102A5000DD24403081EE580780E0680780E0780789
:102A600011F0DD24D39491E0A92EB12CEC89FD89DD
:102A7000DD2069F0C50108A002C0880F991F0A94E3
:102A8000E2F7808360E079E08DE390E005C010829A
:102A900060E874E88EE190E0A80197010E94E71CCD
:102AA00021503040404050405695479537952795E6
:102AB00080E12030380720F0DD2011F0DD24D6CF72
:102AC000E889F9893083EA89FB89208319A2EE8994
:102AD000FF89408121E030E0C9010C8C02C0880FE1
:102AE000991F0A94E2F7482B4083EE89FF894081C1
:102AF000C9010D8C02C0880F991F0A94E2F7482B78
:102B00004083EE89FF894081C9010E8C02C0880F85
:102B1000991F0A94E2F7482B4083EE89FF89808150
:102B20000F8C02C0220F331F0A94E2F7209528234E
:102B30002083DF91CF911F910F91FF90EF90DF9055
:102B4000BF90AF900895DC011C96ED91FC911D970C
:102B5000E05CFF4F2191319180819181281B390BDD
:102B60002F733070C9010895DC011C96ED91FC9122
:102B70001D97E05CFF4F20813181E054F040DF0180
:102B8000AE5BBF4F8D919C9111972817390719F4AF
:102B90002FEF3FEF07C08D919C91E80FF91F8081C7
:102BA000282F30E0C9010895DC011C96ED91FC91BD
:102BB0001D97E05CFF4F20813181E054F040DF0140
:102BC000AE5BBF4F8D919C9111972817390719F46F
:102BD0002FEF3FEF10C08D919C911197E80FF91FD7
:102BE00020818D919C91119701968F739070119611
:102BF0009C938E9330E0C9010895DC0191968C91ED
:102C00009197882339F05496ED91FC9155978081E6
:102C100086FFF9CF91961C920895CF93DF93EC0134
:102C2000EE85FF85E05CFF4F20813181E054F0406C
:102C30002F5F3F4F2F733070DF01AE5BBF4F8D9121
:102C40009C91119728173907D1F3E05CFF4F8081E1
:102C50009181E054F040E80FF91F6083EE85FF8515
:102C6000E05CFF4F31832083EE89FF89208181E082
:102C700090E00F8C02C0880F991F0A94E2F7282B6E
:102C8000208381E089A3EC89FD8980818064808331
:102C900081E090E0DF91CF9108951092420410926C
:102CA000410488EE93E0A0E0B0E080934304909369
:102CB0004404A0934504B09346048BE392E09093C0
:102CC000400480933F0487EB93E090934C048093FF
:102CD0004B048BEF93E090934E0480934D0485EC6E
:102CE00090E09093500480934F0484EC90E0909394
:102CF00052048093510480EC90E0909354048093AC
:102D0000530481EC90E0909356048093550482EC38
:102D100090E0909358048093570486EC90E0909351
:102D20005A048093590484E080935B0483E0809389
:102D30005C0487E080935D0485E080935E0481E01D
:102D400080935F040895CF93DF930E94A2130E94A3
:102D5000F506CEECD4E10E945E052097E1F30E94D7
:102D6000CE14F9CFCF92DF92EF92FF920F931F9381
:102D7000CF93DF937C016B018A01C0E0D0E00FC0EC
:102D8000D6016D916D01D701ED91FC910190F0811B
:102D9000E02DC7010995C80FD91F0150104001153A
:102DA000110571F7CE01DF91CF911F910F91FF9027
:102DB000EF90DF90CF900895EF92FF920F931F93C3
:102DC000CF93DF937C018B01C0E0D0E0F8010F5F6F
:102DD0001F4F6491662359F0D701ED91FC9101904A
:102DE000F081E02DC7010995C80FD91FEFCFCE01A3
:102DF000DF91CF911F910F91FF90EF900895EF9287
:102E0000FF920F931F938C01DC01ED91FC910190D7
:102E1000F081E02D6DE009957C01D801ED91FC91E8
:102E20000190F081E02DC8016AE009959C012E0D0A
:102E30003F1DC9011F910F91FF90EF900895CF930F
:102E4000DF93EC016115710519F420E030E00FC04B
:102E5000DB010D900020E9F71197A61BB70BE88165
:102E6000F9810280F381E02DAD0109959C01C90132
:102E7000DF91CF9108954F925F927F928F929F92B0
:102E8000AF92BF92CF92DF92EF92FF920F931F9378
:102E9000DF93CF93CDB7DEB7A1970FB6F894DEBF1F
:102EA0000FBECDBF2C01742ECB01223008F42AE0D6
:102EB00019A231E2C32ED12CCC0EDD1E822E992414
:102EC000AA24BB24672D752FA50194010E94E71C3D
:102ED00079018A01C801B701A50194010E94B51CBE
:102EE000472D461B0894C108D1084A3014F4405DB0
:102EF00001C0495CF6014083E114F10401051105AC
:102F000021F07E2C5F2DC801DDCFC201B6010E94E9
:102F10001F17A1960FB6F894DEBF0FBECDBFCF919D
:102F2000DF911F910F91FF90EF90DF90CF90BF90B6
:102F3000AF909F908F907F905F904F900895DC01AD
:102F40002115310541F4ED91FC910190F081E02DC6
:102F5000642F099508950E943B170895EF92FF9200
:102F60000F931F937C010E949F178C01C7010E9441
:102F7000FF169C01200F311FC9011F910F91FF9077
:102F8000EF900895CF92DF92EF92FF920F931F93ED
:102F9000CF93DF93EC016A017B012115310541F4E8
:102FA000E881F9810190F081E02D642F09951FC01F
:102FB0002A303105D1F477FF17C0E881F9810190FB
:102FC000F081E02D6DE209958C0144275527BA0167
:102FD0004C195D096E097F09CE012AE00E943B175A
:102FE0009801280F391F04C02AE00E943B179C015A
:102FF000C901DF91CF911F910F91FF90EF90DF906A
:10300000CF900895EF92FF920F931F937B019A0147
:103010000027F7FC0095102FB801A7010E94C217E6
:103020001F910F91FF90EF900895CF92DF92EF9252
:10303000FF920F931F936C017B019A010027F7FC0D
:103040000095102FB801A7010E94C2178C01C6017C
:103050000E94FF16080F191FC8011F910F91FF90C2
:10306000EF90DF90CF9008950E941F1708957F92F0
:103070008F929F92AF92BF92CF92DF92EF92FF9288
:103080000F931F93CF93DF934C017A018B01722E24
:10309000CB01BA01A80197010E94891C882321F065
:1030A000C40160E072E021C0C0E0D0E057016801D7
:1030B000E894D7F8C601B5012FEF3FEF4FE75FE780
:1030C0000E94891C882351F4C601B5012FEF3FEF00
:1030D0004FE75FE70E940B1A181614F0C1E0D0E02A
:1030E000219739F0C40164E072E00E941F17EC01DF
:1030F00093C0C801B7012FEF3FEF4FE75FE40E9495
:10310000C41B181654F0C801B7012FEF3FEF4FE76B
:103110005FEC0E940B1A882324F4C40168E072E07B
:10312000E4CFC801B70120E030E040E050E00E9469
:103130000B1A87FD03C0C0E0D0E00EC0D401ED91B2
:10314000FC910190F081E02DC4016DE20995EC0144
:1031500017FB109517F9109520E030E040E05FE391
:10316000DD240BC0CA01B90120E030E040E251E4A7
:103170000E94121A9B01AC01D394D71498F3C80192
:10318000B7010E9445195B016C010E947F1A7B0107
:103190008C01C401B801A7012AE030E00E949F170A
:1031A000C80FD91F772039F0C4016CE072E00E948B
:1031B0001F17C80FD91FC801B7010E94AB1A9B0186
:1031C000AC01C601B5010E94441924C020E030E0E2
:1031D00040E251E40E94CF1B7B018C010E947A1ACD
:1031E0005B016C01CC24B7FCC094DC2CC401B6019B
:1031F000A5012AE030E00E94C217C80FD91FC601FE
:10320000B5010E94AD1A9B01AC01C801B7010E9433
:1032100044197A947720D1F6CE01DF91CF911F9196
:103220000F91FF90EF90DF90CF90BF90AF909F9065
:103230008F907F9008950E9437180895EF92FF9223
:103240000F931F937C010E9437188C01C7010E94C5
:10325000FF16080F191FC8011F910F91FF90EF90E3
:103260000895EF92FF920F931F937C010E941F1706
:103270008C01C7010E94FF16080F191FC8011F917A
:103280000F91FF90EF9008955058BB27AA270ED0BA
:1032900030C2F0D130F0F5D120F031F49F3F11F47D
:1032A0001EF4C0C10EF4E095E7FBB6C1E92F43D28E
:1032B00080F3BA17620773078407950718F071F453
:1032C0009EF55BC20EF4E0950B2EBA2FA02D0B01DC
:1032D000B90190010C01CA01A0011124FF27591B5B
:1032E00099F0593F50F4503E68F11A16F040A22F61
:1032F000232F342F4427585FF3CF469537952795D2
:10330000A795F0405395C9F77EF41F16BA0B620BD0
:10331000730B840BBAF09150A1F0FF0FBB1F661F17
:10332000771F881FC2F70EC0BA0F621F731F841F5A
:1033300048F4879577956795B795F7959E3F08F080
:10334000B3CF9395880F08F09927EE0F979587953F
:10335000089590D158F080E891E009F49EEF91D162
:1033600028F040E851E059F45EEF09C05BC105C2A6
:10337000E92FE078E0D168F3092E052AC1F326177A
:1033800037074807590738F00E2E07F8E02569F08F
:10339000E025E0640AC0EF6307F8009407FADB0158
:1033A000B9019D01DC01CA01AD01EF934AD0A1D161
:1033B0000AD05F91552331F02BED3FE049E450FDF9
:1033C00049EC63CF0895DF93DD27B92FBF7740E83D
:1033D0005FE31616170648075B0710F4D92FD8D1FC
:1033E0009F938F937F936F9391D2EAEBF0E01DD17F
:1033F00080D12F913F914F915F91DDD1DD2349F035
:103400009058A2EA2AED3FE049EC5FE3D0785D27CF
:103410004DDFDF916EC1DCD008F481E0089539D131
:10342000E39578C10CD065C12CD140F023D130F0A8
:1034300021F45F3F19F0F0C05111A0C1F3C07BD15E
:1034400098F39923C9F35523B1F3951B550BBB276B
:10345000AA2762177307840738F09F5F5F4F220F18
:10346000331F441FAA1FA9F333D00E2E3AF0E0E811
:1034700030D091505040E695001CCAF729D0FE2F5D
:1034800027D0660F771F881FBB1F261737074807EF
:10349000AB07B0E809F0BB0B802DBF01FF279358A5
:1034A0005F4F2AF09E3F510568F0B6C067C15F3F8D
:1034B000ECF3983EDCF3869577956795B795F7958D
:1034C0009F5FC9F7880F911D9695879597F9089585
:1034D000E1E0660F771F881FBB1F62177307840721
:1034E000BA0720F0621B730B840BBA0BEE1F88F730
:1034F000E095089504D06894B11140C1089523D196
:1035000088F09F5790F0B92F9927B751A0F0D1F0CC
:10351000660F771F881F991F1AF0BA95C9F712C056
:10352000B13081F02AD1B1E0089527C1672F782FFB
:103530008827B85F39F0B93FCCF3869577956795C2
:10354000B395D9F73EF490958095709561957F4F2E
:103550008F4F9F4F0895E89409C097FB3EF49095D4
:103560008095709561957F4F8F4F9F4F9923A9F05C
:10357000F92F96E9BB279395F695879577956795EB
:10358000B795F111F8CFFAF4BB0F11F460FF1BC02F
:103590006F5F7F4F8F4F9F4F16C0882311F096E9C2
:1035A00011C0772321F09EE8872F762F05C0662370
:1035B00071F096E8862F70E060E02AF09A95660F29
:1035C000771F881FDAF7880F9695879597F90895E2
:1035D000990F0008550FAA0BE0E8FEEF1616170624
:1035E000E807F907C0F012161306E407F50798F08C
:1035F000621B730B840B950B39F40A2661F0232BA5
:10360000242B252B21F408950A2609F4A140A69520
:103610008FEF811D811D089597F99F6780E870E005
:1036200060E008959FEF80EC0895DF93CF931F93A0
:103630000F93FF92EF92DF927B018C01689405C09B
:10364000DA2EEF01B8D0FE01E894A59125913591CD
:1036500045915591AEF3EF0129DEFE019701A801D6
:10366000DA9479F7DF90EF90FF900F911F91CF914F
:10367000DF91089500240A94161617061806090605
:10368000089500240A9412161306140605060895D8
:10369000C9CF59D0E8F3E894EFEFBB273FE048ECFF
:1036A0005FE76B3D73078407950708F1FF279F5776
:1036B000B25A6A4D7F40894CF04032F4BE556542A3
:1036C000704F8643FF4F0894EE1F915030F0BB0FB0
:1036D000661F771F881FFF1FEBCF9EE7882332F0FE
:1036E000BB0F661F771F881F9A95C1F79395E095CA
:1036F00014C1092E0394000C11F4882352F0BB0F5F
:1037000040F4BF2B11F460FF04C06F5F7F4F8F4FF9
:103710009F4F0895EF93E0FF06C0A2EA2AED3FE035
:1037200049EC5FEBC3DDE5DF0F90039401FC90589B
:10373000E7EEF0E009C157FD9058440F551F59F0CE
:103740005F3F71F04795880F97FB991F61F09F3F8E
:1037500079F087950895121613061406551FF2CFB7
:103760004695F1DF08C0161617061806991FF1CF07
:1037700086957105610508940895E894BB2766272E
:103780007727CB0197F9089523DF08F48FEF089589
:103790009B01AC0160E070E080E89FE343CE0BD07A
:1037A000A8CF68DF28F06DDF18F0952309F034CF3B
:1037B00039CF1124E3CFBFDFA0F3959FD1F3950F4D
:1037C00050E0551F629FF001729FBB27F00DB11DA5
:1037D000639FAA27F00DB11DAA1F649F6627B00D35
:1037E000A11D661F829F2227B00DA11D621F739F1E
:1037F000B00DA11D621F839FA00D611D221F749F2C
:103800003327A00D611D231F849F600D211D822F72
:10381000762F6A2F11249F5750408AF0E1F08823B9
:103820004AF0EE0FFF1FBB1F661F771F881F9150C6
:103830005040A9F79E3F510570F0EECE9FCF5F3FFD
:10384000ECF3983EDCF3869577956795B795F795F9
:10385000E7959F5FC1F7FE2B880F911D9695879581
:1038600097F908959F9315DF0F9007FCEE5F52CFF5
:1038700011F40EF4D7CE51C066DFD0F39923D9F3FB
:10388000CEF39F57550B87FF58D056959795B0E0CC
:1038900020F4660F771F881FBB1F1F930F93002410
:1038A0009001A0018001F001A0E80E0F1F1F0A1E69
:1038B000511D601B710B8009B50B48F4600F711F1F
:1038C000801DB51F0E1B1F0B0A0A510907C02E0FC2
:1038D0003F1F4A1F0E0F1F1F0A1E511D660F771F25
:1038E000881FBB1FA695F795E795F8F606171707EB
:1038F00008065B07211D311D411D0F911F91B90164
:10390000842F9158880F9695879508959B01AC0157
:1039100046CF5EDE880B990B08959F3F49F091508A
:1039200028F4869577956795B7959F5F80389F4F68
:10393000880F9695879597F9089591505040660F96
:10394000771F881FD2F708959F938F937F936F936C
:10395000FF93EF939B01AC0122DFEF91FF9165DEB6
:103960002F913F914F915F911ACF629FD001739F2A
:10397000F001829FE00DF11D649FE00DF11D929F0B
:10398000F00D839FF00D749FF00D659FF00D99274A
:10399000729FB00DE11DF91F639FB00DE11DF91F6E
:1039A000BD01CF011124089597FB092E07260AD0E7
:1039B00077FD04D02ED006D000201AF470956195C2
:1039C0007F4F0895F6F7909581959F4F0895A1E256
:1039D0001A2EAA1BBB1BFD010DC0AA1FBB1FEE1F89
:1039E000FF1FA217B307E407F50720F0A21BB30BD4
:1039F000E40BF50B661F771F881F991F1A9469F750
:103A000060957095809590959B01AC01BD01CF01AB
:103A10000895AA1BBB1B51E107C0AA1FBB1FA61715
:103A2000B70710F0A61BB70B881F991F5A95A9F767
:103A300080959095BC01CD010895EE0FFF1F059074
:103A4000F491E02D09942F923F924F925F926F92E2
:103A50007F928F929F92AF92BF92CF92DF92EF921E
:103A6000FF920F931F93CF93DF93CDB7DEB7CA1B9F
:103A7000DB0B0FB6F894DEBF0FBECDBF09942A88CA
:103A8000398848885F846E847D848C849B84AA8472
:103A9000B984C884DF80EE80FD800C811B81AA81FF
:103AA000B981CE0FD11D0FB6F894DEBF0FBECDBFCA
:103AB000ED01089512E0CAE0D2E004C0FE010E94C8
:0E3AC0001F1D2296CC30D107C9F7F894FFCF16
:103ACE0042617474204C4F57213A20005600253025
:103ADE0032643A253032643A253032642000536F16
:103AEE0066742053657269616C20646576696365DE
:103AFE00206F766572666C6F7765643F2000646533
:103B0E00627567004E6F00594553210053656E7400
:103B1E00656E6365732074686174206661696C6597
:103B2E006420636865636B73756D3D004973207621
:103B3E00616C69643F2000533A00483A004C41548E
:103B4E003D004C4F4E473D00256C64002A2A2A2A20
:103B5E002A2A2A2A2A2A2A2A2A2A2A2A2A00000035
:103B6E00000000000000000000000000475053203D
:103B7E00617070207374617274696E672E2E2E00E0
:103B8E004750524D43004750474741004E004E4E5E
:103B9E0045004E4500454E450045004553450053F2
:103BAE004500535345005300535357005357005786
:103BBE005357005700574E57004E57004E4E570062
:103BCE006E616E00696E66006F7666002E00530899
:103BDE004E42F51203BE01000000007B09B21661D1
:103BEE000940093E0A2D0A00000000940BB216008F
:103BFE0000400014005400000000000D16B216A381
:083C0E0015D415B415FD1500D5
:00000001FF
