:1000000002C100002AC1000028C1000026C1000072
:1000100024C1000022C1000020C100001EC1000058
:100020001CC100001AC1000018C1000016C1000068
:1000300014C1000012C1000010C100000EC1000078
:100040000CC100000AC1000008C1000006C1000088
:1000500004C1000002C1000000C10000A0C10000F6
:10006000FCC0000036C3000078C40000F6C00000E9
:10007000F4C00000F2C00000F0C00000EEC00000BC
:10008000ECC00000EAC00000E8C00000E6C00000CC
:1000900060C30000A1C40000E0C00000DEC000009A
:1000A000DCC00000DAC00000D8C00000D6C00000EC
:1000B000D4C00000D2C00000E8C00000CEC00000E4
:1000C000CCC00000CAC00000C8C0000082C300004D
:1000D000C2C40000C2C00000BCC30000FBC40000DA
:1000E000BCC0000000002100240027002A002D00D1
:1000F0003000330001010000040107010A01000083
:100100002200250028002B002E00310034000201BF
:100110000000050108010B0100002000230026005B
:1001200029002C002F00320000010000030106010D
:10013000090105050505070508080808020202026D
:100140000A0A080804040404010101010101010173
:100150000303030303030303040707070C0C0C0C3E
:100160000C0C0C0C02020202060606060606060627
:100170000B0B0B0B0B0B0B0B0102102020080810B4
:100180002040102040800201020108040201010207
:1001900004081020408080402010080402018004E0
:1001A000020180402010080402010804020101023B
:1001B0000408102040800102040810204080000044
:1001C000090A02080B0C0D070603040100000000D9
:1001D000000000000000000000000000000000001F
:1001E0000000000000000000000011100F000000DF
:1001F00000000000000000000000000000000000FF
:1002000000000000D90611241FBECFEFD1E2DEBFEF
:10021000CDBF00E00CBF12E0A0E0B2E0ECEDF0E1F9
:1002200000E00BBF02C007900D92A031B107D9F7D3
:100230001BBE14E0A0E1B2E001C01D92A13CB107D9
:10024000E1F712E0C6E0D2E003C02297FE0140D7FA
:10025000C430D107D1F7E3D63FC7D2CE08951F935C
:100260008EBD0DB407FEFDCF1EB584E190E0DFD05A
:10027000812F1F91089580E360E0F8D188E6EFDFD9
:1002800088E6EDDF80E361E0F1C11F920F920FB6C7
:100290000F920BB60F9211242F933F934F935F93BE
:1002A0006F937F938F939F93AF93BF93EF93FF933E
:1002B000919AE1DFFF91EF91BF91AF919F918F9163
:1002C0007F916F915F914F913F912F910F900BBE56
:1002D0000F900FBE0F901F90189589E394E040E8AF
:1002E00055E260E070E035D480E361E00CD184E356
:1002F00061E009D183E361E006D182E360E003D1EC
:10030000999A88E260E0B2D1109220018DE1809349
:10031000210184E89EE19093270180932601E3E781
:10032000F0E080818062808380E361E09FD18CE097
:100330000ED081E003D085E00FD01FC0882319F4D0
:100340008CB5806202C08CB58F7D8CBD08959CB544
:10035000937F982B9CBD08952CB5382F33702C7F3C
:10036000322B3CBD2DB590E0959587959595879559
:1003700081702E7F822B8DBD089585E361E076D15B
:1003800085E361E0C0D08CB580618CBD8CB58064A4
:100390008CBD84E361E0B7D083E361E0B4C01F9219
:1003A0000F920FB60F9211242F933F938F939F9329
:1003B000AF93BF938091140290911502A091160201
:1003C000B0911702309118020196A11DB11D232F83
:1003D0002D5F2D3720F02D570196A11DB11D2093C3
:1003E00018028093140290931502A0931602B09302
:1003F00017028091100290911102A0911202B09107
:1004000013020196A11DB11D809310029093110259
:10041000A0931202B0931302BF91AF919F918F915D
:100420003F912F910F900FBE0F901F90189501973D
:1004300039F0880F991F880F991F02970197F1F7DC
:100440000895789484B5826084BD84B5816084BD4C
:1004500085B5826085BD85B5816085BDEEE6F0E03D
:10046000808181608083E1E8F0E010828081826099
:100470008083808181608083E0E8F0E0808181601A
:100480008083E1EBF0E0808184608083E0EBF0E04A
:10049000808181608083E1E9F0E0808182608083F7
:1004A000808181608083E0E9F0E0808181608083E9
:1004B000E1EAF0E0808182608083808181608083D6
:1004C000E0EAF0E0808181608083E1E2F1E0808118
:1004D00082608083808181608083E0E2F1E08081BE
:1004E00081608083EAE7F0E080818460808380819E
:1004F0008260808380818160808380818068808346
:100500001092C1000895CF93DF93482F50E0CA01A5
:1005100088589E4FFC0134914E5C5E4FFA018491E5
:10052000882369F190E0880F991FFC01EC51FF4F7F
:10053000A591B491FC01E250FF4FC591D49166237F
:1005400051F42FB7F8948C91932F909589238C9325
:10055000888189230BC0623061F42FB7F8948C91A5
:10056000932F909589238C938881832B88832FBF29
:1005700006C09FB7F8948C91832B8C939FBFDF911B
:10058000CF910895893009F449C08A30A0F48430AD
:1005900051F1853040F4823079F1833000F58130BB
:1005A00009F063C026C0873079F1883098F586302D
:1005B00009F05BC025C08D3009F442C08E3028F4AC
:1005C0008B30B1F18C30C0F52DC0803109F442C0C0
:1005D000813109F445C08F3009F047C037C08091A0
:1005E00080008F7703C0809180008F7D8093800092
:1005F000089584B58F7702C084B58F7D84BD08953A
:100600008091B0008F7703C08091B0008F7D809380
:10061000B0000895809190008F7707C0809190007E
:100620008F7D03C080919000877F80939000089514
:100630008091A0008F7707C08091A0008F7D03C0BC
:100640008091A000877F8093A00008958091200171
:100650008F7703C0809120018F7D809320010895C2
:1006600080912001877F809320010895FF920F934E
:100670001F93F62E482F50E0CA0182549E4FFC0172
:100680002491CA0188589E4FFC0114914E5C5E4F24
:10069000FA0104910023C1F0222311F0822F72DFAE
:1006A000E02FF0E0EE0FFF1FE250FF4FA591B49155
:1006B0009FB7F894FF2021F48C911095812302C0FC
:1006C0008C91812B8C939FBF1F910F91FF90089568
:1006D00008951F920F920FB60F920BB60F9211242E
:1006E0002F933F934F938F939F93EF93FF9380911B
:1006F000C00082FD1DC04091C6002091590230917A
:100700005A022F5F3F4F2F73307080915B029091A0
:100710005C022817390771F0E0915902F0915A02F2
:10072000E75EFD4F408330935A022093590202C086
:100730008091C600FF91EF919F918F914F913F91D2
:100740002F910F900BBE0F900FBE0F901F9018951A
:1007500008951F920F920FB60F920BB60F921124AD
:100760002F933F934F938F939F93EF93FF9380919A
:10077000C80082FD1DC04091CE002091E102309161
:10078000E2022F5F3F4F2F7330708091E302909110
:10079000E4022817390771F0E091E102F091E202DA
:1007A000EF55FD4F40833093E2022093E10202C0F7
:1007B0008091CE00FF91EF919F918F914F913F914A
:1007C0002F910F900BBE0F900FBE0F901F9018959A
:1007D00008951F920F920FB60F920BB60F9211242D
:1007E0002F933F934F938F939F93EF93FF9380911A
:1007F000D00082FD1DC04091D60020916903309148
:100800006A032F5F3F4F2F73307080916B0390917D
:100810006C032817390771F0E0916903F0916A03BE
:10082000E75DFC4F408330936A032093690302C065
:100830008091D600FF91EF919F918F914F913F91C1
:100840002F910F900BBE0F900FBE0F901F90189519
:1008500008951F920F920FB60F920BB60F921124AC
:100860002F933F934F938F939F93EF93FF93809199
:10087000300182FD1DC0409136012091F10330917D
:10088000F2032F5F3F4F2F7330708091F3039091ED
:10089000F4032817390771F0E091F103F091F203A6
:1008A000EF54FC4F40833093F2032093F10302C0D6
:1008B00080913601FF91EF919F918F914F913F91E0
:1008C0002F910F900BBE0F900FBE0F901F90189599
:1008D000E0914504F0914604E05CFF4F81919191D5
:1008E00020813181821B930B8F739070892B09F0CB
:1008F000EFDEE0916704F0916804E05CFF4F8191C6
:10090000919120813181821B930B8F739070892B81
:1009100009F01EDFE0918904F0918A04E05CFF4F4A
:100920008191919120813181821B930B8F73907003
:10093000892B09F04DDFE091AB04F091AC04E05C51
:10094000FF4F8191919120813181821B930B8F7395
:100950009070892B09F07CCF08951F920F920FB6EB
:100960000F920BB60F9211242F933F938F939F9367
:10097000EF93FF9320919D0230919E0280919F0200
:100980009091A0022817390731F48091C1008F7D22
:100990008093C10014C0E0919F02F091A002E35A3D
:1009A000FD4F208180919F029091A00201968F734C
:1009B00090709093A00280939F022093C600FF91B5
:1009C000EF919F918F913F912F910F900BBE0F90C0
:1009D0000FBE0F901F9018951F920F920FB60F9297
:1009E0000BB60F9211242F933F938F939F93EF9306
:1009F000FF93209125033091260380912703909146
:100A000028032817390731F48091C9008F7D80931E
:100A1000C90014C0E0912703F0912803EB51FD4F6A
:100A20002081809127039091280301968F73907005
:100A300090932803809327032093CE00FF91EF919A
:100A40009F918F913F912F910F900BBE0F900FBEF2
:100A50000F901F9018951F920F920FB60F920BB622
:100A60000F9211242F933F938F939F93EF93FF93B4
:100A70002091AD033091AE038091AF039091B0030C
:100A80002817390731F48091D1008F7D8093D100F0
:100A900014C0E091AF03F091B003E359FC4F208103
:100AA0008091AF039091B00301968F7390709093F3
:100AB000B0038093AF032093D600FF91EF919F91F5
:100AC0008F913F912F910F900BBE0F900FBE0F9003
:100AD0001F9018951F920F920FB60F920BB60F92A0
:100AE00011242F933F938F939F93EF93FF93209124
:100AF00035043091360480913704909138042817DA
:100B0000390731F4809131018F7D8093310114C018
:100B1000E0913704F0913804EB50FC4F2081809134
:100B200037049091380401968F7390709093380435
:100B30008093370420933601FF91EF919F918F911D
:100B40003F912F910F900BBE0F900FBE0F901F90F3
:100B50001895AF92BF92DF92EF92FF920F931F937F
:100B6000CF93DF93EC017A018B01DD24403081EEDD
:100B7000580780E0680780E0780711F0DD24D394FF
:100B800091E0A92EB12CEC89FD89DD2069F0C50129
:100B900008A002C0880F991F0A94E2F7808360E0E2
:100BA00079E08DE390E005C0108260E874E88EE1A2
:100BB00090E0A801970168D2215030404040504059
:100BC000569547953795279580E12030380720F0D6
:100BD000DD2011F0DD24D7CFE889F9893083EA8957
:100BE000FB89208319A2EE89FF89408121E030E052
:100BF000C9010C8C02C0880F991F0A94E2F7482B98
:100C00004083EE89FF894081C9010D8C02C0880FA5
:100C1000991F0A94E2F7482B4083EE89FF894081AF
:100C2000C9010E8C02C0880F991F0A94E2F7482B65
:100C30004083EE89FF8980810F8C02C0220F331F11
:100C40000A94E2F7209528232083DF91CF911F910A
:100C50000F91FF90EF90DF90BF90AF900895DC016F
:100C60001C96ED91FC911D97E05CFF4F2191319115
:100C700080819181281B390B2F733070C901089531
:100C8000DC011C96ED91FC911D97E05CFF4F2081EB
:100C90003181E054F040DF01AE5BBF4F8D919C91FC
:100CA00011972817390719F42FEF3FEF07C08D91DF
:100CB0009C91E80FF91F8081282F30E0C901089529
:100CC000DC011C96ED91FC911D97E05CFF4F2081AB
:100CD0003181E054F040DF01AE5BBF4F8D919C91BC
:100CE00011972817390719F42FEF3FEF10C08D9196
:100CF0009C911197E80FF91F20818D919C9111977C
:100D000001968F73907011969C938E9330E0C90179
:100D10000895DC0191968C919197882339F054962F
:100D2000ED91FC915597808186FFF9CF91961C92A9
:100D30000895CF93DF93EC01EE85FF85E05CFF4FD4
:100D400020813181E054F0402F5F3F4F2F7330708E
:100D5000DF01AE5BBF4F8D919C911197281739072A
:100D6000D1F3E05CFF4F80819181E054F040E80FC7
:100D7000F91F6083EE85FF85E05CFF4F31832083A0
:100D8000EE89FF89208181E090E00F8C02C0880FFE
:100D9000991F0A94E2F7282B208381E089A3EC892C
:100DA000FD8980818064808381E090E0DF91CF9134
:100DB00008951F9310923C0410923B0428EE33E0F8
:100DC00040E050E020933D0430933E0440933F04C4
:100DD0005093400464E072E070933A0460933904E5
:100DE00089E192E090934604809345048DE592E07A
:100DF000909348048093470485EC90E090934A04D4
:100E00008093490484EC90E090934C0480934B04CD
:100E100080EC90E090934E0480934D0481EC90E040
:100E20009093500480934F0482EC90E0909352048E
:100E30008093510486EC90E0909354048093530483
:100E400014E010935504B3E0B0935604A7E0A093C8
:100E50005704F5E0F0935804E1E0E0935904109250
:100E60005E0410925D0420935F043093600440930D
:100E700061045093620470935C0460935B0481EAA4
:100E800092E0909368048093670485EE92E09093DB
:100E90006A04809369048DEC90E090936C048093D5
:100EA0006B048CEC90E090936E0480936D0488EC5E
:100EB00090E09093700480936F0489EC90E090939D
:100EC0007204809371048AEC90E090937404809390
:100ED00073048EEC90E090937604809375041093E5
:100EE0007704B0937804A0937904F0937A04E093A4
:100EF0007B041092800410927F042093810430932D
:100F00008204409383045093840470937E0460931E
:100F10007D0489E293E090938A04809389048DE6AE
:100F200093E090938C0480938B0485ED90E09093F4
:100F30008E0480938D0484ED90E0909390048093D0
:100F40008F0480ED90E0909392048093910481ED62
:100F500090E0909394048093930482ED90E09093BA
:100F600096048093950486ED90E090939804809386
:100F7000970410939904B0939A04A0939B04F09360
:100F80009C04E0939D041092A2041092A10420936B
:100F9000A3043093A4044093A5045093A604709333
:100FA000A00460939F0481EB93E09093AC04809342
:100FB000AB0485EF93E09093AE048093AD0485E39A
:100FC00091E09093B0048093AF0484E391E0909318
:100FD000B2048093B10480E391E09093B4048093D1
:100FE000B30481E391E09093B6048093B50482E367
:100FF00091E09093B8048093B70486E391E09093D6
:10100000BA048093B9041093BB04B093BC04A093BA
:10101000BD04F093BE04E093BF041F910895CF93E5
:10102000DF930FDA5AD9C8E6D4E018D92097E9F34C
:101030004FDCFBCFCF92DF92EF92FF920F931F9383
:10104000CF93DF937C016B018A01C0E0D0E00FC039
:10105000D6016D916D01D701ED91FC910190F08168
:10106000E02DC7011995C80FD91F01501040011577
:10107000110571F7CE01DF91CF911F910F91FF9074
:10108000EF90DF90CF900895A1E21A2EAA1BBB1B10
:10109000FD010DC0AA1FBB1FEE1FFF1FA217B30744
:1010A000E407F50720F0A21BB30BE40BF50B661F5A
:1010B000771F881F991F1A9469F76095709580951E
:1010C00090959B01AC01BD01CF010895EE0FFF1F6C
:0C10D0000590F491E02D1994F894FFCFE6
:1010DC000000000099061A082F06600640068906D3
:00000001FF
