:100000000C947B000C94A3000C94A3000C94A3000C
:100010000C94A3000C94A3000C94A3000C94A300D4
:100020000C94A3000C94A3000C94A3000C94A300C4
:100030000C94A3000C94A3000C94A3000C94A300B4
:100040000C948D070C94A3000C94BE080C940C091E
:100050000C94A3000C94A3000C94A3000C94A30094
:100060000C949B030C94A300084AD73B3BCE016E33
:1000700084BCBFFDC12F3D6C74319ABD56833DDAFF
:100080003D00C77F11BED9E4BB4C3E916BAAAABE0E
:10009000000000803F00000000240027002A00002C
:1000A000000000250028002B00000000002300268F
:1000B00000290004040404040404040202020202ED
:1000C000020303030303030102040810204080011C
:1000D000020408102001020408102000000007009C
:1000E0000201000003040600000000000000000000
:1000F000B4003702780A11241FBECFEFD8E0DEBF6C
:10010000CDBF12E0A0E0B1E0E6E2F0E202C005906F
:100110000D92AC32B107D9F713E0ACE2B2E001C006
:100120001D92A83BB107E1F710E0C6EFD0E004C094
:100130002297FE010E940D10C03FD107C9F70E940F
:10014000CE0A0C9411100C940000FB01DC0141500C
:10015000504048F001900D920020C9F701C01D9257
:1001600041505040E0F708958CE292E049E350E3BB
:1001700060E070E00E944B050895EF92FF920F93AC
:100180001F93DF93CF93CDB7DEB7A4970FB6F89444
:10019000DEBF0FBECDBF8CE292E0BE016F5F7F4F2E
:1001A0000E942906698D7A8D8B8D9C8D2D893E89C3
:1001B0004F89588D0E948E0D26EA3BE944E45DE3A9
:1001C0000E941B0D7B018C0120E030E040E050E0FC
:1001D0000E94E10D882354F4C801B7012BED3FE0E4
:1001E00049EC50E40E941B0D7B018C01C801B70152
:1001F0002BED3FE049EC50E40E94550F181654F4E3
:10020000C801B7012BED3FE049EC50E40E941A0D04
:100210007B018C0186E993E060E071E00E940A0CAA
:10022000C801B70120E030E044E353E40E94600FCE
:100230002BED3FE049E450E40E94E50DAB01BC0129
:1002400086E993E022E030E00E94F40C68EC70E074
:1002500080E090E00E94D507A4960FB6F894DEBF28
:100260000FBECDBFCF91DF911F910F91FF90EF9007
:100270000895CF92DF92EF92FF920F931F93DF9337
:10028000CF93CDB7DEB7A8970FB6F894DEBF0FBEF9
:10029000CDBF8CE292E07E010894E11CF11CB70115
:1002A0000E94550506E913E094E1C92E91E0D92E8C
:1002B000C801B6010E94070DC80169E371E00E9400
:1002C0000A0CC801B7010E94070DC80168E471E07B
:1002D0000E940A0C4D855E856F857889C8012AE0E9
:1002E00030E00E94F60BC80167E571E00E940A0C3D
:1002F00049895A896B897C89C8012AE030E00E94CB
:10030000F60BC80166E671E00E940A0C498D5A8D11
:100310006B8D7C8DC80122E030E00E94F10C85E7F6
:10032000E82E81E0F82EC801B7010E94070DC80130
:1003300069E771E00E940A0C4D8D5E8D6F8D78A18A
:10034000C80122E030E00E94F10CC801B7010E9410
:10035000070DC80168E871E00E940A0C49A15AA182
:100360006BA17CA1C80122E030E00E94F10CC80121
:10037000B7010E94070DC801B6010E94070DC80110
:1003800067E971E00E94070D64EF71E080E090E0A2
:100390000E94D507A8960FB6F894DEBF0FBECDBF5A
:1003A000CF91DF911F910F91FF90EF90DF90CF9051
:1003B000089586E993E040E855E260E070E00E942D
:1003C000470986E993E068E971E00E94070D86E934
:1003D00093E067E971E00E94070D8CE292E00E94D1
:1003E0007707882339F486E993E062EB71E00E9495
:1003F000070DFFCF0E943901089581E080938A02A2
:1004000060936702109288021092890208952091E9
:10041000660230E080916502281B3109C901089508
:100420004091650280916602481718F02FEF3FEF68
:100430000AC0E42FF0E0EB5BFD4F8081282F30E015
:100440004F5F40936502C9010895E0916502809174
:100450006602E81718F0EFEFFFEF06C0F0E0EB5B85
:10046000FD4F8081E82FF0E0CF01089508951092AC
:100470008E0210928D0288EE93E0A0E0B0E08093AF
:100480008F0290939002A0939102B093920286E023
:1004900092E090938C0280938B020895CF92DF922A
:1004A000EF92FF920F931F93CF93DF937C016B0129
:1004B0008A0180918A028823A1F0C0E0D0E00DC0BB
:1004C000D701ED91FC91D601AC0FBD1F0190F081D9
:1004D000E02DC7016C9109952196C017D10780F3D3
:1004E00004C0CB01642F0E948003C801DF91CF912B
:1004F0001F910F91FF90EF90DF90CF900895DF93C1
:10050000CF930F92CDB7DEB7FC01698380918A0249
:100510008823C9F080918902803238F081E090E030
:100520009383828320E030E015C080918802E82F19
:10053000F0E0E859FD4F998190838F5F80938802A6
:100540008093890205C0CE01019661E00E9480037C
:1005500021E030E0C9010F90CF91DF9108950F9312
:10056000062F8091670268E672E04091890221E0DF
:100570000E942B03109288021092890210928A0224
:100580000F91089561E00E94AF020895413208F092
:1005900040E2862F65E472E00E94E202109265025A
:1005A00080936602089521E00E94C6020895109289
:1005B00065021092660210928802109289020E94CF
:1005C0002C050895382F413210F040E042C0809150
:1005D00097028823E1F791E0909397022093990284
:1005E0008FEF809304031092BF0241504093C002EA
:1005F0004F5F9093980280919802330F832B8093E2
:10060000980280919A02813041F410929A0280916E
:1006100098028093BB0085EC01C085EE8093BC00FE
:10062000809197028130E1F38091BF02841710F42A
:100630004091BF0220E030E00AC0FB01E20FF31F4F
:10064000D901A156BD4F8C9180832F5F3F4F241756
:10065000A0F3842F08950F931F93582F122F413228
:1006600010F081E04AC0809197028823E1F782E090
:1006700080939702009399028FEF80930403109266
:10068000BF024093C002AFE9B2E0FB0102C081911A
:100690008D938E2F861B8417D0F310929802809131
:1006A0009802550F852B8093980280919A02813091
:1006B00041F410929A02809198028093BB0085ECDD
:1006C00001C085EE8093BC00112321F08091970238
:1006D0008230E1F3809104038F3F11F480E00DC07C
:1006E00080910403803211F482E007C080910403FA
:1006F000803311F084E001C083E01F910F910895D1
:10070000482F613210F081E0089580919702843083
:1007100011F082E008956093E202A1ECB2E0842F30
:100720009C01F90102C081918D938E2F841B861745
:10073000D0F380E008951F920F920FB60F9211240C
:100740002F933F934F935F936F937F938F939F93D9
:10075000AF93BF93EF93FF938091B90090E0887FB0
:1007600090708036910509F4F2C081369105CCF580
:100770008832910509F47BC089329105B4F4803147
:10078000910509F46FC0813191053CF4009709F49B
:1007900047C1089709F04FC165C08831910509F438
:1007A00066C0809709F047C182C08034910509F482
:1007B000A4C08134910544F48033910509F482C0CA
:1007C000C89709F038C189C08035910509F489C0FE
:1007D0008835910509F496C08834910509F02BC13C
:1007E000AEC08839910509F413C189399105ECF43B
:1007F0008837910509F4ABC0893791054CF48836E8
:10080000910509F4A4C08037910509F014C19FC077
:100810008838910509F4FCC08039910509F49DC020
:100820008038910509F007C198C0803B910509F413
:10083000C6C0813B91054CF4803A910509F49FC0F4
:10084000883A910509F0F7C0BAC0803C910509F4D7
:10085000E3C0883C910509F4DFC0883B910509F0AD
:10086000EAC0C2C0809198028093BB00CFC0909133
:10087000BF028091C002981768F49091BF02E92FDF
:10088000F0E0E156FD4F80818093BB009F5F909325
:10089000BF02BCC080919902882309F44BC085ED4A
:1008A0008093BC008091BC0084FDFCCFC2C080E27C
:1008B0008093040385ED8093BC008091BC0084FD8F
:1008C000FCCFB7C080E38093040385ED8093BC0028
:1008D0008091BC0084FDFCCFACC088E3809304030E
:1008E0009BC08091BF029091BB00E82FF0E0E156E1
:1008F000FD4F90838F5F8093BF029091BF028091E4
:10090000C00282C08091BF029091BB00E82FF0E04E
:10091000E156FD4F90838F5F8093BF0280919902D3
:10092000882341F085ED8093BC008091BC0084FD5C
:10093000FCCF7FC081E080939A0284EA6EC085ED8F
:100940008093BC008091BC0084FDFCCF72C083E02A
:10095000809397021092030359C080910303803261
:1009600008F056C0809103039091BB00E82FF0E09F
:10097000ED51FD4F90838F5F8093030347C08091BB
:100980000303803230F4E0910303F0E0ED51FD4FBA
:10099000108285ED8093BC008091BC0084FDFCCF6B
:1009A0001092970260910303E0919D02F0919E02E4
:1009B00083EE92E070E00995109203032DC084E06D
:1009C000809397021092E1021092E202E0919B0262
:1009D000F0919C0209958091E202882329F481E03C
:1009E0008093E2021092C1029091E102E92FF0E0BF
:1009F000EF53FD4F80818093BB009F5F9093E10296
:100A00009091E1028091E202981710F485EC01C008
:100A100085E88093BC000FC085EC8093BC0009C0C2
:100A20001092040385ED8093BC008091BC0084FD8E
:100A3000FCCF10929702FF91EF91BF91AF919F91E0
:100A40008F917F916F915F914F913F912F910F9077
:100A50000FBE0F901F9018951092970281E080931F
:100A6000990210929A0282E161E00E94690883E192
:100A700061E00E946908E9EBF0E080818E7F80836D
:100A800080818D7F808388E48093B80085E48093A3
:100A9000BC0008950895FC0186E192E09183808373
:100AA000458B568B678B708F0895EF92FF920F9353
:100AB0001F937C018B0188E2FB0111928A95E9F773
:100AC000CB0164EE71E04BE050E00E94A500F8011C
:100AD000138681E090E0A0E0B0E084879587A68748
:100AE000B787F70185899689A789B08DF801808B32
:100AF000918BA28BB38B82E090E0A0E0B0E0848B7E
:100B0000958BA68BB78B14A215A216A217A280E014
:100B100090E0A8E4B4E4808F918FA28FB38F80E03F
:100B200090E0A8E4B4EC848F958FA68FB78F8DECFE
:100B30009CECACE4BEE380A391A3A2A3B3A31F915A
:100B40000F91FF90EF9008959F92AF92BF92CF9236
:100B5000DF92EF92FF920F931F93CF93DF93EC01FD
:100B60008BE892E06EE10E94FD018BE892E063E089
:100B70000E947F028BE892E00E94C2028BE892E022
:100B80006EE146E00E94D3028BE892E00E940702E9
:100B90000697D4F38BE892E00E941002A82E8BE80F
:100BA00092E00E941002E82E8BE892E00E94100270
:100BB000982E8BE892E00E941002C82E8BE892E0FB
:100BC0000E941002B82E8BE892E00E941002082FBB
:100BD0007A2D60E0FF246E297F29882777FD809594
:100BE000982F0E94800E6D837E838F8398877B2D44
:100BF00060E010E0602B712B882777FD8095982F9F
:100C00000E94800E69877A878B879C87792D60E0A8
:100C1000DD246C297D29882777FD8095982F0E94F7
:100C2000800E6D877E878F87988B80E090E0A0E0B4
:100C3000B0E0898B9A8BAB8BBC8BDF91CF911F91EE
:100C40000F91FF90EF90DF90CF90BF90AF909F906B
:100C50000895AF92BF92CF92DF92EF92FF920F93DF
:100C60001F935C018B0184E2FB0111928A95E9F7E5
:100C7000C5010E94A40584E290E0A0E0B0E0F80184
:100C800080839183A283B383F50185899689A7899F
:100C9000B08DF80184839583A683B78382E090E0CA
:100CA000A0E0B0E080879187A287B387108A118A7D
:100CB000128A138AC090FA01D090FB01E090FC01E7
:100CC000F090FD01F5016581768187819085A7010E
:100CD00096010E94E50D20E030E048EC52E40E94CD
:100CE000600FF801648B758B868B978BF50161859E
:100CF000728583859485A70196010E94E50D20E009
:100D000030E048EC52E40E94600FF801608F718F70
:100D1000828F938FF50165857685878590892091EF
:100D2000FE013091FF0140910002509101020E94AA
:100D3000E50D20E030E048EC52E40E94600FF8013D
:100D4000648F758F868F978F1F910F91FF90EF9013
:100D5000DF90CF90BF90AF900895EF92FF920F93E6
:100D60001F93F42EE22E0BE812E0C8010E94FD0151
:100D7000C8016F2D0E947F02C8016E2D0E947F0264
:100D8000C8010E94C2021F910F91FF90EF90089539
:100D90000F931F93CF93DF938C01EB016EE141E042
:100DA0002C2F0E94AD06F801D483C383C038D1052F
:100DB00009F44DC0C138D10554F4C034D10529F12E
:100DC000C036D10599F1A09709F08CC00DC0C03C88
:100DD000D10509F45EC0C03ED10509F46BC0C03A2C
:100DE000D10509F07FC044C080E090E8A9E8B4E4F0
:100DF0008093FA019093FB01A093FC01B093FD0155
:100E000080E090E0A5E7B4E465C080E090ECA5E563
:100E1000B4E48093FA019093FB01A093FC01B0939A
:100E2000FD0180E090E0AEE3B4E454C080E090E8DF
:100E3000A7E2B4E48093FA019093FB01A093FC0134
:100E4000B093FD0180E090E0A6E1B4E443C080E00F
:100E500090E0A1EEB3E48093FA019093FB01A0939C
:100E6000FC01B093FD0180E090E0A8ECB3E432C057
:100E700080E090E0A8ECB3E48093FA019093FB014A
:100E8000A093FC01B093FD0180E090E0AFE7B3E4F4
:100E900021C080E090E0A5EAB3E48093FA0190934A
:100EA000FB01A093FC01B093FD0180E090E8A3E971
:100EB000B3E410C080E090E0A6E6B3E48093FA01CA
:100EC0009093FB01A093FC01B093FD0180E090E0C2
:100ED000ADE4B3E48093FE019093FF01A093000280
:100EE000B0930102DF91CF911F910F9108950F935D
:100EF0001F938C018BE892E00E94D702C8016EE13B
:100F000042E020E00E94AD06C80160E270E00E946D
:100F1000C80681E01F910F9108951F920F920FB69E
:100F20000F9211242F933F938F939F93AF93BF936F
:100F30008091090390910A03A0910B03B0910C03D7
:100F400030910D030196A11DB11D232F2D5F2D376B
:100F500020F02D570196A11DB11D20930D03809304
:100F6000090390930A03A0930B03B0930C038091A1
:100F7000050390910603A0910703B0910803019621
:100F8000A11DB11D8093050390930603A093070351
:100F9000B0930803BF91AF919F918F913F912F9193
:100FA0000F900FBE0F901F9018959B01AC017FB75B
:100FB000F8948091050390910603A0910703B091E6
:100FC000080366B5A89B05C06F3F19F00196A11DE7
:100FD000B11D7FBFBA2FA92F982F8827860F911D8B
:100FE000A11DB11D62E0880F991FAA1FBB1F6A9542
:100FF000D1F7BC012DC0FFB7F89480910503909103
:101000000603A0910703B0910803E6B5A89B05C0AD
:10101000EF3F19F00196A11DB11DFFBFBA2FA92FF7
:10102000982F88278E0F911DA11DB11DE2E0880F1A
:10103000991FAA1FBB1FEA95D1F7861B970B885EE5
:101040009340C8F2215030404040504068517C4F9E
:10105000211531054105510571F60895789484B53F
:10106000826084BD84B5816084BD85B5826085BDA4
:1010700085B5816085BDEEE6F0E08081816080838A
:10108000E1E8F0E01082808182608083808181606D
:101090008083E0E8F0E0808181608083E1EBF0E034
:1010A000808184608083E0EBF0E0808181608083D8
:1010B000EAE7F0E0808184608083808182608083C1
:1010C0008081816080838081806880831092C100EC
:1010D0000895482F50E0CA0185529F4FFC0124918A
:1010E000CA0189539F4FFC0194914D545F4FFA01FF
:1010F0003491332309F440C0222351F1233071F09D
:10110000243028F42130A1F0223011F514C026300B
:10111000B1F02730C1F02430D9F404C080918000B0
:101120008F7703C0809180008F7D8093800010C0F6
:1011300084B58F7702C084B58F7D84BD09C080914E
:10114000B0008F7703C08091B0008F7D8093B00096
:10115000E32FF0E0EE0FFF1FE156FF4FA591B49192
:101160002FB7F894662321F48C919095892302C0BF
:101170008C91892B8C932FBF089508951F920F9205
:101180000FB60F9211242F933F934F938F939F93FA
:10119000EF93FF938091C00082FD1DC04091C60077
:1011A00020914E0330914F032F5F3F4F2F733070CC
:1011B00080915003909151032817390771F0E09105
:1011C0004E03F0914F03E25FFC4F408330934F0397
:1011D00020934E0302C08091C600FF91EF919F9132
:1011E0008F914F913F912F910F900FBE0F901F90B5
:1011F0001895E091A203F091A303E05CFF4F819169
:10120000919120813181821B930B8F739070892B78
:1012100011F00E94BD0808951F920F920FB60F9211
:1012200011242F933F938F939F93EF93FF932091DC
:101230009203309193038091940390919503281722
:10124000390731F48091C1008F7D8093C10014C0B3
:10125000E0919403F0919503EE5AFC4F2081809128
:1012600094039091950301968F73907090939503DA
:10127000809394032093C600FF91EF919F918F91EB
:101280003F912F910F900FBE0F901F901895AF9226
:10129000BF92DF92EF92FF920F931F93CF93DF9352
:1012A000EC017A018B01DD24403081EE580780E0AB
:1012B000680780E0780711F0DD24D39491E0A92E2F
:1012C000B12CEC89FD89DD2069F0C50108A002C0C0
:1012D000880F991F0A94E2F7808360E079E08DE33C
:1012E00090E005C0108260E874E88EE190E0A8010B
:1012F00097010E94E90F21503040404050405695E0
:1013000047953795279580E12030380720F0DD207C
:1013100011F0DD24D6CFE889F9893083EA89FB8989
:10132000208319A2EE89FF89408121E030E0C901C4
:101330000C8C02C0880F991F0A94E2F7482B408357
:10134000EE89FF894081C9010D8C02C0880F991F69
:101350000A94E2F7482B4083EE89FF894081C90156
:101360000E8C02C0880F991F0A94E2F7482B408325
:10137000EE89FF8980810F8C02C0220F331F0A94EF
:10138000E2F7209528232083DF91CF911F910F91C1
:10139000FF90EF90DF90BF90AF900895DC011C9616
:1013A000ED91FC911D97E05CFF4F2191319180817F
:1013B0009181281B390B2F733070C9010895DC010E
:1013C0001C96ED91FC911D97E05CFF4F20813181CF
:1013D000E054F040DF01AE5BBF4F8D919C911197BF
:1013E0002817390719F42FEF3FEF07C08D919C9113
:1013F000E80FF91F8081282F30E0C9010895DC0132
:101400001C96ED91FC911D97E05CFF4F208131818E
:10141000E054F040DF01AE5BBF4F8D919C9111977E
:101420002817390719F42FEF3FEF10C08D919C91C9
:101430001197E80FF91F20818D919C9111970196CA
:101440008F73907011969C938E9330E0C90108952C
:10145000DC0191968C919197882339F05496ED9107
:10146000FC915597808186FFF9CF91961C92089543
:10147000CF93DF93EC01EE85FF85E05CFF4F208189
:101480003181E054F0402F5F3F4F2F733070DF0108
:10149000AE5BBF4F8D919C91119728173907D1F3FF
:1014A000E05CFF4F80819181E054F040E80FF91F2C
:1014B0006083EE85FF85E05CFF4F31832083EE89FA
:1014C000FF89208181E090E00F8C02C0880F991F76
:1014D0000A94E2F7282B208381E089A3EC89FD8917
:1014E00080818064808381E090E0DF91CF910895D6
:1014F000109299031092980388EE93E0A0E0B0E078
:1015000080939A0390939B03A0939C03B0939D03B5
:1015100080E292E090939703809396038EE093E0AD
:101520009093A3038093A20382E593E09093A50395
:101530008093A40385EC90E09093A7038093A60387
:1015400084EC90E09093A9038093A80380EC90E052
:101550009093AB038093AA0381EC90E09093AD034A
:101560008093AC0382EC90E09093AF038093AE0342
:1015700086EC90E09093B1038093B00384E0809375
:10158000B20383E08093B30387E08093B40385E0E4
:101590008093B50381E08093B6030895CF93DF93E2
:1015A0000E942E080E94D901C9EFD8E00E94BD0018
:1015B0002097E1F30E94F908F9CFCF92DF92EF92E2
:1015C000FF920F931F93CF93DF937C016B018A01EE
:1015D000C0E0D0E00FC0D6016D916D01D701ED9153
:1015E000FC910190F081E02DC7010995C80FD91F2A
:1015F000015010400115110571F7CE01DF91CF9117
:101600001F910F91FF90EF90DF90CF900895EF9290
:10161000FF920F931F938C01DC01ED91FC910190DF
:10162000F081E02D6DE009957C01D801ED91FC91F0
:101630000190F081E02DC8016AE009959C012E0D12
:101640003F1DC9011F910F91FF90EF900895CF9317
:10165000DF93EC016115710519F420E030E00FC053
:10166000DB010D900020E9F71197A61BB70BE8816D
:10167000F9810280F381E02DAD0109959C01C9013A
:10168000DF91CF9108954F925F927F928F929F92B8
:10169000AF92BF92CF92DF92EF92FF920F931F9380
:1016A000DF93CF93CDB7DEB7A1970FB6F894DEBF27
:1016B0000FBECDBF2C01742ECB01223008F42AE0DE
:1016C00019A231E2C32ED12CCC0EDD1E822E99241C
:1016D000AA24BB24672D752FA50194010E94E90F50
:1016E00079018A01C801B701A50194010E94CA0FBE
:1016F000472D461B0894C108D1084A3014F4405DB8
:1017000001C0495CF6014083E114F10401051105B3
:1017100021F07E2C5F2DC801DDCFC201B6010E94F1
:10172000270BA1960FB6F894DEBF0FBECDBFCF91A9
:10173000DF911F910F91FF90EF90DF90CF90BF90BE
:10174000AF909F908F907F905F904F900895DC01B5
:101750002115310541F4ED91FC910190F081E02DCE
:10176000642F099508950E94430B0895CF92DF924C
:10177000EF92FF920F931F93CF93DF93EC016A01D7
:101780007B012115310541F4E881F9810190F08157
:10179000E02D642F09951FC02A303105D1F477FF61
:1017A00017C0E881F9810190F081E02D6DE2099583
:1017B0008C0144275527BA014C195D096E097F0930
:1017C000CE012AE00E94430B9801280F391F04C064
:1017D0002AE00E94430B9C01C901DF91CF911F9128
:1017E0000F91FF90EF90DF90CF900895EF92FF92CE
:1017F0000F931F937C010E94B60B8C01C7010E94BE
:10180000070B9C01200F311FC9011F910F91FF9001
:10181000EF9008950E94270B08957F928F929F92D8
:10182000AF92BF92CF92DF92EF92FF920F931F93EE
:10183000CF93DF934C017A018B01722ECB01BA0159
:10184000A80197010E94C60F882321F0C4016CEE05
:1018500071E021C0C0E0D0E057016801E894D7F8FA
:10186000C601B5012FEF3FEF4FE75FE70E94C60FBC
:10187000882351F4C601B5012FEF3FEF4FE75FE733
:101880000E94E10D181614F0C1E0D0E0219739F064
:10189000C40160EF71E00E94270BEC0193C0C80106
:1018A000B7012FEF3FEF4FE75FE40E94550F181687
:1018B00054F0C801B7012FEF3FEF4FE75FEC0E94F4
:1018C000E10D882324F4C40164EF71E0E4CFC80182
:1018D000B70120E030E040E050E00E94E10D87FDDC
:1018E00003C0C0E0D0E00EC0D401ED91FC910190A6
:1018F000F081E02DC4016DE20995EC0117FB109514
:1019000017F9109520E030E040E05FE3DD240BC0E4
:10191000CA01B90120E030E040E251E40E94E50D47
:101920009B01AC01D394D71498F3C801B7010E946E
:101930001B0D5B016C010E94520E7B018C01C401E6
:10194000B801A7012AE030E00E94A70BC80FD91FF9
:10195000772039F0C40168EF71E00E94270BC80FAF
:10196000D91FC801B7010E947E0E9B01AC01C601C0
:10197000B5010E941A0D24C020E030E040E251E49D
:101980000E94600F7B018C010E944D0E5B016C0177
:10199000CC24B7FCC094DC2CC401B601A5012AE01C
:1019A00030E00E94B60BC80FD91FC601B5010E94D6
:1019B000800E9B01AC01C801B7010E941A0D7A94F8
:1019C0007720D1F6CE01DF91CF911F910F91FF903B
:1019D000EF90DF90CF90BF90AF909F908F907F90CF
:1019E00008950E940D0C0895EF92FF920F931F939C
:1019F0007C010E940D0C8C01C7010E94070B080F8F
:101A0000191FC8011F910F91FF90EF900895EF9259
:101A1000FF920F931F937C010E94270B8C01C7013B
:101A20000E94070B080F191FC8011F910F91FF900B
:101A3000EF9008955058BB27AA270ED0FCC1EDD1D6
:101A400030F0F2D120F031F49F3F11F41EF4BDC10B
:101A50000EF4E095E7FBB3C1E92FFED180F3BA178E
:101A6000620773078407950718F071F49EF516C294
:101A70000EF4E0950B2EBA2FA02D0B01B9019001A9
:101A80000C01CA01A0011124FF27591B99F0593FED
:101A900050F4503E68F11A16F040A22F232F342F35
:101AA0004427585FF3CF469537952795A795F04083
:101AB0005395C9F77EF41F16BA0B620B730B840B98
:101AC000BAF09150A1F0FF0FBB1F661F771F881F50
:101AD000C2F70EC0BA0F621F731F841F48F48795A8
:101AE00077956795B795F7959E3F08F0B3CF939597
:101AF000880F08F09927EE0F9795879508958DD157
:101B000058F080E891E009F49EEF8ED128F040E88B
:101B100051E059F45EEF09C058C1C0C1E92FE07827
:101B20009BD168F3092E052AC1F32617370748070A
:101B3000590738F00E2E07F8E02569F0E025E0643B
:101B40000AC0EF6307F8009407FADB01B9019D01B1
:101B5000DC01CA01AD01EF9347D06DD10AD05F918E
:101B6000552331F02BED3FE049E450FD49EC63CFC4
:101B70000895DF93DD27B92FBF7740E85FE316169E
:101B8000170648075B0710F4D92F93D19F938F93C3
:101B90007F936F93F8D1E8E6F0E01AD14CD12F9102
:101BA0003F914F915F9198D1DD2349F09058A2EA7F
:101BB0002AED3FE049EC5FE3D0785D274DDFDF9110
:101BC0003AC1D9D008F481E008950CD034C12CD1A9
:101BD00040F023D130F021F45F3F19F0F0C05111F3
:101BE0005EC1F3C039D198F39923C9F35523B1F3FA
:101BF000951B550BBB27AA2762177307840738F07C
:101C00009F5F5F4F220F331F441FAA1FA9F333D0DA
:101C10000E2E3AF0E0E830D091505040E695001C8E
:101C2000CAF729D0FE2F27D0660F771F881FBB1F4A
:101C3000261737074807AB07B0E809F0BB0B802D24
:101C4000BF01FF2793585F4F2AF09E3F510568F070
:101C5000B6C025C15F3FECF3983EDCF386957795DF
:101C60006795B795F7959F5FC9F7880F911D969572
:101C7000879597F90895E1E0660F771F881FBB1FCE
:101C8000621773078407BA0720F0621B730B840B7B
:101C9000BA0BEE1F88F7E095089504D06894B1114F
:101CA000FEC00895E1D088F09F5790F0B92F992792
:101CB000B751A0F0D1F0660F771F881F991F1AF057
:101CC000BA95C9F712C0B13081F0E8D0B1E00895FB
:101CD000E5C0672F782F8827B85F39F0B93FCCF37C
:101CE000869577956795B395D9F73EF4909580954D
:101CF000709561957F4F8F4F9F4F0895E89409C06D
:101D000097FB3EF490958095709561957F4F8F4F2E
:101D10009F4F9923A9F0F92F96E9BB279395F69544
:101D2000879577956795B795F111F8CFFAF4BB0FC2
:101D300011F460FF1BC06F5F7F4F8F4F9F4F16C026
:101D4000882311F096E911C0772321F09EE8872FB0
:101D5000762F05C0662371F096E8862F70E060E06C
:101D60002AF09A95660F771F881FDAF7880F9695E5
:101D7000879597F90895990F0008550FAA0BE0E889
:101D8000FEEF16161706E807F907C0F0121613063D
:101D9000E407F50798F0621B730B840B950B39F47D
:101DA0000A2661F0232B242B252B21F408950A26E3
:101DB00009F4A140A6958FEF811D811D089597F923
:101DC0009F6780E870E060E008959FEF80EC0895E1
:101DD000DF93CF931F930F93FF92EF92DF927B01DC
:101DE0008C01689405C0DA2EEF0176D0FE01E894EC
:101DF000A5912591359145915591AEF3EF012CDEDA
:101E0000FE019701A801DA9479F7DF90EF90FF9037
:101E10000F911F91CF91DF91089500240A94161617
:101E2000170618060906089500240A9412161306C8
:101E3000140605060895092E0394000C11F4882356
:101E400052F0BB0F40F4BF2B11F460FF04C06F5F72
:101E50007F4F8F4F9F4F089557FD9058440F551F48
:101E600059F05F3F71F04795880F97FB991F61F01C
:101E70009F3F79F087950895121613061406551F93
:101E8000F2CF4695F1DF08C0161617061806991FFF
:101E9000F1CF86957105610508940895E894BB27F4
:101EA00066277727CB0197F9089565DF08F48FEF50
:101EB00008959B01AC0160E070E080E89FE385CE6F
:101EC0000BD0B9CFAADF28F0AFDF18F0952309F0C7
:101ED00076CF7BCF1124E3CFBFDFA0F3959FD1F363
:101EE000950F50E0551F629FF001729FBB27F00DC8
:101EF000B11D639FAA27F00DB11DAA1F649F66271D
:101F0000B00DA11D661F829F2227B00DA11D621F6B
:101F1000739FB00DA11D621F839FA00D611D221F25
:101F2000749F3327A00D611D231F849F600D211D09
:101F3000822F762F6A2F11249F5750408AF0E1F0AC
:101F400088234AF0EE0FFF1FBB1F661F771F881FF5
:101F500091505040A9F79E3F510570F030CF9FCF70
:101F60005F3FECF3983EDCF3869577956795B795E0
:101F7000F795E7959F5FC1F7FE2B880F911D96950A
:101F8000879597F908959B01AC019ACFF4DE880BF1
:101F9000990B0895629FD001739FF001829FE00D1D
:101FA000F11D649FE00DF11D929FF00D839FF00DD8
:101FB000749FF00D659FF00D9927729FB00DE11D84
:101FC000F91F639FB00DE11DF91FBD01CF01112461
:101FD0000895A1E21A2EAA1BBB1BFD010DC0AA1F6A
:101FE000BB1FEE1FFF1FA217B307E407F50720F082
:101FF000A21BB30BE40BF50B661F771F881F991FFD
:102000001A9469F760957095809590959B01AC0145
:10201000BD01CF010895EE0FFF1F0590F491E02D53
:062020000994F894FFCFC3
:1020260048656164696E67202864656772656573D3
:10203600293A20002D2D2D2D2D2D2D2D2D2D2D2DFB
:102046002D2D2D2D2D2D2D2D2D2D2D2D2D2D2D2DBA
:102056002D2D2D2D2D2D2D2D0053656E736F723A5E
:1020660020202020202020004472697665722056A8
:1020760065723A20202000556E69717565204944C5
:102086003A20202020004D61782056616C75653A13
:102096002020202000207554004D696E2056616C6A
:1020A60075653A20202020005265736F6C7574693F
:1020B6006F6E3A2020200000484D433538383320D3
:1020C6004D61676E65746F6D6574657220546573D6
:1020D60074004F6F6F70732C206E6F20484D433520
:1020E600383833206465746563746564202E2E2E3B
:1020F60020436865636B20796F7572207769726912
:102106006E672100484D4335383833006E616E00E6
:10211600696E66006F7666002E00008089440000B6
:102126007544000000007F024E02070210022502DD
:102136003602000000004A05290655050000000089
:0C214600380ADD0ACE09FF09DF09280A6B
:00000001FF
