:100000000C94B2000C94DA000C94DA000C94EF0318
:100010000C9419040C9443040C94DA000C94DA0048
:100020000C94DA000C94DA000C94DA000C94DA00E8
:100030000C94DA000C94DA000C94DA000C94DA00D8
:100040000C94F6080C94DA000C947E0A0C94CC0AFA
:100050000C94DA000C94DA000C94DA000C94DA00B8
:100060000C94DA000C94DA0000C2010001001100C7
:1000700011000C0000E100000A002500250021000D
:10008000009600001900390039003600127A00008D
:100090001F004600460044008070000022004D0012
:1000A0004D004A00004B00003600750075007200DC
:1000B000403800004A009C009C0099008025000008
:1000C0007200EC00EC00E900C0120000E900DA0167
:1000D000DA01D70160090000D701B603B603B30304
:1000E000B0040000B3036E076E076B0758020000F0
:1000F0006E07DC0EDC0ED80E2C010000DC0EC11DDC
:10010000C11DBE1D00000000240027002A000000C1
:100110000000250028002B0000000000230026001E
:10012000290004040404040404040202020202027A
:1001300003030303030301020408102040800102AB
:10014000040810200102040810200000000700022B
:10015000010000030406000000000000000063012D
:10016000380C5C0111241FBECFEFD8E0DEBFCDBF3D
:1001700012E0A0E0B1E0ECE8F2E202C005900D92DE
:10018000A43BB107D9F714E0A4EBB2E001C01D9283
:10019000A73BB107E1F711E0C2E6D1E004C0229726
:1001A000FE010E943511CE35D107C9F70E948E0C91
:1001B0000C9439110C940000FB01DC0102C0019089
:1001C0000D9241505040D8F70895FB01DC018D910C
:1001D000019080190110D9F3990B0895FB01DC01FE
:1001E00001900D920020E1F70895CF92EF920F93C6
:1001F00081309105E1F56F5F7F4F09F059C084EBC5
:1002000092E066E047E020E00E94D80680ED92E0B0
:100210006CE04BE025E004E053E0E52E32E0C32E35
:100220000E94BD088EEE92E060E071E00E943D0EFB
:1002300085EF92E060E071E00E943D0E8CEF92E06D
:1002400060E071E00E943D0E83E093E060E071E0C9
:100250000E943D0E8EE693E060E071E00E943D0E4C
:1002600085E793E060E071E00E943D0E21C0892B9C
:10027000F9F46F5F7F4FE1F485E793E00E94CE0EC3
:100280008EE693E00E94CE0E83E093E00E94CE0EB5
:100290008CEF92E00E94CE0E85EF92E00E94CE0E8F
:1002A0008EEE92E00E94CE0E84EB92E00E945F05FB
:1002B0000F91EF90CF90089580E090E06FEF7FEF87
:1002C0000E94F500089581E090E06FEF7FEF0E94BB
:1002D000F50008952F923F924F925F926F927F9216
:1002E0008F929F92AF92BF92CF92DF92EF92FF9246
:1002F0000F931F93DF93CF93CDB7DEB76C970FB6F5
:10030000F894DEBF0FBECDBF0E943E091B012C0139
:100310003E010894611C711C18E0812E912C8C0EFA
:100320009D1E60C184EB92E00E946805182F843204
:1003300079F521E02093E502EEE3F1E080E281939C
:1003400022E0EE37F207D1F7EAE0F3E011921192E2
:1003500083E0EE36F807D1F71092E7021092E6023A
:100360001092E9021092E8021092EB021092EA0257
:100370001092ED021092EC028EEE92E060E071E0DD
:100380000E94570E85EF92E060E071E00E94570EE8
:100390008091E502882369F08091E6029091E7025E
:1003A000FC01E25CFE4F108301969093E70280937C
:1003B000E6021D3009F00FC11092E5024091EA02F9
:1003C0005091EB026091EC027091ED0220E030E080
:1003D000F901E25CFE4F9081F901E05DFE4F808102
:1003E000981711F44F5F5F4FF901E95CFE4F808170
:1003F000981711F46F5F7F4F2F5F3F4F2630310505
:1004000039F74093EA025093EB027093ED02609348
:10041000EC024630510509F0C7C0B5E4EB2EB1E05F
:10042000FB2E07E010E023C08EEE92E0F701608122
:100430000E94F70DF70180818C32A1F48091E802CF
:100440009091E902FC01EE0FFF1FE65FFC4F0750A1
:10045000104011830083095F1F4F01969093E902BA
:100460008093E8020F5F1F4F0894E11CF11C8091FC
:10047000E6029091E70208171907B4F220910A03E7
:1004800030910B0323503040C3016EEE72E040E028
:1004900050E00E94700E8CEF92E0B3010E94B70E04
:1004A000C3010E94CE0E40910A0350910B034F5F8F
:1004B0005F4F20910C0330910D03C4016EEE72E08A
:1004C0000E94700E83E093E0B4010E94B70EC40155
:1004D0000E94CE0E40910C0350910D034F5F5F4F71
:1004E00020910E0330910F03C5016EEE72E00E9461
:1004F000700E8EE693E0B5010E94B70EC5010E9412
:10050000CE0E40911003509111034F5F5F4F209129
:10051000120330911303C6016EEE72E00E94700E5A
:1005200085E793E0B6010E94B70EC6010E94CE0E89
:1005300081E994E061E071E00E94030D81E994E0BB
:100540006EEE72E00E944C0D80ED92E060E040E0C3
:100550000E94D00780ED92E06EE673E00E94190DD4
:1005600080ED92E060E041E00E94D00780ED92E0F3
:1005700065E773E00E94190D81E994E067E071E09E
:100580000E94030D81E994E06EE673E00E944C0D39
:1005900081E994E06DE071E00E94030D81E994E04F
:1005A00065E773E00E944C0D8091EC029091ED02A2
:1005B000069789F481E994E063E171E00E94060DF9
:1005C0000AC07FE0A72EB12CAC0EBD1E66E1C62E80
:1005D000D12CCC0EDD1E84EB92E00E948905892B84
:1005E00009F0A0CE0E943E09621973098409950999
:1005F000685E73408040904020F383E093E067E1C1
:1006000071E00E94710D882321F080912E0160E03D
:1006100003C080912E0161E00E94290A81E994E0E3
:1006200063E073E00E944C0D80ED92E06CE041E0ED
:100630000E94D00780ED92E063E073E00E94190D04
:100640006C960FB6F894DEBF0FBECDBFCF91DF9191
:100650001F910F91FF90EF90DF90CF90BF90AF90E0
:100660009F908F907F906F905F904F903F902F90D2
:10067000089581E994E040E05BE460E070E00E946E
:10068000070B84EB92E040E056E960E070E00E94E6
:100690006D0480ED92E060E142E020E00E940708F6
:1006A00080ED92E060E040E00E94D00780ED92E0B3
:1006B0000E94FF0780ED92E069E171E00E94030D66
:1006C00068EC70E080E090E00E944C0980912E017F
:1006D00061E00E94EA0980912E0160E00E94290AEF
:1006E000EEE3F1E080E2819392E0EE37F907D9F78B
:1006F000EAE0F3E01192119283E0EE36F807D1F7C9
:1007000080ED92E00E94FF0708950F931F93CF930F
:10071000DF93FC01738D76957170A685B7859585FD
:10072000772329F08C91892309F454C004C08C915B
:10073000892309F04FC08389948920E001972FEF26
:100740008F3F9207D9F7C589D689A685B7851585C4
:1007500060E031E040E050E000E0CE01202F019762
:100760002FEF8F3F9207D9F78C91812311F0632BE4
:1007700003C0832F80956823330F4F5F5F4F48304E
:10078000510559F78789908D20E001972FEF8F3F12
:100790009207D9F7711160958091FE032091FF03B4
:1007A00090E001968F77907030E08217930779F090
:1007B000E091FE03F0E0E258FC4F60838091FE037D
:1007C00090E001968F7790708093FE0303C0838D35
:1007D0008160838FDF91CF911F910F9108951F92B8
:1007E0000F920FB60F9211242F933F934F935F9365
:1007F0006F937F938F939F93AF93BF93EF93FF93E9
:1008000080917C0390917D03009711F00E948503F5
:10081000FF91EF91BF91AF919F918F917F916F91D8
:100820005F914F913F912F910F900FBE0F901F90AE
:1008300018951F920F920FB60F9211242F933F938A
:100840004F935F936F937F938F939F93AF93BF93D8
:10085000EF93FF9380917C0390917D03009711F0BB
:100860000E948503FF91EF91BF91AF919F918F916E
:100870007F916F915F914F913F912F910F900FBE9C
:100880000F901F9018951F920F920FB60F92112480
:100890002F933F934F935F936F937F938F939F9388
:1008A000AF93BF93EF93FF9380917C0390917D036F
:1008B000009711F00E948503FF91EF91BF91AF91D6
:1008C0009F918F917F916F915F914F913F912F9168
:1008D0000F900FBE0F901F901895CF92DF92EF925E
:1008E000FF920F931F93CF93DF93EC017A018B015B
:1008F0001A8E198E188E1F8A1E8A1D8A1C8A1B8AC0
:1009000020E030E06901CC0CDD1CC20ED31EB60124
:10091000660F771F660F771FAB0148595F4FFA01CB
:1009200085919591A591B4918E159F05A007B1076A
:10093000E9F4FB01E459FF4F859194919C8B8B8BDB
:10094000FB01E259FF4F859194919E8B8D8BFB01AA
:10095000E059FF4F85919491988F8F8BFB01EE5852
:10096000FF4F859194919A8F898F06C02F5F3F4FDB
:100970002D30310509F0C6CF8F89988D892B09F468
:1009800049C04C85463108F03DC090916800483020
:1009900010F484E005C04E3010F082E001C081E028
:1009A000892B80936800483028F4EDE6F0E0ADE64E
:1009B000B0E00BC04E3028F0ECE6F0E0ACE6B0E082
:1009C00004C0EBE6F0E0ABE6B0E05081483040F424
:1009D00081E090E002C0880F991F4A95E2F710C0AD
:1009E000242F30E04E3018F42850304002C02E50F2
:1009F000304081E090E002C0880F991F2A95E2F70D
:100A0000852B8C93898D9A8D20E001972FEF8F3F56
:100A10009207D9F780917C0390917D038C179D07F5
:100A200081F08B8D8E7F8B8F9FB7F8941092FE0391
:100A30008091FE038093FF03D0937D03C0937C03DA
:100A40009FBFDF91CF911F910F91FF90EF90DF90AB
:100A5000CF900895FC014485463180F5483028F454
:100A6000EDE6F0E0ADE6B0E00BC04E3028F4EBE68A
:100A7000F0E0ABE6B0E004C0ECE6F0E0ACE6B0E0FD
:100A80005081483040F481E090E002C0880F991F07
:100A90004A95E2F710C0242F30E04E3018F4285069
:100AA000304002C02E50304081E090E002C0880FFC
:100AB000991F2A95E2F7809585238C930895FC0170
:100AC00088E892E091838083CF010E942A050895EF
:100AD00020917C0330917D032817390731F49091E0
:100AE000FF038091FE03981719F42FEF3FEF0FC01B
:100AF000E091FF03F0E0E258FC4F20818091FF037A
:100B000090E001968F7790708093FF0330E0C901E9
:100B1000089520917C0330917D032817390719F03F
:100B200020E030E00EC08091FE032091FF0390E0B2
:100B300080589F4F821B910960E870E00E94EA1084
:100B40009C01C90108950F931F93DC0159968D9163
:100B50009C915A97892B49F481E090E013969C93DD
:100B60008E93129720E030E097C00FB7F8945B9611
:100B70008C915B975196ED91FC91529750962C91E8
:100B8000509781FF8DC08081822B808359968D91F3
:100B90009C915A97059620E001972FEF8F3F92077F
:100BA000D9F75B968C915B9781FF35C031E040E0CF
:100BB00050E070E010E0832F90E086239723519659
:100BC000ED91FC91529750962C915097892B29F0DA
:100BD000808120952823208303C08081822B8083FD
:100BE00059968D919C915A97212F01972FEF8F3F06
:100BF0009207D9F7330F4F5F5F4F48305105D9F651
:100C00005196ED91FC915297908150968C9150970E
:100C10008095892333C031E040E050E070E010E07F
:100C2000832F90E0862397235196ED91FC91529764
:100C300050962C915097892B21F08081822B8083B4
:100C400004C0808120952823208359968D919C9102
:100C50005A97212F01972FEF8F3F9207D9F7330F24
:100C60004F5F5F4F48305105D9F65196ED91FC9199
:100C70005297808150969C915097892B80830FBF0B
:100C800059968D919C915A9720E001972FEF8F3FB5
:100C90009207D9F721E030E0C9011F910F91089523
:100CA000808120952823208371CF20917C0330916F
:100CB0007D032817390749F49FB7F8941092FE0373
:100CC0008091FE038093FF039FBF089520917C03D2
:100CD00030917D032817390731F49091FF038091FB
:100CE000FE03981719F42FEF3FEF0AC0E091FF03BE
:100CF000F0E0E258FC4F8081282F332727FD309504
:100D0000C90108951F93CF93DF93EC01162F862F0F
:100D100060E00E94EA098B8D81FD04C0812F61E0B3
:100D20000E94290A1C87212F30E0C9018A5C9E4F4E
:100D3000FC0184918D872E5D3E4FF9016491E62F71
:100D4000F0E0EE0FFF1FE85EFE4F859194919F87C4
:100D50008E87DF91CF911F910895FF920F931F937C
:100D60008C01F62E862F61E00E94EA098F2D61E04A
:100D70000E94290A8F2D90E0FC01EA5CFE4FE4916D
:100D8000D8015096EC9350978E5D9E4FFC01649174
:100D9000E62FF0E0EE0FFF1FE25FFE4F859194918A
:100DA00052969C938E9351971F910F91FF900895A7
:100DB000FF920F931F938C01F62EFC011382128277
:100DC00088EE93E0A0E0B0E084839583A683B783A8
:100DD00088E892E091838083148A138A168A158AA0
:100DE000108E178A128E118E838D2170220F8C7FA8
:100DF000822B838FC801642F0E94AD06C8016F2D1E
:100E00000E9482061F910F91FF9008950F931F93E8
:100E10008C01FC01868160E00E94290A81E090E05B
:100E20000E94A509F801868161E00E94290A81E0FB
:100E300090E00E94A509F801868160E00E94290ADD
:100E400084E690E00E94A5091F910F910895CF922A
:100E5000DF92EF92FF920F931F93CF93DF93D82EE1
:100E6000C92E282F392FC9018C01C0E0D0E0E62E11
:100E7000FF24F801878161E00E94EA09B7010C2E86
:100E800002C0759567950A94E2F76170F801878151
:100E90000E94290A21960F5F1F4FC830D10549F7DC
:100EA0008D2D9C2D0E940607DF91CF911F910F91F0
:100EB000FF90EF90DF90CF900895CF92DF92EF9266
:100EC000FF920F931F93CF93DF93D82EC92E282F15
:100ED000392FC9018C01C0E0D0E0E62EFF24F801D3
:100EE000878161E00E94EA09B7010C2E02C0759566
:100EF00067950A94E2F76170F80187810E94290AD8
:100F000021960F5F1F4FC430D10549F78D2D9C2DC1
:100F10000E940607DF91CF911F910F91FF90EF90F4
:100F2000DF90CF9008951F93CF93DF93EC01162F9E
:100F30008C81642F0E94290A8D818F3F19F060E017
:100F40000E94290A8F8584FF05C0CE01612F0E946F
:100F500027070EC0612F70E084E0759567958A952C
:100F6000E1F7CE010E945D07CE01612F0E945D076F
:100F7000DF91CF911F91089541E00E94930781E096
:100F800090E0089540E00E9493070895FC01608975
:100F9000862F8460808B6C60CF010E94C207089509
:100FA000DF93CF93CDB7DEB728970FB6F894DEBFA7
:100FB0000FBECDBF9C01FE013196ACE9B2E088E0E6
:100FC0000D9001928150E1F7F9018389481710F0E3
:100FD000482F4150E42FF0E0EE0FFF1FEC0FFD1FF4
:100FE0008181680F6068C9010E94C20728960FB608
:100FF000F894DEBF0FBECDBFCF91DF91089561E0C1
:101000000E94C20780ED97E00E94A5090895CF9342
:10101000DF93EC01423018F08F8588608F874B8B0F
:101020001C8A222329F0413019F48F8584608F8730
:1010300080E593EC0E94A5098C8160E00E94290A5A
:101040008E8160E00E94290A8D818F3F19F060E057
:101050000E94290A6F8564FD1DC0CE0163E00E94D5
:101060005D0784E991E10E94A509CE0163E00E9439
:101070005D0784E991E10E94A509CE0163E00E9429
:101080005D0786E990E00E94A509CE0162E00E941A
:101090005D0716C06062CE010E94C20784E991E13B
:1010A0000E94A5096F856062CE010E94C20786E991
:1010B00090E00E94A5096F856062CE010E94C20780
:1010C0006F856062CE010E94C20784E0888BCE01EA
:1010D0000E94C607CE010E94FF0782E0898BCE01E5
:1010E00066E00E94C207DF91CF9108956F927F92D0
:1010F0008F92AF92CF92EF920F931F93DF93CF9384
:10110000CDB7DEB73C01162F842FF301448325832E
:101110000683E782C086A18682869D8593879E8509
:1011200094879F8595879889968761E00E94EA0950
:10113000F30185818F3F19F061E00E94EA09F30114
:10114000868161E00E94EA09112319F0F3011786F4
:1011500003C080E1F3018787C30160E141E020E043
:101160000E940708CF91DF911F910F91EF90CF90D0
:10117000AF908F907F906F9008958F92AF92CF92A3
:10118000EF920F931F93CF93DF93DC01362F542FF1
:10119000722F102FAE2C8C2C13961C921E9212972D
:1011A00088E992E011969C938E9300D000D0EDB721
:1011B000FEB73196CDB7DEB7198211821282138243
:1011C000CD0161E0432F2FEF052FE72EC12E0E94A6
:1011D00076080F900F900F900F90DF91CF911F9195
:1011E0000F91EF90CF90AF908F9008951F920F9234
:1011F0000FB60F9211242F933F938F939F93AF932A
:10120000BF938091040490910504A0910604B091CD
:101210000704309108040196A11DB11D232F2D5FF5
:101220002D3720F02D570196A11DB11D20930804E4
:101230008093040490930504A0930604B0930704DC
:101240008091000490910104A0910204B0910304E4
:101250000196A11DB11D8093000490930104A093F9
:101260000204B0930304BF91AF919F918F913F917E
:101270002F910F900FBE0F901F9018958FB7F89475
:101280002091040430910504409106045091070414
:101290008FBFB901CA0108959B01AC017FB7F894D3
:1012A0008091000490910104A0910204B091030484
:1012B00066B5A89B05C06F3F19F00196A11DB11D31
:1012C0007FBFBA2FA92F982F8827860F911DA11DA8
:1012D000B11D62E0880F991FAA1FBB1F6A95D1F745
:1012E000BC012DC0FFB7F8948091000490910104D7
:1012F000A0910204B0910304E6B5A89B05C0EF3F9E
:1013000019F00196A11DB11DFFBFBA2FA92F982F6B
:1013100088278E0F911DA11DB11DE2E0880F991F36
:10132000AA1FBB1FEA95D1F7861B970B885E9340D7
:10133000C8F2215030404040504068517C4F211548
:1013400031054105510571F60895019739F0880F6F
:10135000991F880F991F02970197F1F708957894C4
:1013600084B5826084BD84B5816084BD85B58260AA
:1013700085BD85B5816085BDEEE6F0E08081816048
:101380008083E1E8F0E01082808182608083808148
:1013900081608083E0E8F0E0808181608083E1EB20
:1013A000F0E0808184608083E0EBF0E08081816008
:1013B0008083EAE7F0E080818460808380818260BE
:1013C00080838081816080838081806880831092A7
:1013D000C1000895CF93DF93482F50E0CA018A5C83
:1013E0009E4FFC0134914E5D5E4FFA01849188233B
:1013F00069F190E0880F991FFC01EC5FFE4FA59109
:10140000B491FC01E25FFE4FC591D491662351F483
:101410002FB7F8948C91932F909589238C93888182
:1014200089230BC0623061F42FB7F8948C91932F0D
:10143000909589238C938881832B88832FBF06C046
:101440009FB7F8948C91832B8C939FBFDF91CF91A2
:101450000895482F50E0CA01865B9E4FFC012491FD
:10146000CA018A5C9E4FFC0194914E5D5E4FFA0169
:101470003491332309F440C0222351F1233071F019
:10148000243028F42130A1F0223011F514C0263088
:10149000B1F02730C1F02430D9F404C0809180002D
:1014A0008F7703C0809180008F7D8093800010C073
:1014B00084B58F7702C084B58F7D84BD09C08091CB
:1014C000B0008F7703C08091B0008F7D8093B00013
:1014D000E32FF0E0EE0FFF1FE25FFE4FA591B49106
:1014E0002FB7F894662321F48C919095892302C03C
:1014F0008C91892B8C932FBF089508951F920F9282
:101500000FB60F9211242F933F934F938F939F9376
:10151000EF93FF938091C00082FD1DC04091C600F3
:101520002091490430914A042F5F3F4F2F73307050
:1015300080914B0490914C042817390771F0E09189
:101540004904F0914A04E75FFB4F408330934A041B
:101550002093490402C08091C600FF91EF919F91B2
:101560008F914F913F912F910F900FBE0F901F9031
:101570001895E0919D04F0919E04E05CFF4F8191ED
:10158000919120813181821B930B8F739070892BF5
:1015900011F00E947D0A08951F920F920FB60F92CC
:1015A00011242F933F938F939F93EF93FF93209159
:1015B0008D0430918E0480918F04909190042817AF
:1015C000390731F48091C1008F7D8093C10014C030
:1015D000E0918F04F0919004E35BFB4F20818091B8
:1015E0008F049091900401968F7390709093900463
:1015F00080938F042093C600FF91EF919F918F916C
:101600003F912F910F900FBE0F901F901895AF92A2
:10161000BF92DF92EF92FF920F931F93CF93DF93CE
:10162000EC017A018B01DD24403081EE580780E027
:10163000680780E0780711F0DD24D39491E0A92EAB
:10164000B12CEC89FD89DD2069F0C50108A002C03C
:10165000880F991F0A94E2F7808360E079E08DE3B8
:1016600090E005C0108260E874E88EE190E0A80187
:1016700097010E94FD102150304040405040569547
:1016800047953795279580E12030380720F0DD20F9
:1016900011F0DD24D6CFE889F9893083EA89FB8906
:1016A000208319A2EE89FF89408121E030E0C90141
:1016B0000C8C02C0880F991F0A94E2F7482B4083D4
:1016C000EE89FF894081C9010D8C02C0880F991FE6
:1016D0000A94E2F7482B4083EE89FF894081C901D3
:1016E0000E8C02C0880F991F0A94E2F7482B4083A2
:1016F000EE89FF8980810F8C02C0220F331F0A946C
:10170000E2F7209528232083DF91CF911F910F913D
:10171000FF90EF90DF90BF90AF900895DC011C9692
:10172000ED91FC911D97E05CFF4F219131918081FB
:101730009181281B390B2F733070C9010895DC018A
:101740001C96ED91FC911D97E05CFF4F208131814B
:10175000E054F040DF01AE5BBF4F8D919C9111973B
:101760002817390719F42FEF3FEF07C08D919C918F
:10177000E80FF91F8081282F30E0C9010895DC01AE
:101780001C96ED91FC911D97E05CFF4F208131810B
:10179000E054F040DF01AE5BBF4F8D919C911197FB
:1017A0002817390719F42FEF3FEF10C08D919C9146
:1017B0001197E80FF91F20818D919C911197019647
:1017C0008F73907011969C938E9330E0C9010895A9
:1017D000DC0191968C919197882339F05496ED9184
:1017E000FC915597808186FFF9CF91961C920895C0
:1017F000CF93DF93EC01EE85FF85E05CFF4F208106
:101800003181E054F0402F5F3F4F2F733070DF0184
:10181000AE5BBF4F8D919C91119728173907D1F37B
:10182000E05CFF4F80819181E054F040E80FF91FA8
:101830006083EE85FF85E05CFF4F31832083EE8976
:10184000FF89208181E090E00F8C02C0880F991FF2
:101850000A94E2F7282B208381E089A3EC89FD8993
:1018600080818064808381E090E0DF91CF91089552
:10187000109294041092930488EE93E0A0E0B0E0FC
:101880008093950490939604A0939704B093980442
:1018900088EA92E0909392048093910489E094E026
:1018A00090939E0480939D048DE494E09093A00413
:1018B00080939F0485EC90E09093A2048093A10410
:1018C00084EC90E09093A4048093A30480EC90E0D7
:1018D0009093A6048093A50481EC90E09093A804D3
:1018E0008093A70482EC90E09093AA048093A904CB
:1018F00086EC90E09093AC048093AB0484E08093FA
:10190000AD0483E08093AE0487E08093AF0485E06C
:101910008093B00481E08093B1040895CF93DF9366
:101920000E94AF090E943903C9EBDAE00E946A0104
:101930002097E1F30E94B90AF9CFCF92DF92EF929C
:10194000FF920F931F93CF93DF937C016B018A016A
:10195000C0E0D0E00FC0D6016D916D01D701ED91CF
:10196000FC910190F081E02DC7010995C80FD91FA6
:10197000015010400115110571F7CE01DF91CF9193
:101980001F910F91FF90EF90DF90CF900895EF920D
:10199000FF920F931F938C01DC01ED91FC9101905C
:1019A000F081E02D6DE009957C01D801ED91FC916D
:1019B0000190F081E02DC8016AE009959C012E0D8F
:1019C0003F1DC9011F910F91FF90EF900895CF9394
:1019D000DF93EC016115710519F420E030E00FC0D0
:1019E000DB010D900020E9F71197A61BB70BE881EA
:1019F000F9810280F381E02DAD0109959C01C901B7
:101A0000DF91CF9108950E94E70C0895EF92FF9225
:101A10000F931F937C010E94E70C8C01C7010E9469
:101A2000C70C080F191FC8011F910F91FF90EF906D
:101A30000895AF92BF92CF92DF92EF92FF920F93F1
:101A40001F93CF93DF935C016B01EE24FF24C0E072
:101A5000D0E010C0D501ED91FC9100811181C6014B
:101A6000BE010E94600D682FC501F8010995E80EBE
:101A7000F91E2196F60184819581C817D90750F384
:101A8000C701DF91CF911F910F91FF90EF90DF90F1
:101A9000CF90BF90AF900895EF92FF920F931F9356
:101AA0007C010E94190D8C01C7010E94C70C9C018A
:101AB000200F311FC9011F910F91FF90EF900895E2
:101AC000FC01848195816817790748F40190F081C1
:101AD000E02D309721F0E60FF71F8081089580E018
:101AE0000895DC01FB0114968D919C911597892B2B
:101AF00031F461157105A9F090E0808108C00D9066
:101B0000BC91A02D6115710529F490E08C9188237A
:101B100049F407C0CD010E94E5009C0190E0232B11
:101B200009F491E0892F08950F931F93CF93DF93CA
:101B3000EC018B016F5F7F4F888199810E940910B2
:101B4000009711F480E005C0998388831B830A8382
:101B500081E0DF91CF911F910F910895CF93DF9393
:101B6000EC0188819981892B29F08A819B818617D4
:101B7000970760F4CE010E94940D882341F08C8178
:101B80009D81892B19F4E881F981108281E0DF9130
:101B9000CF910895EF92FF920F931F93CF93DF930E
:101BA000EC017B016C817D81E114F104C1F04115F0
:101BB000510599F08A01060F171FB8010E94AE0D5A
:101BC000882369F0888199812C813D81820F931F40
:101BD000B7010E94EE001D830C8381E001C080E00C
:101BE000DF91CF911F910F91FF90EF900895DF93B8
:101BF000CF9300D0CDB7DEB769831A82BE016F5F85
:101C00007F4F41E050E00E94CA0D0F900F90CF919E
:101C1000DF910895CF93DF93EC018881998100973C
:101C200011F00E94710F198218821D821C821B8282
:101C30001A82DF91CF910895EF92FF920F931F9335
:101C4000CF93DF93EC017B018A01BA010E94AE0DB4
:101C5000882321F4CE010E940A0E07C01D830C8345
:101C600088819981B7010E94EE00CE01DF91CF916A
:101C70001F910F91FF90EF900895CF93DF93EC01A8
:101C8000198218821B821A821D821C821E82611593
:101C9000710551F0DB010D900020E9F71197A61BAB
:101CA000B70BAD010E941C0EDF91CF9108950F93E9
:101CB0001F93182F092F6115710559F0DB010D9045
:101CC0000020E9F71197A61BB70BAD010E941C0E6F
:101CD00002C00E940A0E812F902F1F910F9108952C
:101CE000BF92CF92DF92EF92FF920F931F93CF9309
:101CF000DF93082FB92E6B017A01E901241735070C
:101D000010F4EA017901802F9B2D6DE271E00E94B1
:101D10003D0ED60114968D919C9115978E159F05B9
:101D2000D0F08C179D0708F4EC01D601ED91FC91E1
:101D30001197EC0FFD1F108110826D917C916E0D3B
:101D40007F1D802F9B2D0E94570ED601ED91FC9197
:101D5000EC0FFD1F1083802F9B2DDF91CF911F91E2
:101D60000F91FF90EF90DF90CF90BF900895CF93A9
:101D7000DF93EC01FB018617970761F060817181A9
:101D80006115710529F0448155810E941C0E02C025
:101D90000E940A0ECE01DF91CF910895FC0180814F
:101DA00091810E94710F08950F931F93CF93DF933A
:101DB000BC018230910510F462E070E0E091B5045E
:101DC000F091B60440E050E0A0E0B0E024C0808193
:101DD000918186179707D0F08617970771F4828153
:101DE0009381109729F013969C938E9312972CC091
:101DF0009093B6048093B50427C04115510519F09E
:101E00008417950718F48D01AC01EF01DF01828181
:101E100093819C01F9013097D1F641155105F9F0F4
:101E2000CA01861B970B8430910580F48A819B81BF
:101E30000115110521F0F8019383828304C090936A
:101E4000B6048093B504FE01329645C0FE01E80F4A
:101E5000F91F619371930297998388833CC08091A5
:101E6000B3049091B404892B41F480918002909145
:101E700081029093B4048093B30440918202509104
:101E800083024115510541F44DB75EB780917E0242
:101E900090917F02481B590B2091B3043091B404F8
:101EA00024173507B0F4CA01821B930B86179707D6
:101EB00080F0AB014E5F5F4F8417950750F0420FE3
:101EC000531F5093B4044093B304F9016193719389
:101ED00002C0E0E0F0E0CF01DF91CF911F910F91C0
:101EE0000895CF93DF939C01009709F48FC0EC0114
:101EF00022971B821A826091B5047091B604611515
:101F0000710581F488819981820F931F2091B30418
:101F10003091B4042817390739F5D093B404C0932D
:101F2000B30474C0DB0140E050E0AC17BD0708F11A
:101F3000BB83AA83FE0121913191E20FF31FAE17FB
:101F4000BF0779F48D919C911197280F391F2E5F4F
:101F50003F4F3983288312968D919C9113979B83D1
:101F60008A834115510571F4D093B604C093B5042A
:101F70004DC012968D919C911397AD01009711F071
:101F8000DC01D3CFDA011396DC93CE931297FA01DA
:101F900021913191E20FF31FCE17DF0769F4888199
:101FA0009981280F391F2E5F3F4FFA01318320831B
:101FB0008A819B8193838283E0E0F0E0DB011296CB
:101FC0008D919C911397009719F0BC01FD01F6CFFC
:101FD000AB014E5F5F4FDB018D919C91840F951F8C
:101FE0002091B3043091B4042817390779F430975D
:101FF00029F41092B6041092B50402C01382128222
:10200000425050405093B4044093B304DF91CF91B9
:1020100008956F927F928F929F92AF92BF92CF92CC
:10202000DF92EF92FF920F931F93CF93DF938C0178
:10203000009729F4CB010E94D40E8C01BBC08EEF17
:10204000E82E8FEFF82EE00EF11E4801860E971E47
:102050008E149F0408F4ACC0D7014D915C91119788
:1020600046175707B8F04530510508F4A3C0CA0118
:1020700004978617970708F49DC042505040461BAE
:10208000570BF401419351936D937C93CF010E94C0
:10209000710F90C05B01A41AB50A3801640E751E59
:1020A000A091B504B091B604E0E0F0E0CC24DD24CA
:1020B00047C0A615B705A9F5CD91DC911197CE01C2
:1020C00002968A159B0568F1CE018A199B09029632
:1020D00012962C91129713963C91059758F0F401A3
:1020E00022833383CA19DB09D183C083D7016D935F
:1020F0007C9309C04E5F5F4F4C0F5D1FF70151830A
:102100004083C901FC01C114D10431F0D6011396FA
:10211000FC93EE9312974EC0F093B604E093B5048F
:1021200049C08D919C911197E817F90708F4FC01BB
:102130006D0112968C91129713969C919C01D90176
:10214000109709F0B6CF8091B3049091B40486152E
:102150009705E9F4E617F707D0F420918202309151
:1021600083022115310541F42DB73EB780917E02DF
:1021700090917F02281B390B82169306C8F4909227
:10218000B4048092B304F7017183608313C0CB0160
:102190000E94D40EEC01009759F0D7014D915C914B
:1021A000B8010E94DC00C8010E94710F8E0102C0BC
:1021B00000E010E0C801DF91CF911F910F91FF90D7
:1021C000EF90DF90CF90BF90AF909F908F907F90D7
:1021D0006F90089597FB092E07260AD077FD04D04B
:1021E0002ED006D000201AF4709561957F4F089587
:1021F000F6F7909581959F4F0895A1E21A2EAA1B9C
:10220000BB1BFD010DC0AA1FBB1FEE1FFF1FA217A6
:10221000B307E407F50720F0A21BB30BE40BF50BA3
:10222000661F771F881F991F1A9469F7609570952C
:10223000809590959B01AC01BD01CF010895AA1B2B
:10224000BB1B51E107C0AA1FBB1FA617B70710F0A1
:10225000A61BB70B881F991F5A95A9F780959095D3
:10226000BC01CD010895EE0FFF1F0590F491E02D04
:10227000099411E0C2E6D1E004C0FE010E943511CC
:0C2280002296C436D107C9F7F894FFCFAE
:10228C0000524D433A20006C61743A20006C6F6E22
:10229C003A20004747410056004750532061707068
:1022AC00207374617274696E672E2E2E00000D00FF
:1022BC00244750524D4300244750474741000000EB
:1022CC000000000000000000000000000000000002
:1022DC0000000000000000000000000000000000F2
:1022EC0000000000000000000000000000000000E2
:1022FC0000000000000000000000000000000000D2
:10230C0000000000000000000000000000000000C1
:10231C0000000000000000000000000000000000B1
:10232C0000000000000000000000000000000000A1
:10233C000000000000000000000000000000000091
:10234C000000000000000000000000000000000081
:10235C000000000000000000000000000000000071
:10236C000000000000000000000000000000000061
:10237C000000000000000000000000000000000051
:10238C000000000000000000000000000000000041
:10239C000000000000000000000000000000000031
:1023AC000000000000000000000000000000000021
:1023BC000000000000000000000000000000000011
:1023CC000000000000000000000000000000000001
:1023DC0000000000000000000000000000000000F1
:1023EC0000000000000000000000000000000000E1
:1023FC000000000000000000000000000000800051
:10240C00B704000000000000A3059D0C89056805B9
:10241C006606550600000000BC079D0C000040003D
:10242C001400540000000000F80B9D0C8E0BBF0B29
:04243C009F0BE80BFF
:00000001FF
