:100000000C94D0000C94F8000C94F8000C94710639
:100010000C949B060C94C5060C94F8000C94F80004
:100020000C94F8000C94F8000C94F8000C94F80070
:100030000C94F8000C94F8000C94F8000C94F80060
:100040000C94EB0B0C94F8000C94730D0C94C10DF4
:100050000C94F8000C94F8000C94F8000C94F80040
:100060000C94F8000C94F80000C20100010011008B
:1000700011000C0000E100000A002500250021000D
:10008000009600001900390039003600127A00008D
:100090001F004600460044008070000022004D0012
:1000A0004D004A00004B00003600750075007200DC
:1000B000403800004A009C009C0099008025000008
:1000C0007200EC00EC00E900C0120000E900DA0167
:1000D000DA01D70160090000D701B603B603B30304
:1000E000B0040000B3036E076E076B0758020000F0
:1000F0006E07DC0EDC0ED80E2C010000DC0EC11DDC
:10010000C11DBE1D00000000240027002A000000C1
:100110000000250028002B0000000000230026001E
:10012000290004040404040404040202020202027A
:1001300003030303030301020408102040800102AB
:10014000040810200102040810200000000700022B
:100150000100000304060000000000000000494EFA
:1001600046494E4954594E414ECDCCCC3D0AD72339
:100170003C17B7D13877CC2B329595E6241FB14F79
:100180000A000020410000C84200401C4620BCBEBE
:100190004CCA1B0E5AAEC59D74005B032D0F540351
:1001A00011241FBECFEFD8E0DEBFCDBF12E0A0E02C
:1001B000B1E0E4E0F1E302C005900D92A037B10791
:1001C000D9F715E0A0E7B2E001C01D92A631B10752
:1001D000E1F711E0CEE9D1E004C02297FE010E94D0
:1001E0002F18CA39D107C9F70E94830F0C947518CC
:1001F0000C940000662777270C942601FB01DC0194
:1002000002C001900D9241505040D8F70895FB0173
:10021000DC018D91019080190110D9F3990B08959B
:10022000FB01DC0101900D920020E1F70895FB0134
:10023000DC014150504048F001900D920020C9F778
:1002400001C01D9241505040E0F70895A0E0B0E099
:10025000ECE2F1E00C944418EC015B0161157105CE
:1002600019F0FB0191838083F9908F2D90E00E941B
:100270003318892BC9F7FDE2FF1621F4F990EE241B
:10028000E39405C02BE2F21609F4F990EE248E01F6
:1002900001501040C8016EE571E043E050E00E945B
:1002A0008602892B01F58E010E5F1F4FC80161E6A2
:1002B00071E045E050E00E948602892B19F48E011E
:1002C000095F1F4FA114B10419F0F50111830083D8
:1002D000E0FC04C070E090E080E814C070E090E0C2
:1002E00080E86FEF08C1C80166E671E043E050E0C6
:1002F0000E948602892B69F4A114B10429F470E0EC
:1003000090E080EC6FE7F7C02296F501D183C083BF
:10031000F6CF8824992440E050E060E070E0EF2DB3
:10032000E053EA30A0F5F2E0EF2A8E2D90E09C0138
:1003300028703070E2FE06C0232B79F50894811CEA
:10034000911C2BC0232B19F0089481089108DB0124
:10035000CA0112E0880F991FAA1FBB1F1A95D1F777
:10036000480F591F6A1F7B1F440F551F661F771FB9
:100370004E0F511D611D711D483929E9520729E9A8
:10038000620729E1720748F084E0E82A06C0EE3FE0
:1003900031F4E3FC39C098E0E92AF990C0CFE533A5
:1003A00011F0E53189F529912D3219F4E0E1EE2AB9
:1003B00005C02B3219F081E090E003C0299182E062
:1003C00090E0E22FE053EA3018F0C81BD90B1CC0B4
:1003D00020E030E0FCE020383F075CF4C901880FE2
:1003E000991F880F991F280F391F220F331F2E0FB7
:1003F000311DE991E053EA3068F3E4FE03C0309523
:1004000021953F4F820E931ECE2CDD24E1FE07C0C6
:10041000A114B10421F02197F501D183C083CB0150
:10042000BA010E94A8167B018C01F3E0CF22DD24E3
:1004300023E0C216D10421F417FB109517F910958B
:1004400057016801C801B70120E030E040E050E00A
:100450000E940B16882309F44AC097FE0DC02DE7B1
:10046000E22E21E0F22E9094819491089394C0E2C0
:10047000D0E000E010E012C095E9E92E91E0F92EFD
:10048000F6CFF7012591359145915491C601B501FB
:100490000E945E175B016C018C1A9D0A8C169D06EA
:1004A00084F7D595C7950F5F1F4F0630110529F0CA
:1004B0008CEF9FEFE80EF91EF1CFC501D6017C014C
:1004C0008D018C2D880F8D2D881F8F3F51F0C60117
:1004D000B50120E030E040E050E00E940B16882398
:1004E00031F482E290E090931505809314057E2DFF
:1004F0009F2D802F612F272F392F482F562FB9017D
:10050000CA01CDB7DEB7ECE00C946018FB01DC014A
:100510004150504088F08D9181341CF08B350CF4A3
:10052000805E659161341CF06B350CF4605E861B57
:10053000611171F3990B0895881BFCCF8F929F92E4
:10054000AF92BF92CF92DF92EF92FF920F931F93E1
:100550006B017C010E947716DC01CB0164E670E040
:100560000E94E4178B01B801882777FD8095982FAA
:100570000E94AA164B015C0184E690E0089FB0013E
:10058000099F700D189F700D1124882777FD8095A5
:10059000982F0E94AA169B01AC01C701B6010E94C8
:1005A000A61520E030E040E752E40E940F169B01C0
:1005B000AC01C501B4010E94A7151F910F91FF90D6
:1005C000EF90DF90CF90BF90AF909F908F90089565
:1005D000CF92EF920F938130910509F040C06F5F89
:1005E0007F4F09F05DC080E792E00E94780B8DE1BB
:1005F00093E066E047E020E00E945A0989E393E037
:100600006CE04BE025E004E053E0E52E32E0C32E41
:100610000E943F0B87E593E060E071E00E94F912D1
:100620008EE593E060E071E00E94F91285E693E0C8
:1006300060E071E00E94F9128CE693E060E071E006
:100640000E94F91283EC93E060E071E00E94F912DD
:100650008AEC93E060E071E00E94F91221C0892BDE
:10066000F9F46F5F7F4FE1F48AEC93E00E948A1304
:1006700083EC93E00E948A138CE693E00E948A1335
:1006800085E693E00E948A138EE593E00E948A1328
:1006900087E593E00E948A138DE193E00E94E107D1
:1006A0000F91EF90CF90089580E090E06FEF7FEF93
:1006B0000E94E802089581E090E06FEF7FEF0E94D2
:1006C000E80208952F923F924F925F926F927F922D
:1006D0008F929F92AF92BF92CF92DF92EF92FF9252
:1006E0000F931F93DF93CF93CDB7DEB76C970FB601
:1006F000F894DEBF0FBECDBF0E94330C1B012C014E
:100700003E010894611C711CEFC18DE193E00E94D1
:10071000EA07182F843279F581E080934E03E2E7EF
:10072000F1E020E2219382E0EA33F807D1F7E3E732
:10073000F3E01192119223E0E33CF207D1F710921B
:10074000500310924F0310925203109251031092D3
:10075000540310925303109256031092550387E5E9
:1007600093E060E071E00E9413138EE593E060E097
:1007700071E00E94131380914E03882369F08091E9
:100780004F0390915003FC01EE58FE4F10830196E9
:100790009093500380934F031A3209F09EC1109238
:1007A0004E0360915303709154034091550350914F
:1007B000560320E030E0F901EE58FE4F9081F90138
:1007C000EC5BFE4F8081981711F46F5F7F4FF9014A
:1007D000E55BFE4F8081981711F44F5F5F4F2F5FED
:1007E0003F4F2630310539F770935403609353031C
:1007F00040935503509356034630510509F043C0CA
:100800008EEE94E061E071E00E94951139E7E32EED
:1008100031E0F32E07E010E023C08EE593E0F7010E
:1008200060810E94B312F70180818C32A1F4809123
:10083000510390915203FC01EE0FFF1FED58FC4F46
:100840000750104011830083095F1F4F019690935A
:100850005203809351030F5F1F4F0894E11CF11C5A
:1008600080914F039091500308171907B4F28EEE50
:1008700094E065E071E00E94AB108EEE94E06EE5CE
:1008800073E00E94DB11809153039091540306970B
:1008900009F023C1B9E7EB2EB1E0FB2E07E010E031
:1008A00023C087E593E0F70160810E94B312F7014E
:1008B00080818C32A1F48091510390915203FC010C
:1008C000EE0FFF1FED58FC4F0750104011830083BF
:1008D000095F1F4F019690935203809351030F5F5E
:1008E0001F4F0894E11CF11C80914F03909150031D
:1008F00008171907B4F22091730330917403235041
:100900003040C30167E573E040E050E00E942C13E3
:1009100085E693E0B3010E947313C3010E948A131A
:1009200040917303509174034F5F5F4F20917503A3
:1009300030917603C40167E573E00E942C138CE6C6
:1009400093E0B4010E947313C4010E948A13409182
:100950007503509176034F5F5F4F2091770330917D
:100960007803C50167E573E00E942C1383EC93E0E4
:10097000B5010E947313C5010E948A134091790347
:1009800050917A034F5F5F4F20917B0330917C033E
:10099000C60167E573E00E942C138AEC93E0B60170
:1009A0000E947313C6010E948A1383EC93E062E5F0
:1009B00071E040E250E020E030E00E94001282E569
:1009C00091E00E94FA000E949E026093D10370930E
:1009D000D2038093D3039093D40302E511E004C0C3
:1009E000F80120E221938F0181E002371807C1F757
:1009F0008AEC93E0B8016052704040E250E020E0A1
:100A000030E00E940012C80180970E94FA000E9404
:100A10009E026093D5037093D6038093D70390937F
:100A2000D8038EEE94E06BE071E00E94AB108EEE86
:100A300094E067E573E00E94DB1189E393E060E0F6
:100A400040E00E94520A4091D1035091D20360913C
:100A5000D3037091D40389E393E025E030E00E9452
:100A6000921189E393E060E041E00E94520A4091D4
:100A7000D5035091D6036091D7037091D80389E3D1
:100A800093E025E030E00E9492118EEE94E061E167
:100A900071E00E94AB108EEE94E063EC73E00E9474
:100AA000DB118EEE94E067E171E00E94AB108EEEF8
:100AB00094E06AEC73E00E94DB110FC0E8E08E2E38
:100AC000912C8C0E9D1E7FE0A72EB12CAC0EBD1E6E
:100AD00066E1C62ED12CCC0EDD1E8DE193E00E9486
:100AE0000B08892B09F011CE0E94330C621973098F
:100AF00084099509685E734080409040F8F28CE666
:100B000093E06DE171E00E942D12882321F0809125
:100B1000420160E003C08091420161E00E941E0D2D
:100B20008EEE94E06CE673E00E94DB1189E393E0C3
:100B30006CE041E00E94520A89E393E06CE673E0C6
:100B40000E94A8116C960FB6F894DEBF0FBECDBF01
:100B5000CF91DF911F910F91FF90EF90DF90CF9099
:100B6000BF90AF909F908F907F906F905F904F90CD
:100B70003F902F9008958EEE94E040E850E760E0BB
:100B800070E00E94FC0D8DE193E040E051EE60E0EA
:100B900070E00E94EF0689E393E060E142E020E02C
:100BA0000E94890A89E393E060E040E00E94520AD3
:100BB00089E393E00E94810A89E393E06FE171E0A9
:100BC0000E94AB106CE271E080E090E00E94410C6A
:100BD0008091420161E00E94DF0C8091420160E05F
:100BE0000E941E0DE2E7F1E080E2819392E0EA3399
:100BF000F907D9F7E3E7F3E01192119283E0E33CC0
:100C0000F807D1F789E393E00E94810A08950F93D2
:100C10001F93CF93DF93FC01738D76957170A6853A
:100C2000B7859585772329F08C91892309F454C0E1
:100C300004C08C91892309F04FC08389948920E0F6
:100C400001972FEF8F3F9207D9F7C589D689A685DF
:100C5000B785158560E031E040E050E000E0CE016E
:100C6000202F01972FEF8F3F9207D9F78C91812387
:100C700011F0632B03C0832F80956823330F4F5FE0
:100C80005F4F4830510559F78789908D20E00197D3
:100C90002FEF8F3F9207D9F77111609580915B0418
:100CA00020915C0490E001968F77907030E082177D
:100CB000930779F0E0915B04F0E0E552FC4F60832C
:100CC00080915B0490E001968F77907080935B0435
:100CD00003C0838D8160838FDF91CF911F910F912E
:100CE00008951F920F920FB60F9211242F933F93E6
:100CF0004F935F936F937F938F939F93AF93BF9324
:100D0000EF93FF938091D9039091DA03009711F04C
:100D10000E940706FF91EF91BF91AF919F918F9134
:100D20007F916F915F914F913F912F910F900FBEE7
:100D30000F901F9018951F920F920FB60F921124CB
:100D40002F933F934F935F936F937F938F939F93D3
:100D5000AF93BF93EF93FF938091D9039091DA0300
:100D6000009711F00E940706FF91EF91BF91AF919C
:100D70009F918F917F916F915F914F913F912F91B3
:100D80000F900FBE0F901F9018951F920F920FB6E5
:100D90000F9211242F933F934F935F936F937F9301
:100DA0008F939F93AF93BF93EF93FF938091D9035A
:100DB0009091DA03009711F00E940706FF91EF91DE
:100DC000BF91AF919F918F917F916F915F914F9163
:100DD0003F912F910F900FBE0F901F901895CF92BB
:100DE000DF92EF92FF920F931F93CF93DF93EC016B
:100DF0007A018B011A8E198E188E1F8A1E8A1D8AFF
:100E00001C8A1B8A20E030E06901CC0CDD1CC20E7C
:100E1000D31EB601660F771F660F771FAB014859C7
:100E20005F4FFA0185919591A591B4918E159F051B
:100E3000A007B107E9F4FB01E459FF4F85919491B4
:100E40009C8B8B8BFB01E259FF4F859194919E8B7C
:100E50008D8BFB01E059FF4F85919491988F8F8B7B
:100E6000FB01EE58FF4F859194919A8F898F06C0B0
:100E70002F5F3F4F2D30310509F0C6CF8F89988DF8
:100E8000892B09F449C04C85463108F03DC090914A
:100E90006800483010F484E005C04E3010F082E065
:100EA00001C081E0892B80936800483028F4EDE68A
:100EB000F0E0ADE6B0E00BC04E3028F0ECE6F0E03C
:100EC000ACE6B0E004C0EBE6F0E0ABE6B0E05081A9
:100ED000483040F481E090E002C0880F991F4A95A5
:100EE000E2F710C0242F30E04E3018F42850304084
:100EF00002C02E50304081E090E002C0880F991F60
:100F00002A95E2F7852B8C93898D9A8D20E00197A5
:100F10002FEF8F3F9207D9F78091D9039091DA0391
:100F20008C179D0781F08B8D8E7F8B8F9FB7F894E8
:100F300010925B0480915B0480935C04D093DA038D
:100F4000C093D9039FBFDF91CF911F910F91FF9065
:100F5000EF90DF90CF900895FC014485463180F5F5
:100F6000483028F4EDE6F0E0ADE6B0E00BC04E30DE
:100F700028F4EBE6F0E0ABE6B0E004C0ECE6F0E02D
:100F8000ACE6B0E05081483040F481E090E002C02F
:100F9000880F991F4A95E2F710C0242F30E04E3099
:100FA00018F42850304002C02E50304081E090E0CC
:100FB00002C0880F991F2A95E2F7809585238C93AC
:100FC0000895FC0184E492E091838083CF010E9424
:100FD000AC0708952091D9033091DA032817390717
:100FE00031F490915C0480915B04981719F42FEF11
:100FF0003FEF0FC0E0915C04F0E0E552FC4F208130
:1010000080915C0490E001968F77907080935C04EF
:1010100030E0C90108952091D9033091DA032817EF
:10102000390719F020E030E00EC080915B04209178
:101030005C0490E080589F4F821B910960E870E04B
:101040000E94E4179C01C90108950F931F93DC01CE
:1010500059968D919C915A97892B49F481E090E0A3
:1010600013969C938E93129720E030E097C00FB7B1
:10107000F8945B968C915B975196ED91FC91529709
:1010800050962C91509781FF8DC08081822B808358
:1010900059968D919C915A97059620E001972FEFD4
:1010A0008F3F9207D9F75B968C915B9781FF35C094
:1010B00031E040E050E070E010E0832F90E08623C4
:1010C00097235196ED91FC91529750962C91509701
:1010D000892B29F0808120952823208303C08081DB
:1010E000822B808359968D919C915A97212F01973D
:1010F0002FEF8F3F9207D9F7330F4F5F5F4F483085
:101100005105D9F65196ED91FC91529790815096E8
:101110008C9150978095892333C031E040E050E0B6
:1011200070E010E0832F90E0862397235196ED9195
:10113000FC91529750962C915097892B21F08081E9
:10114000822B808304C08081209528232083599698
:101150008D919C915A97212F01972FEF8F3F9207E6
:10116000D9F7330F4F5F5F4F48305105D9F651968D
:10117000ED91FC915297808150969C915097892BCC
:1011800080830FBF59968D919C915A9720E00197CB
:101190002FEF8F3F9207D9F721E030E0C9011F916F
:1011A0000F910895808120952823208371CF20916D
:1011B000D9033091DA032817390749F49FB7F89417
:1011C00010925B0480915B0480935C049FBF089540
:1011D0002091D9033091DA032817390731F490911F
:1011E0005C0480915B04981719F42FEF3FEF0AC05D
:1011F000E0915C04F0E0E552FC4F8081282F33271A
:1012000027FD3095C90108951F93CF93DF93EC011B
:10121000162F862F60E00E94DF0C8B8D81FD04C0AD
:10122000812F61E00E941E0D1C87212F30E0C90133
:101230008A5C9E4FFC0184918D872E5D3E4FF901A3
:101240006491E62FF0E0EE0FFF1FE85EFE4F859100
:1012500094919F878E87DF91CF911F910895FF9280
:101260000F931F938C01F62E862F61E00E94DF0CF6
:101270008F2D61E00E941E0D8F2D90E0FC01EA5C35
:10128000FE4FE491D8015096EC9350978E5D9E4F9F
:10129000FC016491E62FF0E0EE0FFF1FE25FFE4FCE
:1012A0008591949152969C938E9351971F910F9193
:1012B000FF900895FF920F931F938C01F62EFC016F
:1012C0001382128288EE93E0A0E0B0E084839583DD
:1012D000A683B78384E492E091838083148A138A7F
:1012E000168A158A108E178A128E118E838D2170A0
:1012F000220F8C7F822B838FC801642F0E942F09BD
:10130000C8016F2D0E9404091F910F91FF9008954D
:101310000F931F938C01FC01868160E00E941E0DDB
:1013200081E090E00E949A0CF801868161E00E94C1
:101330001E0D81E090E00E949A0CF801868160E029
:101340000E941E0D84E690E00E949A0C1F910F915E
:101350000895CF92DF92EF92FF920F931F93CF9356
:10136000DF93D82EC92E282F392FC9018C01C0E058
:10137000D0E0E62EFF24F801878161E00E94DF0CB7
:10138000B7010C2E02C0759567950A94E2F761705B
:10139000F80187810E941E0D21960F5F1F4FC830F4
:1013A000D10549F78D2D9C2D0E948809DF91CF91A1
:1013B0001F910F91FF90EF90DF90CF900895CF9203
:1013C000DF92EF92FF920F931F93CF93DF93D82E6C
:1013D000C92E282F392FC9018C01C0E0D0E0E62E9C
:1013E000FF24F801878161E00E94DF0CB7010C2E19
:1013F00002C0759567950A94E2F76170F8018781DC
:101400000E941E0D21960F5F1F4FC430D10549F772
:101410008D2D9C2D0E948809DF91CF911F910F91F6
:10142000FF90EF90DF90CF9008951F93CF93DF93BD
:10143000EC01162F8C81642F0E941E0D8D818F3F31
:1014400019F060E00E941E0D8F8584FF05C0CE015B
:10145000612F0E94A9090EC0612F70E084E075958C
:1014600067958A95E1F7CE010E94DF09CE01612FD1
:101470000E94DF09DF91CF911F91089541E00E9402
:10148000150A81E090E0089540E00E94150A089551
:10149000FC016089862F8460808B6C60CF010E9484
:1014A000440A0895DF93CF93CDB7DEB728970FB6E0
:1014B000F894DEBF0FBECDBF9C01FE013196A8E5BA
:1014C000B2E088E00D9001928150E1F7F901838943
:1014D000481710F0482F4150E42FF0E0EE0FFF1FA7
:1014E000EC0FFD1F8181680F6068C9010E94440AEA
:1014F00028960FB6F894DEBF0FBECDBFCF91DF9117
:10150000089561E00E94440A80ED97E00E949A0CE1
:101510000895CF93DF93EC01423018F08F858860F7
:101520008F874B8B1C8A222329F0413019F48F8539
:1015300084608F8780E593EC0E949A0C8C8160E038
:101540000E941E0D8E8160E00E941E0D8D818F3FD6
:1015500019F060E00E941E0D6F8564FD1DC0CE0174
:1015600063E00E94DF0984E991E10E949A0CCE01B8
:1015700063E00E94DF0984E991E10E949A0CCE01A8
:1015800063E00E94DF0986E990E00E949A0CCE0198
:1015900062E00E94DF0916C06062CE010E94440A28
:1015A00084E991E10E949A0C6F856062CE010E94ED
:1015B000440A86E990E00E949A0C6F856062CE0131
:1015C0000E94440A6F856062CE010E94440A84E052
:1015D000888BCE010E94480ACE010E94810A82E0D7
:1015E000898BCE0166E00E94440ADF91CF91089575
:1015F0006F927F928F92AF92CF92EF920F931F9341
:10160000DF93CF93CDB7DEB73C01162F842FF301C4
:10161000448325830683E782C086A18682869D85D2
:1016200093879E8594879F8595879889968761E0A3
:101630000E94DF0CF30185818F3F19F061E00E9469
:10164000DF0CF301868161E00E94DF0C112319F0A9
:10165000F301178603C080E1F3018787C30160E1CE
:1016600041E020E00E94890ACF91DF911F910F9104
:10167000EF90CF90AF908F907F906F9008958F9262
:10168000AF92CF92EF920F931F93CF93DF93DC0132
:10169000362F542F722F102FAE2C8C2C13961C9299
:1016A0001E92129784E592E011969C938E9300D03F
:1016B00000D0EDB7FEB73196CDB7DEB719821182F3
:1016C00012821382CD0161E0432F2FEF052FE72E09
:1016D000C12E0E94F80A0F900F900F900F90DF918B
:1016E000CF911F910F91EF90CF90AF908F90089571
:1016F000FC011082118213821282148215821682DA
:101700001782108612861186138614861586168611
:101710001786118A108A128A138A148A158A168AE1
:10172000108E178A118E128E138E148E158E12A2A1
:1017300013A214A215A216A217A210AA11AA12AAE5
:1017400013AA14AA15AA16AE17AEEC5BFF4F1082AF
:10175000118212821382389611921082359610826D
:10176000118212821382389611921082359610825D
:10177000118212821382389611921082359610824D
:10178000118212821382389611921082359610823D
:10179000118212821382389611921082709682E022
:1017A00081931192119211921192119211921192B0
:1017B0001192119211921192119211921192119211
:1017C000119211921192119210821182128213823F
:1017D000B397108208951F920F920FB60F921124A3
:1017E0002F933F938F939F93AF93BF938091610407
:1017F00090916204A0916304B091640430916504F7
:101800000196A11DB11D232F2D5F2D3720F02D57DF
:101810000196A11DB11D20936504809361049093EE
:101820006204A0936304B093640480915D0490917A
:101830005E04A0915F04B09160040196A11DB11DEA
:1018400080935D0490935E04A0935F04B093600462
:10185000BF91AF919F918F913F912F910F900FBEAC
:101860000F901F9018958FB7F894209161043091D4
:10187000620440916304509164048FBFB901CA01AE
:1018800008959B01AC017FB7F89480915D0490911D
:101890005E04A0915F04B091600466B5A89B05C08A
:1018A0006F3F19F00196A11DB11D7FBFBA2FA92F5F
:1018B000982F8827860F911DA11DB11D62E0880F0A
:1018C000991FAA1FBB1F6A95D1F7BC012DC0FFB796
:1018D000F89480915D0490915E04A0915F04B091B2
:1018E0006004E6B5A89B05C0EF3F19F00196A11D65
:1018F000B11DFFBFBA2FA92F982F88278E0F911DDA
:10190000A11DB11DE2E0880F991FAA1FBB1FEA9518
:10191000D1F7861B970B885E9340C8F22150304068
:101920004040504068517C4F21153105410551051B
:1019300071F60895019739F0880F991F880F991F44
:1019400002970197F1F70895789484B5826084BD79
:1019500084B5816084BD85B5826085BD85B58160B3
:1019600085BDEEE6F0E0808181608083E1E8F0E013
:101970001082808182608083808181608083E0E842
:10198000F0E0808181608083E1EBF0E08081846021
:101990008083E0EBF0E0808181608083EAE7F0E023
:1019A0008081846080838081826080838081816087
:1019B00080838081806880831092C1000895CF93D6
:1019C000DF93482F50E0CA018A5C9E4FFC0134919E
:1019D0004E5D5E4FFA018491882369F190E0880F93
:1019E000991FFC01EC5FFE4FA591B491FC01E25FF1
:1019F000FE4FC591D491662351F42FB7F8948C9182
:101A0000932F909589238C93888189230BC0623012
:101A100061F42FB7F8948C91932F909589238C9330
:101A20008881832B88832FBF06C09FB7F8948C9141
:101A3000832B8C939FBFDF91CF910895482F50E067
:101A4000CA01865B9E4FFC012491CA018A5C9E4FAD
:101A5000FC0194914E5D5E4FFA013491332309F4F9
:101A600040C0222351F1233071F0243028F421307A
:101A7000A1F0223011F514C02630B1F02730C1F0AA
:101A80002430D9F404C0809180008F7703C0809106
:101A900080008F7D8093800010C084B58F7702C056
:101AA00084B58F7D84BD09C08091B0008F7703C05D
:101AB0008091B0008F7D8093B000E32FF0E0EE0FB7
:101AC000FF1FE25FFE4FA591B4912FB7F8946623F4
:101AD00021F48C919095892302C08C91892B8C9351
:101AE0002FBF089508951F920F920FB60F921124E1
:101AF0002F933F934F938F939F93EF93FF938091F7
:101B0000C00082FD1DC04091C6002091A604309106
:101B1000A7042F5F3F4F2F7330708091A8049091DE
:101B2000A9042817390771F0E091A604F091A704E1
:101B3000EA59FB4F40833093A7042093A60402C0C8
:101B40008091C600FF91EF919F918F914F913F91AE
:101B50002F910F900FBE0F901F901895E091FA04EF
:101B6000F091FB04E05CFF4F8191919120813181E4
:101B7000821B930B8F739070892B11F00E94720D52
:101B800008951F920F920FB60F9211242F933F9337
:101B90008F939F93EF93FF932091EA043091EB048E
:101BA0008091EC049091ED042817390731F480916D
:101BB000C1008F7D8093C10014C0E091EC04F091CE
:101BC000ED04E655FB4F20818091EC049091ED04EB
:101BD00001968F7390709093ED048093EC042093A2
:101BE000C600FF91EF919F918F913F912F910F90A0
:101BF0000FBE0F901F901895AF92BF92DF92EF9299
:101C0000FF920F931F93CF93DF93EC017A018B0127
:101C1000DD24403081EE580780E0680780E07807D7
:101C200011F0DD24D39491E0A92EB12CEC89FD892B
:101C3000DD2069F0C50108A002C0880F991F0A9431
:101C4000E2F7808360E079E08DE390E005C01082E8
:101C500060E874E88EE190E0A80197010E94F71710
:101C60002150304040405040569547953795279534
:101C700080E12030380720F0DD2011F0DD24D6CFC0
:101C8000E889F9893083EA89FB89208319A2EE89E2
:101C9000FF89408121E030E0C9010C8C02C0880F2F
:101CA000991F0A94E2F7482B4083EE89FF8940810F
:101CB000C9010D8C02C0880F991F0A94E2F7482BC6
:101CC0004083EE89FF894081C9010E8C02C0880FD4
:101CD000991F0A94E2F7482B4083EE89FF8980819F
:101CE0000F8C02C0220F331F0A94E2F7209528239D
:101CF0002083DF91CF911F910F91FF90EF90DF90A4
:101D0000BF90AF900895DC011C96ED91FC911D975A
:101D1000E05CFF4F2191319180819181281B390B2B
:101D20002F733070C9010895DC011C96ED91FC9170
:101D30001D97E05CFF4F20813181E054F040DF01CE
:101D4000AE5BBF4F8D919C9111972817390719F4FD
:101D50002FEF3FEF07C08D919C91E80FF91F808115
:101D6000282F30E0C9010895DC011C96ED91FC910B
:101D70001D97E05CFF4F20813181E054F040DF018E
:101D8000AE5BBF4F8D919C9111972817390719F4BD
:101D90002FEF3FEF10C08D919C911197E80FF91F25
:101DA00020818D919C91119701968F73907011965F
:101DB0009C938E9330E0C9010895DC0191968C913B
:101DC0009197882339F05496ED91FC915597808135
:101DD00086FFF9CF91961C920895CF93DF93EC0183
:101DE000EE85FF85E05CFF4F20813181E054F040BB
:101DF0002F5F3F4F2F733070DF01AE5BBF4F8D9170
:101E00009C91119728173907D1F3E05CFF4F80812F
:101E10009181E054F040E80FF91F6083EE85FF8563
:101E2000E05CFF4F31832083EE89FF89208181E0D0
:101E300090E00F8C02C0880F991F0A94E2F7282BBC
:101E4000208381E089A3EC89FD898081806480837F
:101E500081E090E0DF91CF9108951092F10410920B
:101E6000F00488EE93E0A0E0B0E08093F204909359
:101E7000F304A093F404B093F50484E692E0909305
:101E8000EF048093EE0486E694E09093FB04809345
:101E9000FA048AEA94E09093FD048093FC0485ECB4
:101EA00090E09093FF048093FE0484EC90E0909384
:101EB00001058093000580EC90E0909303058093EA
:101EC000020581EC90E0909305058093040582EC77
:101ED00090E0909307058093060586EC90E0909340
:101EE00009058093080584E080930A0583E08093C8
:101EF0000B0587E080930C0585E080930D0581E05C
:101F000080930E050895CF93DF930E94A40C0E9446
:101F1000BB05CEEADDE00E9462032097E1F30E9458
:101F2000AE0DF9CFCF92DF92EF92FF920F931F93F6
:101F3000CF93DF937C016B018A01C0E0D0E00FC03A
:101F4000D6016D916D01D701ED91FC910190F08169
:101F5000E02DC7010995C80FD91F01501040011588
:101F6000110571F7CE01DF91CF911F910F91FF9075
:101F7000EF90DF90CF900895EF92FF920F931F9311
:101F80008C01DC01ED91FC910190F081E02D6DE080
:101F900009957C01D801ED91FC910190F081E02D33
:101FA000C8016AE009959C012E0D3F1DC9011F91D2
:101FB0000F91FF90EF900895CF93DF93EC0161159F
:101FC000710519F420E030E00FC0DB010D90002016
:101FD000E9F71197A61BB70BE881F9810280F3811D
:101FE000E02DAD0109959C01C901DF91CF910895C4
:101FF0004F925F927F928F929F92AF92BF92CF92B9
:10200000DF92EF92FF920F931F93DF93CF93CDB7A1
:10201000DEB7A1970FB6F894DEBF0FBECDBF2C017F
:10202000742ECB01223008F42AE019A231E2C32E2B
:10203000D12CCC0EDD1E822E9924AA24BB24672D20
:10204000752FA50194010E94F71779018A01C80133
:10205000B701A50194010E94C517472D461B08949E
:10206000C108D1084A3014F4405D01C0495CF60152
:102070004083E114F1040105110521F07E2C5F2D50
:10208000C801DDCFC201B6010E94DC0FA1960FB6D8
:10209000F894DEBF0FBECDBFCF91DF911F910F919E
:1020A000FF90EF90DF90CF90BF90AF909F908F9078
:1020B0007F905F904F900895DC012115310541F428
:1020C000ED91FC910190F081E02D642F0995089528
:1020D0000E94F80F0895CF92DF92EF92FF920F9334
:1020E0001F93CF93DF93EC016A017B01211531052A
:1020F00041F4E881F9810190F081E02D642F099588
:102100001FC02A303105D1F477FF17C0E881F9816B
:102110000190F081E02D6DE209958C01442755274F
:10212000BA014C195D096E097F09CE012AE00E94AF
:10213000F80F9801280F391F04C02AE00E94F80FF9
:102140009C01C901DF91CF911F910F91FF90EF90FA
:10215000DF90CF9008950E94DC0F08957F928F92B8
:102160009F92AF92BF92CF92DF92EF92FF920F9326
:102170001F93CF93DF934C017A018B01722ECB0119
:10218000BA01A80197010E94C117882321F0C40158
:1021900063E371E021C0C0E0D0E057016801E8943A
:1021A000D7F8C601B5012FEF3FEF4FE75FE70E9479
:1021B000C117882351F4C601B5012FEF3FEF4FE758
:1021C0005FE70E940B16181614F0C1E0D0E02197CB
:1021D00039F0C40167E371E00E94DC0FEC0193C0A9
:1021E000C801B7012FEF3FEF4FE75FE40E945A1796
:1021F000181654F0C801B7012FEF3FEF4FE75FEC1F
:102200000E940B16882324F4C4016BE371E0E4CF31
:10221000C801B70120E030E040E050E00E940B161A
:1022200087FD03C0C0E0D0E00EC0D401ED91FC9169
:102230000190F081E02DC4016DE20995EC0117FBDE
:10224000109517F9109520E030E040E05FE3DD24C1
:102250000BC0CA01B90120E030E040E251E40E9425
:102260000F169B01AC01D394D71498F3C801B701A2
:102270000E94A7155B016C010E947C167B018C01FA
:10228000C401B801A7012AE030E00E945C10C80F29
:10229000D91F772039F0C4016FE371E00E94DC0F91
:1022A000C80FD91FC801B7010E94A8169B01AC0135
:1022B000C601B5010E94A61524C020E030E040E22E
:1022C00051E40E945E177B018C010E9477165B012E
:1022D0006C01CC24B7FCC094DC2CC401B601A50170
:1022E0002AE030E00E946B10C80FD91FC601B5016B
:1022F0000E94AA169B01AC01C801B7010E94A61555
:102300007A947720D1F6CE01DF91CF911F910F9172
:10231000FF90EF90DF90CF90BF90AF909F908F9005
:102320007F9008950E94AE100895EF92FF920F9350
:102330001F937C010E94DC0F8C01C7010E94BC0F1F
:10234000080F191FC8011F910F91FF90EF9008957A
:10235000AF92BF92CF92DF92EF92FF920F931F93B3
:10236000CF93DF935C016B01EE24FF24C0E0D0E04B
:1023700010C0D501ED91FC9100811181C601BE0113
:102380000E94EF11682FC501F8010995E80EF91EAA
:102390002196F60184819581C817D90750F3C701AA
:1023A000DF91CF911F910F91FF90EF90DF90CF9031
:1023B000BF90AF900895EF92FF920F931F937C010F
:1023C0000E94A8118C01C7010E94BC0F9C01200F24
:1023D000311FC9011F910F91FF90EF900895FC01EB
:1023E000848195816817790748F40190F081E02D88
:1023F000309721F0E60FF71F8081089580E008955F
:102400000F931F93CF93DF93FC018B01411551056F
:10241000F9F061157105E1F084819581281739077C
:1024200018F0FB01108214C041505040EC01C21B57
:10243000D30B4C175D0708F4EA0160817181620FCC
:10244000731FC801AE010E941701C00FD11F18826F
:10245000DF91CF911F910F910895DC01FB0114963C
:102460008D919C911597892B31F461157105A9F017
:1024700090E0808108C00D90BC91A02D6115710580
:1024800029F490E08C91882349F407C0CD010E9483
:1024900007019C0190E0232B09F491E0892F089516
:1024A0000F931F93CF93DF93EC018B016F5F7F4FEF
:1024B000888199810E94C514009711F480E005C0BD
:1024C000998388831B830A8381E0DF91CF911F91D9
:1024D0000F910895CF93DF93EC0188819981892B27
:1024E00029F08A819B818617970760F4CE010E94AC
:1024F0005012882341F08C819D81892B19F4E88149
:10250000F981108281E0DF91CF910895EF92FF92DF
:102510000F931F93CF93DF93EC017B016C817D813F
:10252000E114F104C1F04115510599F08A01060F3B
:10253000171FB8010E946A12882369F08881998167
:102540002C813D81820F931FB7010E9410011D83D2
:102550000C8381E001C080E0DF91CF911F910F914A
:10256000FF90EF900895DF93CF9300D0CDB7DEB703
:1025700069831A82BE016F5F7F4F41E050E00E9485
:1025800086120F900F90CF91DF910895CF93DF9334
:10259000EC0188819981009711F00E942D14198215
:1025A00018821D821C821B821A82DF91CF910895AE
:1025B000EF92FF920F931F93CF93DF93EC017B0178
:1025C0008A01BA010E946A12882321F4CE010E9476
:1025D000C61207C01D830C8388819981B7010E94B0
:1025E0001001CE01DF91CF911F910F91FF90EF90DD
:1025F0000895CF93DF93EC01198218821B821A820F
:102600001D821C821E826115710551F0DB010D9047
:102610000020E9F71197A61BB70BAD010E94D81255
:10262000DF91CF9108950F931F93182F092F6115F4
:10263000710559F0DB010D900020E9F71197A61BF9
:10264000B70BAD010E94D81202C00E94C612812FA2
:10265000902F1F910F910895BF92CF92DF92EF922A
:10266000FF920F931F93CF93DF93082FB92E6B0127
:102670007A01E9012417350710F4EA017901802F66
:102680009B2D61E471E00E94F912D60114968D91A0
:102690009C9115978E159F05D0F08C179D0708F417
:1026A000EC01D601ED91FC911197EC0FFD1F10810B
:1026B00010826D917C916E0D7F1D802F9B2D0E944D
:1026C0001313D601ED91FC91EC0FFD1F1083802FA9
:1026D0009B2DDF91CF911F910F91FF90EF90DF9095
:1026E000CF90BF900895CF93DF93EC01FB01861745
:1026F000970761F0608171816115710529F044814E
:1027000055810E94D81202C00E94C612CE01DF91EC
:10271000CF910895FC01808191810E942D1408952C
:102720000F931F93CF93DF93BC018230910510F478
:1027300062E070E0E0911205F091130540E050E096
:10274000A0E0B0E024C08081918186179707D0F087
:102750008617970771F482819381109729F0139659
:102760009C938E9312972CC090931305809312051F
:1027700027C04115510519F08417950718F48D01EC
:10278000AC01EF01DF01828193819C01F901309757
:10279000D1F641155105F9F0CA01861B970B84301B
:1027A000910580F48A819B810115110521F0F801C2
:1027B0009383828304C09093130580931205FE01D6
:1027C000329645C0FE01E80FF91F6193719302979D
:1027D000998388833CC08091100590911105892BC5
:1027E00041F480913C0290913D02909311058093B9
:1027F000100540913E0250913F024115510541F4B0
:102800004DB75EB780913A0290913B02481B590B3D
:10281000209110053091110524173507B0F4CA0135
:10282000821B930B8617970780F0AB014E5F5F4FBB
:102830008417950750F0420F531F50931105409392
:102840001005F9016193719302C0E0E0F0E0CF015F
:10285000DF91CF911F910F910895CF93DF939C014A
:10286000009709F48FC0EC0122971B821A826091B5
:102870001205709113056115710581F488819981A4
:10288000820F931F209110053091110528173907E9
:1028900039F5D0931105C093100574C0DB0140E0F9
:1028A00050E0AC17BD0708F1BB83AA83FE0121915C
:1028B0003191E20FF31FAE17BF0779F48D919C9110
:1028C0001197280F391F2E5F3F4F398328831296A7
:1028D0008D919C9113979B838A834115510571F4C7
:1028E000D0931305C09312054DC012968D919C9103
:1028F0001397AD01009711F0DC01D3CFDA011396E5
:10290000DC93CE931297FA0121913191E20FF31FDC
:10291000CE17DF0769F488819981280F391F2E5F50
:102920003F4FFA01318320838A819B819383828385
:10293000E0E0F0E0DB0112968D919C9113970097F7
:1029400019F0BC01FD01F6CFAB014E5F5F4FDB011B
:102950008D919C91840F951F209110053091110548
:102960002817390779F4309729F41092130510923B
:10297000120502C01382128242505040509311053A
:1029800040931005DF91CF9108956F927F928F92BF
:102990009F92AF92BF92CF92DF92EF92FF920F93EE
:1029A0001F93CF93DF938C01009729F4CB010E94F2
:1029B00090138C01BBC08EEFE82E8FEFF82EE00E47
:1029C000F11E4801860E971E8E149F0408F4ACC0B9
:1029D000D7014D915C91119746175707B8F04530D4
:1029E000510508F4A3C0CA0104978617970708F495
:1029F0009DC042505040461B570BF40141935193E8
:102A00006D937C93CF010E942D1490C05B01A41A9A
:102A1000B50A3801640E751EA0911205B091130518
:102A2000E0E0F0E0CC24DD2447C0A615B705A9F509
:102A3000CD91DC911197CE0102968A159B0568F124
:102A4000CE018A199B09029612962C911297139621
:102A50003C91059758F0F40122833383CA19DB09AE
:102A6000D183C083D7016D937C9309C04E5F5F4FC4
:102A70004C0F5D1FF70151834083C901FC01C11454
:102A8000D10431F0D6011396FC93EE9312974EC009
:102A9000F0931305E093120549C08D919C91119715
:102AA000E817F90708F4FC016D0112968C91129752
:102AB00013969C919C01D901109709F0B6CF809193
:102AC00010059091110586159705E9F4E617F707AB
:102AD000D0F420913E0230913F022115310541F49E
:102AE0002DB73EB780913A0290913B02281B390BDB
:102AF00082169306C8F49092110580921005F70192
:102B00007183608313C0CB010E949013EC01009786
:102B100059F0D7014D915C91B8010E94FE00C801A7
:102B20000E942D148E0102C000E010E0C801DF9168
:102B3000CF911F910F91FF90EF90DF90CF90BF90BA
:102B4000AF909F908F907F906F9008955058BB27C3
:102B5000AA270ED075C166D130F06BD120F031F4C8
:102B60009F3F11F41EF45BC10EF4E095E7FB51C1E9
:102B7000E92F77D180F3BA176207730784079507A7
:102B800018F071F49EF58FC10EF4E0950B2EBA2F5C
:102B9000A02D0B01B90190010C01CA01A001112463
:102BA000FF27591B99F0593F50F4503E68F11A160F
:102BB000F040A22F232F342F4427585FF3CF4695A0
:102BC00037952795A795F0405395C9F77EF41F16C2
:102BD000BA0B620B730B840BBAF09150A1F0FF0F8C
:102BE000BB1F661F771F881FC2F70EC0BA0F621F78
:102BF000731F841F48F4879577956795B795F79568
:102C00009E3F08F0B3CF9395880F08F09927EE0FF9
:102C1000979587950895D9D008F481E008950CD050
:102C20000FC107D140F0FED030F021F45F3F19F022
:102C3000F0C0511139C1F3C014D198F39923C9F3ED
:102C40005523B1F3951B550BBB27AA2762177307B2
:102C5000840738F09F5F5F4F220F331F441FAA1F66
:102C6000A9F333D00E2E3AF0E0E830D09150504026
:102C7000E695001CCAF729D0FE2F27D0660F771FD4
:102C8000881FBB1F261737074807AB07B0E809F0B6
:102C9000BB0B802DBF01FF2793585F4F2AF09E3F4B
:102CA000510568F0B6C000C15F3FECF3983EDCF31D
:102CB000869577956795B795F7959F5FC9F7880FC4
:102CC000911D9695879597F90895E1E0660F771F16
:102CD000881FBB1F621773078407BA0720F0621BA7
:102CE000730B840BBA0BEE1F88F7E095089504D0A0
:102CF0006894B111D9C00895BCD088F09F5790F066
:102D0000B92F9927B751A0F0D1F0660F771F881F10
:102D1000991F1AF0BA95C9F712C0B13081F0C3D02B
:102D2000B1E00895C0C0672F782F8827B85F39F0C9
:102D3000B93FCCF3869577956795B395D9F73EF46F
:102D400090958095709561957F4F8F4F9F4F089517
:102D5000E89409C097FB3EF4909580957095619535
:102D60007F4F8F4F9F4F9923A9F0F92F96E9BB27EB
:102D70009395F695879577956795B795F111F8CF67
:102D8000FAF4BB0F11F460FF1BC06F5F7F4F8F4FD2
:102D90009F4F16C0882311F096E911C0772321F0C8
:102DA0009EE8872F762F05C0662371F096E8862F60
:102DB00070E060E02AF09A95660F771F881FDAF7B7
:102DC000880F9695879597F90895990F0008550FE4
:102DD000AA0BE0E8FEEF16161706E807F907C0F0A1
:102DE00012161306E407F50798F0621B730B840BA9
:102DF000950B39F40A2661F0232B242B252B21F483
:102E000008950A2609F4A140A6958FEF811D811D22
:102E1000089597F99F6780E870E060E008959FEF5C
:102E200080EC089500240A94161617061806090661
:102E3000089500240A941216130614060506089530
:102E4000092E0394000C11F4882352F0BB0F40F4B8
:102E5000BF2B11F460FF04C06F5F7F4F8F4F9F4FF8
:102E6000089557FD9058440F551F59F05F3F71F07A
:102E70004795880F97FB991F61F09F3F79F08795E1
:102E80000895121613061406551FF2CF4695F1DF6A
:102E900008C0161617061806991FF1CF86957105FA
:102EA000610508940895E894BB2766277727CB012E
:102EB00097F908958ADF08F48FEF08950BD0C0CFFB
:102EC000B1DF28F0B6DF18F0952309F0A2CFA7CF25
:102ED0001124EACFC6DFA0F3959FD1F3950F50E000
:102EE000551F629FF001729FBB27F00DB11D639FBC
:102EF000AA27F00DB11DAA1F649F6627B00DA11D62
:102F0000661F829F2227B00DA11D621F739FB00D07
:102F1000A11D621F839FA00D611D221F749F332777
:102F2000A00D611D231F849F600D211D822F762F10
:102F30006A2F11249F5750408AF0E1F088234AF00D
:102F4000EE0FFF1FBB1F661F771F881F9150504059
:102F5000A9F79E3F510570F05CCFA6CF5F3FECF321
:102F6000983EDCF3869577956795B795F795E79545
:102F70009F5FC1F7FE2B880F911D9695879597F956
:102F8000089523DF880B990B0895629FD001739FEA
:102F9000F001829FE00DF11D649FE00DF11D929FF5
:102FA000F00D839FF00D749FF00D659FF00D992734
:102FB000729FB00DE11DF91F639FB00DE11DF91F58
:102FC000BD01CF011124089597FB092E07260AD0D1
:102FD00077FD04D02ED006D000201AF470956195AC
:102FE0007F4F0895F6F7909581959F4F0895A1E240
:102FF0001A2EAA1BBB1BFD010DC0AA1FBB1FEE1F73
:10300000FF1FA217B307E407F50720F0A21BB30BBD
:10301000E40BF50B661F771F881F991F1A9469F739
:1030200060957095809590959B01AC01BD01CF0195
:103030000895AA1BBB1B51E107C0AA1FBB1FA617FF
:10304000B70710F0A61BB70B881F991F5A95A9F751
:1030500080959095BC01CD010895EE0FFF1F05905E
:10306000F491E02D0994911106C0803219F0895035
:103070008550D0F708959927882708952F923F9279
:103080004F925F926F927F928F929F92AF92BF9278
:10309000CF92DF92EF92FF920F931F93CF93DF9324
:1030A000CDB7DEB7CA1BDB0B0FB6F894DEBF0FBE81
:1030B000CDBF09942A88398848885F846E847D84CE
:1030C0008C849B84AA84B984C884DF80EE80FD80D0
:1030D0000C811B81AA81B981CE0FD11D0FB6F89446
:1030E000DEBF0FBECDBFED01089511E0CEE9D1E006
:1030F00004C0FE010E942F182296C03AD107C9F7DA
:04310000F894FFCF71
:1031040000474741004747413A2000524D433A2087
:10311400006C61743A20006C6F6E3A2000560047D0
:10312400505320617070207374617274696E672EDD
:103134002E2E006E616E00696E66006F7666002E3C
:1031440000000D00244750524D4300244750474788
:10315400410000000000000000000000000000002A
:10316400000000000000000000000000000000005B
:10317400000000000000000000000000000000004B
:10318400000000000000000000000000000000003B
:10319400000000000000000000000000000000002B
:1031A400000000000000000000000000000000001B
:1031B400000000000000000000000000000000000B
:1031C40000000000000000000000000000000000FB
:1031D40000000000000000000000000000000000EB
:1031E40000000000000000000000000000000000DB
:1031F40000000000000000000000000000000000CB
:1032040000000000000000000000000000000000BA
:1032140000000000000000000000000000000000AA
:10322400000000000000000000000000000000009A
:1032340000000000000000000000800016050000EF
:10324400000000002508920F0B08EA07E808D708D9
:10325400000000003E0A920F0000400014005400D9
:1032640000000000ED0E920F830EB40E940EDD0EDE
:00000001FF
