:100000000C9462000C948A000C948A000C948A0070
:100010000C948A000C948A000C948A000C948A0038
:100020000C948A000C948A000C948A000C948D0025
:100030000C948A000C948A000C948A000C948A0018
:100040000C941E040C948A000C94D5010C94230289
:100050000C948A000C948A000C948A000C948A00F8
:100060000C948A000C948A000000000024002700F1
:100070002A0000000000250028002B0000000000DE
:1000800023002600290004040404040404040202DA
:100090000202020203030303030301020408102007
:1000A0004080010204081020010204081020000012
:1000B0000007000201000003040600000000000029
:1000C00000008F0311241FBECFEFD8E0DEBFCDBFED
:1000D00011E0A0E0B1E0E6E9F9E002C005900D9280
:1000E000A231B107D9F711E0A2E1B1E001C01D9240
:1000F000A53CB107E1F710E0C4ECD0E004C02297C2
:10010000FE010E94C504C23CD107C9F70E94E50365
:100110000C94C9040C94000008951F920F920FB61E
:100120000F9211241F932F933F934F935F936F93DD
:100130007F938F939F93AF93BF93EF93FF93F89425
:1001400010910001812F0E94810160E0892B09F448
:1001500061E0812F0E942D017894FF91EF91BF9172
:10016000AF919F918F917F916F915F914F913F914F
:100170002F911F910F900FBE0F901F9018958AE935
:1001800091E040E855E260E070E00E945E028091FC
:10019000000161E00E94EE008091000161E00E9498
:1001A0002D01F89410928000E1E8F0E010821092A6
:1001B00085001092840088E09DE3909389008093ED
:1001C0008800808188608083808185608083EFE6FD
:1001D000F0E080818260808378940895CF93DF93EC
:1001E000482F50E0CA0186569F4FFC0134914A5770
:1001F0005F4FFA018491882369F190E0880F991F7D
:10020000FC01E859FF4FA591B491FC01EE58FF4F56
:10021000C591D491662351F42FB7F8948C91932F04
:10022000909589238C93888189230BC0623061F477
:100230002FB7F8948C91932F909589238C93888174
:10024000832B88832FBF06C09FB7F8948C91832B94
:100250008C939FBFDF91CF910895482F50E0CA0142
:1002600082559F4FFC012491CA0186569F4FFC0185
:1002700094914A575F4FFA013491332309F440C0F7
:10028000222351F1233071F0243028F42130A1F0E1
:10029000223011F514C02630B1F02730C1F02430DF
:1002A000D9F404C0809180008F7703C080918000D2
:1002B0008F7D8093800010C084B58F7702C084B595
:1002C0008F7D84BD09C08091B0008F7703C080917D
:1002D000B0008F7D8093B000E32FF0E0EE0FFF1FA2
:1002E000EE58FF4FA591B4912FB7F894662321F4EF
:1002F0008C919095892302C08C91892B8C932FBF70
:100300000895682F70E0CB0182559F4FFC01249126
:10031000CB0186569F4FFC0144916A577F4FFB01EA
:100320009491992319F420E030E03CC0222351F14C
:10033000233071F0243028F42130A1F0223011F55F
:1003400014C02630B1F02730C1F02430D9F404C0F5
:10035000809180008F7703C0809180008F7D809393
:10036000800010C084B58F7702C084B58F7D84BDB6
:1003700009C08091B0008F7703C08091B0008F7D5D
:100380008093B000892F90E0880F991F84589F4F69
:10039000FC01A591B4918C9120E030E0842311F010
:1003A00021E030E0C901089508951F920F920FB621
:1003B0000F9211242F933F934F938F939F93EF931B
:1003C000FF938091C00082FD1DC04091C600209126
:1003D0005201309153012F5F3F4F2F733070809146
:1003E0005401909155012817390771F0E09152019D
:1003F000F0915301EE5EFE4F408330935301209302
:10040000520102C08091C600FF91EF919F918F91A0
:100410004F913F912F910F900FBE0F901F90189505
:10042000E091A601F091A701E05CFF4F81919191CD
:1004300020813181821B930B8F739070892B11F077
:100440000E94D40108951F920F920FB60F921124AB
:100450002F933F938F939F93EF93FF932091960158
:10046000309197018091980190919901281739074F
:1004700031F48091C1008F7D8093C10014C0E09160
:100480009801F0919901EA5AFE4F208180919801DC
:100490009091990101968F73907090939901809338
:1004A00098012093C600FF91EF919F918F913F910A
:1004B0002F910F900FBE0F901F901895AF92BF9283
:1004C000DF92EF92FF920F931F93CF93DF93EC0194
:1004D0007A018B01DD24403081EE580780E0680707
:1004E00080E0780711F0DD24D39491E0A92EB12C9F
:1004F000EC89FD89DD2069F0C50108A002C0880FE4
:10050000991F0A94E2F7808360E079E08DE390E040
:1005100005C0108260E874E88EE190E0A8019701C0
:100520000E94A104215030404040504056954795CC
:100530003795279580E12030380720F0DD2011F035
:10054000DD24D6CFE889F9893083EA89FB892083C5
:1005500019A2EE89FF89408121E030E0C9010C8CAD
:1005600002C0880F991F0A94E2F7482B4083EE8956
:10057000FF894081C9010D8C02C0880F991F0A9420
:10058000E2F7482B4083EE89FF894081C9010E8C38
:1005900002C0880F991F0A94E2F7482B4083EE8926
:1005A000FF8980810F8C02C0220F331F0A94E2F76B
:1005B000209528232083DF91CF911F910F91FF90E9
:1005C000EF90DF90BF90AF900895DC011C96ED9105
:1005D000FC911D97E05CFF4F2191319180819181C9
:1005E000281B390B2F733070C9010895DC011C964C
:1005F000ED91FC911D97E05CFF4F20813181E0542B
:10060000F040DF01AE5BBF4F8D919C911197281791
:10061000390719F42FEF3FEF07C08D919C91E80F38
:10062000F91F8081282F30E0C9010895DC011C9654
:10063000ED91FC911D97E05CFF4F20813181E054EA
:10064000F040DF01AE5BBF4F8D919C911197281751
:10065000390719F42FEF3FEF10C08D919C9111973E
:10066000E80FF91F20818D919C91119701968F734E
:10067000907011969C938E9330E0C9010895DC012F
:1006800091968C919197882339F05496ED91FC9135
:100690005597808186FFF9CF91961C920895CF934C
:1006A000DF93EC01EE85FF85E05CFF4F2081318117
:1006B000E054F0402F5F3F4F2F733070DF01AE5B8F
:1006C000BF4F8D919C91119728173907D1F3E05CAA
:1006D000FF4F80819181E054F040E80FF91F608363
:1006E000EE85FF85E05CFF4F31832083EE89FF8933
:1006F000208181E090E00F8C02C0880F991F0A943E
:10070000E2F7282B208381E089A3EC89FD89808191
:100710008064808381E090E0DF91CF910895109212
:100720009D0110929C0188EE93E0A0E0B0E08093E0
:100730009E0190939F01A093A001B093A10186E038
:1007400091E090939B0180939A0182E191E09093D4
:10075000A7018093A60186E591E09093A90180937B
:10076000A80185EC90E09093AB018093AA0184EC02
:1007700090E09093AD018093AC0180EC90E0909379
:10078000AF018093AE0181EC90E09093B101809332
:10079000B00182EC90E09093B3018093B20186ECBB
:1007A00090E09093B5018093B40184E08093B6010A
:1007B00083E08093B70187E08093B80185E0809360
:1007C000B90181E08093BA010895CF93DF930E942D
:1007D00066040E94BF00C0E1D2E00E948C00209716
:1007E000E1F30E941002F9CFCF92DF92EF92FF92D5
:1007F0000F931F93CF93DF937C016B018A01C0E0BD
:10080000D0E00FC0D6016D916D01D701ED91FC9143
:100810000190F081E02DC7010995C80FD91F015043
:1008200010400115110571F7CE01DF91CF911F9195
:100830000F91FF90EF90DF90CF9008951F920F924D
:100840000FB60F9211242F933F938F939F93AF93E3
:10085000BF938091C0019091C101A091C201B0915C
:10086000C3013091C4010196A11DB11D232F2D5F3D
:100870002D3720F02D570196A11DB11D2093C401E5
:100880008093C0019093C101A093C201B093C301B2
:100890008091BC019091BD01A091BE01B091BF01BA
:1008A0000196A11DB11D8093BC019093BD01A09341
:1008B000BE01B093BF01BF91AF919F918F913F91C6
:1008C0002F910F900FBE0F901F901895789484B5BC
:1008D000826084BD84B5816084BD85B5826085BD3C
:1008E00085B5816085BDEEE6F0E080818160808322
:1008F000E1E8F0E010828081826080838081816005
:100900008083E0E8F0E0808181608083E1EBF0E0CB
:10091000808184608083E0EBF0E08081816080836F
:10092000EAE7F0E080818460808380818260808358
:100930008081816080838081806880831092C10083
:100940000895A1E21A2EAA1BBB1BFD010DC0AA1F10
:10095000BB1FEE1FFF1FA217B307E407F50720F028
:10096000A21BB30BE40BF50B661F771F881F991FA3
:100970001A9469F760957095809590959B01AC01EC
:10098000BD01CF010895EE0FFF1F0590F491E02DFA
:060990000994F894FFCF6A
:100996000D00000000004F03F403E5021603F60203
:0209A6003F030D
:00000001FF
