:100000000C9462000C948A000C948A000C948A0070
:100010000C948A000C948A000C948A000C948A0038
:100020000C948A000C948A000C948A000C948A0028
:100030000C948A000C948A000C948A000C948A0018
:100040000C94F4030C948C000C945C010C94AA01A5
:100050000C948A000C948A000C948A000C948A00F8
:100060000C948A000C948A000000000024002700F1
:100070002A0000000000250028002B0000000000DE
:1000800023002600290004040404040404040202DA
:100090000202020203030303030301020408102007
:1000A0004080010204081020010204081020000012
:1000B0000007000201000003040600000000000029
:1000C0000000160311241FBECFEFD8E0DEBFCDBF66
:1000D00011E0A0E0B1E0E2E4F9E002C005900D9289
:1000E000AC31B107D9F712E0ACE1B1E001C01D922B
:1000F000A533B107E1F710E0C4ECD0E004C02297CB
:10010000FE010E949B04C23CD107C9F70E946C0308
:100110000C949F040C9400001F920F920FB60F9244
:1001200011248F939F93EF93FF939EB5809180014D
:10013000843678F480918001E82FF0E0E45EFE4F91
:1001400090838F5F809380019A3019F481E08093CF
:100150008101FF91EF919F918F910F900FBE0F90B2
:100160001F90189580918101882381F0E091800192
:10017000F0E0E45EFE4F10828AE092E06CE171E014
:100180000E94E103109280011092810108950F9363
:100190001F930AE012E0C80140E855E260E070E019
:1001A0000E94E501C80160E071E00E94E1038DE07A
:1001B00060E00E941C018BE060E00E941C018CE06A
:1001C00061E00E941C0184E060E00E941C018CE060
:1001D0000E94060181E00E94FD0085E00E940B0163
:1001E0008CB580648CBD10928001109281018CB519
:1001F00080688CBD1F910F910895882319F48CB5E8
:10020000806202C08CB58F7D8CBD08959CB5937FB4
:10021000982B9CBD08952CB5382F33702C7F322B32
:100220003CBD2DB590E09595879595958795817006
:100230002E7F822B8DBD0895CF93DF93482F50E002
:10024000CA0186569F4FFC0134914A575F4FFA010D
:100250008491882369F190E0880F991FFC01E85987
:10026000FF4FA591B491FC01EE58FF4FC591D49179
:10027000662351F42FB7F8948C91932F909589238E
:100280008C93888189230BC0623061F42FB7F89476
:100290008C91932F909589238C938881832B8883CD
:1002A0002FBF06C09FB7F8948C91832B8C939FBF70
:1002B000DF91CF91089508951F920F920FB60F927C
:1002C00011242F933F934F938F939F93EF93FF931B
:1002D0008091C00082FD1DC04091C6002091C201E6
:1002E0003091C3012F5F3F4F2F7330708091C40155
:1002F0009091C5012817390771F0E091C201F09182
:10030000C301EE57FE4F40833093C3012093C201D7
:1003100002C08091C600FF91EF919F918F914F9104
:100320003F912F910F900FBE0F901F901895E09165
:100330001602F0911702E05CFF4F819191912081AC
:100340003181821B930B8F739070892B11F00E9467
:100350005B0108951F920F920FB60F9211242F93F5
:100360003F938F939F93EF93FF93209106023091D9
:10037000070280910802909109022817390731F489
:100380008091C1008F7D8093C10014C0E09108026C
:10039000F0910902EA53FE4F20818091080290916A
:1003A000090201968F73907090930902809308025E
:1003B0002093C600FF91EF919F918F913F912F91D4
:1003C0000F900FBE0F901F901895AF92BF92DF92C3
:1003D000EF92FF920F931F93CF93DF93EC017A017B
:1003E0008B01DD24403081EE580780E0680780E013
:1003F000780711F0DD24D39491E0A92EB12CEC897B
:10040000FD89DD2069F0C50108A002C0880F991F91
:100410000A94E2F7808360E079E08DE390E005C024
:10042000108260E874E88EE190E0A80197010E94D4
:1004300077042150304040405040569547953795BD
:10044000279580E12030380720F0DD2011F0DD24F1
:10045000D6CFE889F9893083EA89FB89208319A2FC
:10046000EE89FF89408121E030E0C9010C8C02C097
:10047000880F991F0A94E2F7482B4083EE89FF8981
:100480004081C9010D8C02C0880F991F0A94E2F7C0
:10049000482B4083EE89FF894081C9010E8C02C040
:1004A000880F991F0A94E2F7482B4083EE89FF8951
:1004B00080810F8C02C0220F331F0A94E2F720952F
:1004C00028232083DF91CF911F910F91FF90EF9010
:1004D000DF90BF90AF900895DC011C96ED91FC91E8
:1004E0001D97E05CFF4F2191319180819181281B04
:1004F000390B2F733070C9010895DC011C96ED9102
:10050000FC911D97E05CFF4F20813181E054F04069
:10051000DF01AE5BBF4F8D919C9111972817390772
:1005200019F42FEF3FEF07C08D919C91E80FF91F51
:100530008081282F30E0C9010895DC011C96ED91DF
:10054000FC911D97E05CFF4F20813181E054F04029
:10055000DF01AE5BBF4F8D919C9111972817390732
:1005600019F42FEF3FEF10C08D919C911197E80F78
:10057000F91F20818D919C91119701968F73907036
:1005800011969C938E9330E0C9010895DC019196F9
:100590008C919197882339F05496ED91FC91559761
:1005A000808186FFF9CF91961C920895CF93DF93B7
:1005B000EC01EE85FF85E05CFF4F20813181E05446
:1005C000F0402F5F3F4F2F733070DF01AE5BBF4FA6
:1005D0008D919C91119728173907D1F3E05CFF4F5B
:1005E00080819181E054F040E80FF91F6083EE852F
:1005F000FF85E05CFF4F31832083EE89FF892081F6
:1006000081E090E00F8C02C0880F991F0A94E2F7F6
:10061000282B208381E089A3EC89FD898081806477
:10062000808381E090E0DF91CF91089510920D02D8
:1006300010920C0288EE93E0A0E0B0E080930E02EE
:1006400090930F02A0931002B09311028FE091E0FB
:1006500090930B0280930A0282E891E09093170234
:100660008093160286EC91E0909319028093180211
:1006700085EC90E090931B0280931A0284EC90E04A
:1006800090931D0280931C0280EC90E090931F02D7
:1006900080931E0281EC90E09093210280932002CF
:1006A00082EC90E0909323028093220286EC90E00B
:1006B000909325028093240284E08093260283E0B5
:1006C0008093270287E08093280285E080932902A7
:1006D00081E080932A020895CF93DF930E943C0427
:1006E0000E94C700C7E9D1E00E94B2002097E1F361
:1006F0000E949701F9CFCF92DF92EF92FF920F9372
:100700001F93CF93DF937C016B018A01C0E0D0E09F
:100710000FC0D6016D916D01D701ED91FC91019053
:10072000F081E02DC7010995C80FD91F0150104075
:100730000115110571F7CE01DF91CF911F910F9136
:10074000FF90EF90DF90CF900895EF92FF920F937C
:100750001F938C01DC01ED91FC910190F081E02D63
:100760006DE009957C01D801ED91FC910190F0813B
:10077000E02DC8016AE009959C012E0D3F1DC901BD
:100780001F910F91FF90EF900895CF93DF93EC01AD
:100790006115710519F420E030E00FC0DB010D9008
:1007A0000020E9F71197A61BB70BE881F9810280B9
:1007B000F381E02DAD0109959C01C901DF91CF9135
:1007C0000895EF92FF920F931F937C010E94C5033F
:1007D0008C01C7010E94A503080F191FC8011F91B2
:1007E0000F91FF90EF9008951F920F920FB60F9206
:1007F00011242F933F938F939F93AF93BF93809137
:10080000300290913102A0913202B09133023091C6
:1008100034020196A11DB11D232F2D5F2D3720F02D
:100820002D570196A11DB11D2093340280933002F3
:1008300090933102A0933202B093330280912C0244
:1008400090912D02A0912E02B0912F020196A11D30
:10085000B11D80932C0290932D02A0932E02B09391
:100860002F02BF91AF919F918F913F912F910F9048
:100870000FBE0F901F901895789484B5826084BD48
:1008800084B5816084BD85B5826085BD85B5816094
:1008900085BDEEE6F0E0808181608083E1E8F0E0F4
:1008A0001082808182608083808181608083E0E823
:1008B000F0E0808181608083E1EBF0E08081846002
:1008C0008083E0EBF0E0808181608083EAE7F0E004
:1008D0008081846080838081826080838081816068
:1008E00080838081806880831092C1000895A1E296
:1008F0001A2EAA1BBB1BFD010DC0AA1FBB1FEE1F9A
:10090000FF1FA217B307E407F50720F0A21BB30BE4
:10091000E40BF50B661F771F881F991F1A9469F760
:1009200060957095809590959B01AC01BD01CF01BC
:100930000895EE0FFF1F0590F491E02D0994F894AF
:02094000FFCFE7
:1009420057616974696E672E2E2E0000000000D672
:0C095200027B036C029D027D02C60200C5
:00000001FF
